{
  "_format": "hh-sol-artifact-1",
  "contractName": "IndianPokerSolo",
  "sourceName": "contracts/IndianPokerSolo.sol",
  "abi": [
    {
      "inputs": [
        {
          "internalType": "address",
          "name": "_TAZZA",
          "type": "address"
        }
      ],
      "stateMutability": "nonpayable",
      "type": "constructor"
    },
    {
      "anonymous": false,
      "inputs": [
        {
          "indexed": false,
          "internalType": "uint256",
          "name": "game_ind",
          "type": "uint256"
        },
        {
          "indexed": false,
          "internalType": "address",
          "name": "player",
          "type": "address"
        }
      ],
      "name": "Draw",
      "type": "event"
    },
    {
      "anonymous": false,
      "inputs": [
        {
          "indexed": false,
          "internalType": "uint256",
          "name": "game_ind",
          "type": "uint256"
        },
        {
          "indexed": false,
          "internalType": "address",
          "name": "player",
          "type": "address"
        },
        {
          "indexed": false,
          "internalType": "uint256",
          "name": "amount",
          "type": "uint256"
        }
      ],
      "name": "Lose",
      "type": "event"
    },
    {
      "anonymous": false,
      "inputs": [
        {
          "indexed": false,
          "internalType": "uint256",
          "name": "game_ind",
          "type": "uint256"
        },
        {
          "indexed": false,
          "internalType": "uint256",
          "name": "round",
          "type": "uint256"
        }
      ],
      "name": "Round",
      "type": "event"
    },
    {
      "anonymous": false,
      "inputs": [
        {
          "indexed": false,
          "internalType": "uint256",
          "name": "game_ind",
          "type": "uint256"
        },
        {
          "indexed": false,
          "internalType": "address",
          "name": "player",
          "type": "address"
        },
        {
          "indexed": false,
          "internalType": "uint256",
          "name": "bet",
          "type": "uint256"
        }
      ],
      "name": "StartGame",
      "type": "event"
    },
    {
      "anonymous": false,
      "inputs": [
        {
          "indexed": false,
          "internalType": "uint256",
          "name": "game_ind",
          "type": "uint256"
        },
        {
          "indexed": false,
          "internalType": "address",
          "name": "player",
          "type": "address"
        },
        {
          "indexed": false,
          "internalType": "uint256",
          "name": "amount",
          "type": "uint256"
        }
      ],
      "name": "Win",
      "type": "event"
    },
    {
      "inputs": [],
      "name": "TAZZA",
      "outputs": [
        {
          "internalType": "contract ITazza",
          "name": "",
          "type": "address"
        }
      ],
      "stateMutability": "view",
      "type": "function"
    },
    {
      "inputs": [],
      "name": "game_count",
      "outputs": [
        {
          "internalType": "uint256",
          "name": "",
          "type": "uint256"
        }
      ],
      "stateMutability": "view",
      "type": "function"
    },
    {
      "inputs": [
        {
          "internalType": "address",
          "name": "",
          "type": "address"
        }
      ],
      "name": "game_per_player",
      "outputs": [
        {
          "internalType": "uint256",
          "name": "",
          "type": "uint256"
        }
      ],
      "stateMutability": "view",
      "type": "function"
    },
    {
      "inputs": [
        {
          "internalType": "uint256",
          "name": "",
          "type": "uint256"
        }
      ],
      "name": "game_states",
      "outputs": [
        {
          "internalType": "uint256",
          "name": "round",
          "type": "uint256"
        },
        {
          "internalType": "uint256",
          "name": "deck_ind",
          "type": "uint256"
        },
        {
          "internalType": "bool",
          "name": "choice",
          "type": "bool"
        }
      ],
      "stateMutability": "view",
      "type": "function"
    },
    {
      "inputs": [
        {
          "internalType": "uint256",
          "name": "",
          "type": "uint256"
        }
      ],
      "name": "games",
      "outputs": [
        {
          "internalType": "uint256",
          "name": "bet",
          "type": "uint256"
        },
        {
          "components": [
            {
              "internalType": "address",
              "name": "addr",
              "type": "address"
            },
            {
              "internalType": "uint256[2]",
              "name": "public_key",
              "type": "uint256[2]"
            }
          ],
          "internalType": "struct ITazza.Player",
          "name": "player",
          "type": "tuple"
        }
      ],
      "stateMutability": "view",
      "type": "function"
    },
    {
      "inputs": [
        {
          "internalType": "uint256",
          "name": "game_ind",
          "type": "uint256"
        },
        {
          "components": [
            {
              "internalType": "uint256",
              "name": "c1_x",
              "type": "uint256"
            },
            {
              "internalType": "uint256",
              "name": "c1_y",
              "type": "uint256"
            },
            {
              "internalType": "uint256",
              "name": "c2_x",
              "type": "uint256"
            },
            {
              "internalType": "uint256",
              "name": "c2_y",
              "type": "uint256"
            },
            {
              "internalType": "uint256",
              "name": "flag",
              "type": "uint256"
            }
          ],
          "internalType": "struct ITazza.Card[]",
          "name": "cards",
          "type": "tuple[]"
        }
      ],
      "name": "round1",
      "outputs": [],
      "stateMutability": "nonpayable",
      "type": "function"
    },
    {
      "inputs": [
        {
          "internalType": "uint256",
          "name": "game_ind",
          "type": "uint256"
        }
      ],
      "name": "round2",
      "outputs": [],
      "stateMutability": "nonpayable",
      "type": "function"
    },
    {
      "inputs": [
        {
          "internalType": "uint256",
          "name": "game_ind",
          "type": "uint256"
        },
        {
          "internalType": "bool",
          "name": "choice",
          "type": "bool"
        }
      ],
      "name": "round3",
      "outputs": [],
      "stateMutability": "nonpayable",
      "type": "function"
    },
    {
      "inputs": [
        {
          "internalType": "uint256",
          "name": "game_ind",
          "type": "uint256"
        }
      ],
      "name": "round4",
      "outputs": [],
      "stateMutability": "nonpayable",
      "type": "function"
    },
    {
      "inputs": [
        {
          "internalType": "uint256",
          "name": "game_ind",
          "type": "uint256"
        },
        {
          "internalType": "bool",
          "name": "opponent_choice",
          "type": "bool"
        }
      ],
      "name": "round5",
      "outputs": [],
      "stateMutability": "nonpayable",
      "type": "function"
    },
    {
      "inputs": [
        {
          "internalType": "uint256[24]",
          "name": "proof",
          "type": "uint256[24]"
        },
        {
          "internalType": "uint256[2]",
          "name": "public_key",
          "type": "uint256[2]"
        }
      ],
      "name": "start_game",
      "outputs": [],
      "stateMutability": "payable",
      "type": "function"
    },
    {
      "stateMutability": "payable",
      "type": "receive"
    }
  ],
  "bytecode": "0x60806040523480156200001157600080fd5b506040516200227b3803806200227b8339818101604052810190620000379190620000f0565b806000806101000a81548173ffffffffffffffffffffffffffffffffffffffff021916908373ffffffffffffffffffffffffffffffffffffffff16021790555060006001819055505062000122565b600080fd5b600073ffffffffffffffffffffffffffffffffffffffff82169050919050565b6000620000b8826200008b565b9050919050565b620000ca81620000ab565b8114620000d657600080fd5b50565b600081519050620000ea81620000bf565b92915050565b60006020828403121562000109576200010862000086565b5b60006200011984828501620000d9565b91505092915050565b61214980620001326000396000f3fe6080604052600436106100a05760003560e01c8063533dd88a11610064578063533dd88a1461019257806363688c6b146101bb57806380db1b99146101e4578063aae6acb814610223578063b435ceb41461024c578063d3d7255314610289576100a7565b8063117a5b90146100ac57806326acf95c146100ea5780632d30d9af1461011557806346aa39d61461013e57806350aea99514610167576100a7565b366100a757005b600080fd5b3480156100b857600080fd5b506100d360048036038101906100ce919061159e565b6102a5565b6040516100e19291906116f5565b60405180910390f35b3480156100f657600080fd5b506100ff61036e565b60405161010c919061171e565b60405180910390f35b34801561012157600080fd5b5061013c6004803603810190610137919061159e565b610374565b005b34801561014a57600080fd5b5061016560048036038101906101609190611771565b610529565b005b34801561017357600080fd5b5061017c610961565b6040516101899190611810565b60405180910390f35b34801561019e57600080fd5b506101b960048036038101906101b49190611890565b610985565b005b3480156101c757600080fd5b506101e260048036038101906101dd9190611771565b610d3f565b005b3480156101f057600080fd5b5061020b6004803603810190610206919061159e565b610e77565b60405161021a939291906118ff565b60405180910390f35b34801561022f57600080fd5b5061024a6004803603810190610245919061159e565b610eae565b005b34801561025857600080fd5b50610273600480360381019061026e9190611962565b611064565b604051610280919061171e565b60405180910390f35b6102a3600480360381019061029e91906119d3565b61107c565b005b6002602052806000526040600020600091509050806000015490806001016040518060400160405290816000820160009054906101000a900473ffffffffffffffffffffffffffffffffffffffff1673ffffffffffffffffffffffffffffffffffffffff1673ffffffffffffffffffffffffffffffffffffffff16815260200160018201600280602002604051908101604052809291908260028015610360576020028201915b81548152602001906001019080831161034c575b505050505081525050905082565b60015481565b8060028060036000848152602001908152602001600020600001541461039957600080fd5b823373ffffffffffffffffffffffffffffffffffffffff166002600083815260200190815260200160002060010160000160009054906101000a900473ffffffffffffffffffffffffffffffffffffffff1673ffffffffffffffffffffffffffffffffffffffff161461040b57600080fd5b60006003600086815260200190815260200160002060010154905060008054906101000a900473ffffffffffffffffffffffffffffffffffffffff1673ffffffffffffffffffffffffffffffffffffffff1663778ad707826000806040518463ffffffff1660e01b815260040161048493929190611a50565b600060405180830381600087803b15801561049e57600080fd5b505af11580156104b2573d6000803e3d6000fd5b5050505050506001816104c59190611ab6565b60036000848152602001908152602001600020600001819055507fe2af5431d45f111f112df909784bcdd0cf9a409671adeaf0964cc234a98297fe8260018361050e9190611ab6565b60405161051c929190611aea565b60405180910390a1505050565b8160058060036000848152602001908152602001600020600001541461054e57600080fd5b60006003600086815260200190815260200160002060010154905060008060009054906101000a900473ffffffffffffffffffffffffffffffffffffffff1673ffffffffffffffffffffffffffffffffffffffff1663abeeeac08360006040518363ffffffff1660e01b81526004016105c8929190611b13565b602060405180830381865afa1580156105e5573d6000803e3d6000fd5b505050506040513d601f19601f820116820180604052508101906106099190611b51565b905060008060009054906101000a900473ffffffffffffffffffffffffffffffffffffffff1673ffffffffffffffffffffffffffffffffffffffff1663abeeeac08460016040518363ffffffff1660e01b815260040161066a929190611bb9565b602060405180830381865afa158015610687573d6000803e3d6000fd5b505050506040513d601f19601f820116820180604052508101906106ab9190611b51565b905060006003600089815260200190815260200160002060020160009054906101000a900460ff16905060008790506000806106e984848789611299565b915091506000600260008d815260200190815260200160002060010160000160009054906101000a900473ffffffffffffffffffffffffffffffffffffffff169050600030905061073c82828686611368565b600084036107d7577f94dd8caf4803213035e054c595c14a4902fc45ff2d35957b439326822e4348198d838560016107749190611be2565b60405161078393929190611c33565b60405180910390a17f19c1452898d0e907e7fedd103c9f4f2133b48bdde93baba832cd4c0d2a2b3baa8d828560016107bb9190611be2565b6040516107ca93929190611c33565b60405180910390a16108e6565b60018403610872577f94dd8caf4803213035e054c595c14a4902fc45ff2d35957b439326822e4348198d8285600161080f9190611be2565b60405161081e93929190611c33565b60405180910390a17f19c1452898d0e907e7fedd103c9f4f2133b48bdde93baba832cd4c0d2a2b3baa8d838560016108569190611be2565b60405161086593929190611c33565b60405180910390a16108e5565b7fc41816115fa1bcec19c79512b6fbb5b88fe30c0036f40828b1a10609ec9434828d836040516108a3929190611c6a565b60405180910390a17fc41816115fa1bcec19c79512b6fbb5b88fe30c0036f40828b1a10609ec9434828d826040516108dc929190611c6a565b60405180910390a15b5b5050505050505050506001816108fc9190611ab6565b60036000848152602001908152602001600020600001819055507fe2af5431d45f111f112df909784bcdd0cf9a409671adeaf0964cc234a98297fe826001836109459190611ab6565b604051610953929190611aea565b60405180910390a150505050565b60008054906101000a900473ffffffffffffffffffffffffffffffffffffffff1681565b826001806003600084815260200190815260200160002060000154146109aa57600080fd5b843373ffffffffffffffffffffffffffffffffffffffff166002600083815260200190815260200160002060010160000160009054906101000a900473ffffffffffffffffffffffffffffffffffffffff1673ffffffffffffffffffffffffffffffffffffffff1614610a1c57600080fd5b6000600167ffffffffffffffff811115610a3957610a38611c93565b5b604051908082528060200260200182016040528015610a7257816020015b610a5f6114a9565b815260200190600190039081610a575790505b5090506002600088815260200190815260200160002060010160000160009054906101000a900473ffffffffffffffffffffffffffffffffffffffff1681600081518110610ac357610ac2611cc2565b5b60200260200101516000019073ffffffffffffffffffffffffffffffffffffffff16908173ffffffffffffffffffffffffffffffffffffffff168152505060026000888152602001908152602001600020600101600101600280602002604051908101604052809291908260028015610b51576020028201915b815481526020019060010190808311610b3d575b505050505081600081518110610b6a57610b69611cc2565b5b60200260200101516020018190525060008060009054906101000a900473ffffffffffffffffffffffffffffffffffffffff1673ffffffffffffffffffffffffffffffffffffffff166388e18cdc308460046040518463ffffffff1660e01b8152600401610bda93929190611e0a565b6020604051808303816000875af1158015610bf9573d6000803e3d6000fd5b505050506040513d601f19601f82011682018060405250810190610c1d9190611b51565b905060008054906101000a900473ffffffffffffffffffffffffffffffffffffffff1673ffffffffffffffffffffffffffffffffffffffff166387c4267c8289896040518463ffffffff1660e01b8152600401610c7c93929190611f97565b600060405180830381600087803b158015610c9657600080fd5b505af1158015610caa573d6000803e3d6000fd5b5050505080600360008a815260200190815260200160002060010181905550505050600181610cd99190611ab6565b60036000848152602001908152602001600020600001819055507fe2af5431d45f111f112df909784bcdd0cf9a409671adeaf0964cc234a98297fe82600183610d229190611ab6565b604051610d30929190611aea565b60405180910390a15050505050565b81600380600360008481526020019081526020016000206000015414610d6457600080fd5b833373ffffffffffffffffffffffffffffffffffffffff166002600083815260200190815260200160002060010160000160009054906101000a900473ffffffffffffffffffffffffffffffffffffffff1673ffffffffffffffffffffffffffffffffffffffff1614610dd657600080fd5b836003600087815260200190815260200160002060020160006101000a81548160ff02191690831515021790555050600181610e129190611ab6565b60036000848152602001908152602001600020600001819055507fe2af5431d45f111f112df909784bcdd0cf9a409671adeaf0964cc234a98297fe82600183610e5b9190611ab6565b604051610e69929190611aea565b60405180910390a150505050565b60036020528060005260406000206000915090508060000154908060010154908060020160009054906101000a900460ff16905083565b80600480600360008481526020019081526020016000206000015414610ed357600080fd5b823373ffffffffffffffffffffffffffffffffffffffff166002600083815260200190815260200160002060010160000160009054906101000a900473ffffffffffffffffffffffffffffffffffffffff1673ffffffffffffffffffffffffffffffffffffffff1614610f4557600080fd5b60006003600086815260200190815260200160002060010154905060008054906101000a900473ffffffffffffffffffffffffffffffffffffffff1673ffffffffffffffffffffffffffffffffffffffff1663778ad70782600160006040518463ffffffff1660e01b8152600401610fbf93929190611fc9565b600060405180830381600087803b158015610fd957600080fd5b505af1158015610fed573d6000803e3d6000fd5b5050505050506001816110009190611ab6565b60036000848152602001908152602001600020600001819055507fe2af5431d45f111f112df909784bcdd0cf9a409671adeaf0964cc234a98297fe826001836110499190611ab6565b604051611057929190611aea565b60405180910390a1505050565b60046020528060005260406000206000915090505481565b6001600261108a9190611be2565b341461109557600080fd5b60008054906101000a900473ffffffffffffffffffffffffffffffffffffffff1673ffffffffffffffffffffffffffffffffffffffff166353c37af783836040518363ffffffff1660e01b81526004016110f092919061202a565b6020604051808303816000875af115801561110f573d6000803e3d6000fd5b505050506040513d601f19601f82011682018060405250810190611133919061206a565b61113c57600080fd5b6001600081548092919061114f90612097565b91905055506000600154905060016002600083815260200190815260200160002060000181905550336002600083815260200190815260200160002060010160000160006101000a81548173ffffffffffffffffffffffffffffffffffffffff021916908373ffffffffffffffffffffffffffffffffffffffff16021790555081600260008381526020019081526020016000206001016001019060026111f79291906114df565b5080600460003373ffffffffffffffffffffffffffffffffffffffff1673ffffffffffffffffffffffffffffffffffffffff168152602001908152602001600020819055507f6ebd4593788358522a0cef8550b2a2f36e8d2a49a5f5608b739c489a8183051d8133600160405161127093929190611c33565b60405180910390a160016003600083815260200190815260200160002060000181905550505050565b6000808580156112a65750845b156112ca5760029050828411156112c057600091506112c5565b600191505b61135f565b8580156112d5575084155b156112f95760009150600383036112ef57600290506112f4565b600190505b61135e565b851580156113045750845b1561132857600191506003840361131e5760029050611323565b600190505b61135d565b6003840361133d57600191506002905061135c565b6003830361135257600091506002905061135b565b60029150600090505b5b5b5b5b94509492505050565b600080600084036113ae5760018360026113829190611ab6565b61138c9190611be2565b9150600183600261139d91906120df565b6113a79190611be2565b9050611413565b600184036113f15760018360026113c591906120df565b6113cf9190611be2565b915060018360026113e09190611ab6565b6113ea9190611be2565b9050611412565b600160026113ff9190611be2565b91506001600261140f9190611be2565b90505b5b6000821461145a578573ffffffffffffffffffffffffffffffffffffffff166108fc839081150290604051600060405180830381858888f1935050505061145957600080fd5b5b600081146114a1578473ffffffffffffffffffffffffffffffffffffffff166108fc829081150290604051600060405180830381858888f193505050506114a057600080fd5b5b505050505050565b6040518060400160405280600073ffffffffffffffffffffffffffffffffffffffff1681526020016114d961151f565b81525090565b826002810192821561150e579160200282015b8281111561150d5782358255916020019190600101906114f2565b5b50905061151b9190611541565b5090565b6040518060400160405280600290602082028036833780820191505090505090565b5b8082111561155a576000816000905550600101611542565b5090565b600080fd5b600080fd5b6000819050919050565b61157b81611568565b811461158657600080fd5b50565b60008135905061159881611572565b92915050565b6000602082840312156115b4576115b361155e565b5b60006115c284828501611589565b91505092915050565b6115d481611568565b82525050565b600073ffffffffffffffffffffffffffffffffffffffff82169050919050565b6000611605826115da565b9050919050565b611615816115fa565b82525050565b600060029050919050565b600081905092915050565b6000819050919050565b61164481611568565b82525050565b6000611656838361163b565b60208301905092915050565b6000602082019050919050565b6116788161161b565b6116828184611626565b925061168d82611631565b8060005b838110156116be5781516116a5878261164a565b96506116b083611662565b925050600181019050611691565b505050505050565b6060820160008201516116dc600085018261160c565b5060208201516116ef602085018261166f565b50505050565b600060808201905061170a60008301856115cb565b61171760208301846116c6565b9392505050565b600060208201905061173360008301846115cb565b92915050565b60008115159050919050565b61174e81611739565b811461175957600080fd5b50565b60008135905061176b81611745565b92915050565b600080604083850312156117885761178761155e565b5b600061179685828601611589565b92505060206117a78582860161175c565b9150509250929050565b6000819050919050565b60006117d66117d16117cc846115da565b6117b1565b6115da565b9050919050565b60006117e8826117bb565b9050919050565b60006117fa826117dd565b9050919050565b61180a816117ef565b82525050565b60006020820190506118256000830184611801565b92915050565b600080fd5b600080fd5b600080fd5b60008083601f8401126118505761184f61182b565b5b8235905067ffffffffffffffff81111561186d5761186c611830565b5b6020830191508360a082028301111561188957611888611835565b5b9250929050565b6000806000604084860312156118a9576118a861155e565b5b60006118b786828701611589565b935050602084013567ffffffffffffffff8111156118d8576118d7611563565b5b6118e48682870161183a565b92509250509250925092565b6118f981611739565b82525050565b600060608201905061191460008301866115cb565b61192160208301856115cb565b61192e60408301846118f0565b949350505050565b61193f816115fa565b811461194a57600080fd5b50565b60008135905061195c81611936565b92915050565b6000602082840312156119785761197761155e565b5b60006119868482850161194d565b91505092915050565b6000819050826020601802820111156119ab576119aa611835565b5b92915050565b6000819050826020600202820111156119cd576119cc611835565b5b92915050565b60008061034083850312156119eb576119ea61155e565b5b60006119f98582860161198f565b925050610300611a0b858286016119b1565b9150509250929050565b6000819050919050565b6000611a3a611a35611a3084611a15565b6117b1565b611568565b9050919050565b611a4a81611a1f565b82525050565b6000606082019050611a6560008301866115cb565b611a726020830185611a41565b611a7f6040830184611a41565b949350505050565b7f4e487b7100000000000000000000000000000000000000000000000000000000600052601160045260246000fd5b6000611ac182611568565b9150611acc83611568565b9250828201905080821115611ae457611ae3611a87565b5b92915050565b6000604082019050611aff60008301856115cb565b611b0c60208301846115cb565b9392505050565b6000604082019050611b2860008301856115cb565b611b356020830184611a41565b9392505050565b600081519050611b4b81611572565b92915050565b600060208284031215611b6757611b6661155e565b5b6000611b7584828501611b3c565b91505092915050565b6000819050919050565b6000611ba3611b9e611b9984611b7e565b6117b1565b611568565b9050919050565b611bb381611b88565b82525050565b6000604082019050611bce60008301856115cb565b611bdb6020830184611baa565b9392505050565b6000611bed82611568565b9150611bf883611568565b9250828202611c0681611568565b91508282048414831517611c1d57611c1c611a87565b5b5092915050565b611c2d816115fa565b82525050565b6000606082019050611c4860008301866115cb565b611c556020830185611c24565b611c6260408301846115cb565b949350505050565b6000604082019050611c7f60008301856115cb565b611c8c6020830184611c24565b9392505050565b7f4e487b7100000000000000000000000000000000000000000000000000000000600052604160045260246000fd5b7f4e487b7100000000000000000000000000000000000000000000000000000000600052603260045260246000fd5b600081519050919050565b600082825260208201905092915050565b6000819050602082019050919050565b606082016000820151611d33600085018261160c565b506020820151611d46602085018261166f565b50505050565b6000611d588383611d1d565b60608301905092915050565b6000602082019050919050565b6000611d7c82611cf1565b611d868185611cfc565b9350611d9183611d0d565b8060005b83811015611dc2578151611da98882611d4c565b9750611db483611d64565b925050600181019050611d95565b5085935050505092915050565b6000819050919050565b6000611df4611def611dea84611dcf565b6117b1565b611568565b9050919050565b611e0481611dd9565b82525050565b6000606082019050611e1f6000830186611c24565b8181036020830152611e318185611d71565b9050611e406040830184611dfb565b949350505050565b600082825260208201905092915050565b6000819050919050565b6000611e726020840184611589565b905092915050565b60a08201611e8b6000830183611e63565b611e98600085018261163b565b50611ea66020830183611e63565b611eb3602085018261163b565b50611ec16040830183611e63565b611ece604085018261163b565b50611edc6060830183611e63565b611ee9606085018261163b565b50611ef76080830183611e63565b611f04608085018261163b565b50505050565b6000611f168383611e7a565b60a08301905092915050565b600082905092915050565b600060a082019050919050565b6000611f468385611e48565b9350611f5182611e59565b8060005b85811015611f8a57611f678284611f22565b611f718882611f0a565b9750611f7c83611f2d565b925050600181019050611f55565b5085925050509392505050565b6000604082019050611fac60008301866115cb565b8181036020830152611fbf818486611f3a565b9050949350505050565b6000606082019050611fde60008301866115cb565b611feb6020830185611baa565b611ff86040830184611a41565b949350505050565b82818337505050565b6120166103008383612000565b5050565b61202660408383612000565b5050565b6000610340820190506120406000830185612009565b61204e61030083018461201a565b9392505050565b60008151905061206481611745565b92915050565b6000602082840312156120805761207f61155e565b5b600061208e84828501612055565b91505092915050565b60006120a282611568565b91507fffffffffffffffffffffffffffffffffffffffffffffffffffffffffffffffff82036120d4576120d3611a87565b5b600182019050919050565b60006120ea82611568565b91506120f583611568565b925082820390508181111561210d5761210c611a87565b5b9291505056fea26469706673582212209fbb1e0d1dffc322813a7d85fd7c709077025b9e95c23a9f5969f4f2849a014564736f6c63430008120033",
  "linkReferences": {},
  "deployedLinkReferences": {}
}