{"contracts/IndianPokerSolo.sol":{"IndianPokerSolo":{"abi":[{"inputs":[{"internalType":"address","name":"_TAZZA","type":"address"}],"stateMutability":"nonpayable","type":"constructor"},{"anonymous":false,"inputs":[{"indexed":false,"internalType":"uint256","name":"game_ind","type":"uint256"},{"indexed":false,"internalType":"address","name":"player","type":"address"}],"name":"Draw","type":"event"},{"anonymous":false,"inputs":[{"indexed":false,"internalType":"uint256","name":"game_ind","type":"uint256"},{"indexed":false,"internalType":"address","name":"player","type":"address"},{"indexed":false,"internalType":"uint256","name":"amount","type":"uint256"}],"name":"Lose","type":"event"},{"anonymous":false,"inputs":[{"indexed":false,"internalType":"uint256","name":"game_ind","type":"uint256"},{"indexed":false,"internalType":"uint256","name":"round","type":"uint256"}],"name":"Round","type":"event"},{"anonymous":false,"inputs":[{"indexed":false,"internalType":"uint256","name":"game_ind","type":"uint256"},{"indexed":false,"internalType":"address","name":"player","type":"address"},{"indexed":false,"internalType":"uint256","name":"bet","type":"uint256"}],"name":"StartGame","type":"event"},{"anonymous":false,"inputs":[{"indexed":false,"internalType":"uint256","name":"game_ind","type":"uint256"},{"indexed":false,"internalType":"address","name":"player","type":"address"},{"indexed":false,"internalType":"uint256","name":"amount","type":"uint256"}],"name":"Win","type":"event"},{"inputs":[],"name":"TAZZA","outputs":[{"internalType":"contract ITazza","name":"","type":"address"}],"stateMutability":"view","type":"function"},{"inputs":[],"name":"game_count","outputs":[{"internalType":"uint256","name":"","type":"uint256"}],"stateMutability":"view","type":"function"},{"inputs":[{"internalType":"address","name":"","type":"address"}],"name":"game_per_player","outputs":[{"internalType":"uint256","name":"","type":"uint256"}],"stateMutability":"view","type":"function"},{"inputs":[{"internalType":"uint256","name":"","type":"uint256"}],"name":"game_states","outputs":[{"internalType":"uint256","name":"round","type":"uint256"},{"internalType":"uint256","name":"deck_ind","type":"uint256"},{"internalType":"bool","name":"choice","type":"bool"}],"stateMutability":"view","type":"function"},{"inputs":[{"internalType":"uint256","name":"","type":"uint256"}],"name":"games","outputs":[{"internalType":"uint256","name":"bet","type":"uint256"},{"components":[{"internalType":"address","name":"addr","type":"address"},{"internalType":"uint256[2]","name":"public_key","type":"uint256[2]"}],"internalType":"struct ITazza.Player","name":"player","type":"tuple"}],"stateMutability":"view","type":"function"},{"inputs":[{"internalType":"uint256","name":"game_ind","type":"uint256"},{"components":[{"internalType":"uint256","name":"c1_x","type":"uint256"},{"internalType":"uint256","name":"c1_y","type":"uint256"},{"internalType":"uint256","name":"c2_x","type":"uint256"},{"internalType":"uint256","name":"c2_y","type":"uint256"},{"internalType":"uint256","name":"flag","type":"uint256"}],"internalType":"struct ITazza.Card[]","name":"cards","type":"tuple[]"}],"name":"round1","outputs":[],"stateMutability":"nonpayable","type":"function"},{"inputs":[{"internalType":"uint256","name":"game_ind","type":"uint256"}],"name":"round2","outputs":[],"stateMutability":"nonpayable","type":"function"},{"inputs":[{"internalType":"uint256","name":"game_ind","type":"uint256"},{"internalType":"bool","name":"choice","type":"bool"}],"name":"round3","outputs":[],"stateMutability":"nonpayable","type":"function"},{"inputs":[{"internalType":"uint256","name":"game_ind","type":"uint256"}],"name":"round4","outputs":[],"stateMutability":"nonpayable","type":"function"},{"inputs":[{"internalType":"uint256","name":"game_ind","type":"uint256"},{"internalType":"bool","name":"opponent_choice","type":"bool"}],"name":"round5","outputs":[],"stateMutability":"nonpayable","type":"function"},{"inputs":[{"internalType":"uint256[24]","name":"proof","type":"uint256[24]"},{"internalType":"uint256[2]","name":"public_key","type":"uint256[2]"}],"name":"start_game","outputs":[],"stateMutability":"payable","type":"function"},{"stateMutability":"payable","type":"receive"}],"evm":{"bytecode":{"linkReferences":{},"object":"60806040523480156200001157600080fd5b506040516200227b3803806200227b8339818101604052810190620000379190620000f0565b806000806101000a81548173ffffffffffffffffffffffffffffffffffffffff021916908373ffffffffffffffffffffffffffffffffffffffff16021790555060006001819055505062000122565b600080fd5b600073ffffffffffffffffffffffffffffffffffffffff82169050919050565b6000620000b8826200008b565b9050919050565b620000ca81620000ab565b8114620000d657600080fd5b50565b600081519050620000ea81620000bf565b92915050565b60006020828403121562000109576200010862000086565b5b60006200011984828501620000d9565b91505092915050565b61214980620001326000396000f3fe6080604052600436106100a05760003560e01c8063533dd88a11610064578063533dd88a1461019257806363688c6b146101bb57806380db1b99146101e4578063aae6acb814610223578063b435ceb41461024c578063d3d7255314610289576100a7565b8063117a5b90146100ac57806326acf95c146100ea5780632d30d9af1461011557806346aa39d61461013e57806350aea99514610167576100a7565b366100a757005b600080fd5b3480156100b857600080fd5b506100d360048036038101906100ce919061159e565b6102a5565b6040516100e19291906116f5565b60405180910390f35b3480156100f657600080fd5b506100ff61036e565b60405161010c919061171e565b60405180910390f35b34801561012157600080fd5b5061013c6004803603810190610137919061159e565b610374565b005b34801561014a57600080fd5b5061016560048036038101906101609190611771565b610529565b005b34801561017357600080fd5b5061017c610961565b6040516101899190611810565b60405180910390f35b34801561019e57600080fd5b506101b960048036038101906101b49190611890565b610985565b005b3480156101c757600080fd5b506101e260048036038101906101dd9190611771565b610d3f565b005b3480156101f057600080fd5b5061020b6004803603810190610206919061159e565b610e77565b60405161021a939291906118ff565b60405180910390f35b34801561022f57600080fd5b5061024a6004803603810190610245919061159e565b610eae565b005b34801561025857600080fd5b50610273600480360381019061026e9190611962565b611064565b604051610280919061171e565b60405180910390f35b6102a3600480360381019061029e91906119d3565b61107c565b005b6002602052806000526040600020600091509050806000015490806001016040518060400160405290816000820160009054906101000a900473ffffffffffffffffffffffffffffffffffffffff1673ffffffffffffffffffffffffffffffffffffffff1673ffffffffffffffffffffffffffffffffffffffff16815260200160018201600280602002604051908101604052809291908260028015610360576020028201915b81548152602001906001019080831161034c575b505050505081525050905082565b60015481565b8060028060036000848152602001908152602001600020600001541461039957600080fd5b823373ffffffffffffffffffffffffffffffffffffffff166002600083815260200190815260200160002060010160000160009054906101000a900473ffffffffffffffffffffffffffffffffffffffff1673ffffffffffffffffffffffffffffffffffffffff161461040b57600080fd5b60006003600086815260200190815260200160002060010154905060008054906101000a900473ffffffffffffffffffffffffffffffffffffffff1673ffffffffffffffffffffffffffffffffffffffff1663778ad707826000806040518463ffffffff1660e01b815260040161048493929190611a50565b600060405180830381600087803b15801561049e57600080fd5b505af11580156104b2573d6000803e3d6000fd5b5050505050506001816104c59190611ab6565b60036000848152602001908152602001600020600001819055507fe2af5431d45f111f112df909784bcdd0cf9a409671adeaf0964cc234a98297fe8260018361050e9190611ab6565b60405161051c929190611aea565b60405180910390a1505050565b8160058060036000848152602001908152602001600020600001541461054e57600080fd5b60006003600086815260200190815260200160002060010154905060008060009054906101000a900473ffffffffffffffffffffffffffffffffffffffff1673ffffffffffffffffffffffffffffffffffffffff1663abeeeac08360006040518363ffffffff1660e01b81526004016105c8929190611b13565b602060405180830381865afa1580156105e5573d6000803e3d6000fd5b505050506040513d601f19601f820116820180604052508101906106099190611b51565b905060008060009054906101000a900473ffffffffffffffffffffffffffffffffffffffff1673ffffffffffffffffffffffffffffffffffffffff1663abeeeac08460016040518363ffffffff1660e01b815260040161066a929190611bb9565b602060405180830381865afa158015610687573d6000803e3d6000fd5b505050506040513d601f19601f820116820180604052508101906106ab9190611b51565b905060006003600089815260200190815260200160002060020160009054906101000a900460ff16905060008790506000806106e984848789611299565b915091506000600260008d815260200190815260200160002060010160000160009054906101000a900473ffffffffffffffffffffffffffffffffffffffff169050600030905061073c82828686611368565b600084036107d7577f94dd8caf4803213035e054c595c14a4902fc45ff2d35957b439326822e4348198d838560016107749190611be2565b60405161078393929190611c33565b60405180910390a17f19c1452898d0e907e7fedd103c9f4f2133b48bdde93baba832cd4c0d2a2b3baa8d828560016107bb9190611be2565b6040516107ca93929190611c33565b60405180910390a16108e6565b60018403610872577f94dd8caf4803213035e054c595c14a4902fc45ff2d35957b439326822e4348198d8285600161080f9190611be2565b60405161081e93929190611c33565b60405180910390a17f19c1452898d0e907e7fedd103c9f4f2133b48bdde93baba832cd4c0d2a2b3baa8d838560016108569190611be2565b60405161086593929190611c33565b60405180910390a16108e5565b7fc41816115fa1bcec19c79512b6fbb5b88fe30c0036f40828b1a10609ec9434828d836040516108a3929190611c6a565b60405180910390a17fc41816115fa1bcec19c79512b6fbb5b88fe30c0036f40828b1a10609ec9434828d826040516108dc929190611c6a565b60405180910390a15b5b5050505050505050506001816108fc9190611ab6565b60036000848152602001908152602001600020600001819055507fe2af5431d45f111f112df909784bcdd0cf9a409671adeaf0964cc234a98297fe826001836109459190611ab6565b604051610953929190611aea565b60405180910390a150505050565b60008054906101000a900473ffffffffffffffffffffffffffffffffffffffff1681565b826001806003600084815260200190815260200160002060000154146109aa57600080fd5b843373ffffffffffffffffffffffffffffffffffffffff166002600083815260200190815260200160002060010160000160009054906101000a900473ffffffffffffffffffffffffffffffffffffffff1673ffffffffffffffffffffffffffffffffffffffff1614610a1c57600080fd5b6000600167ffffffffffffffff811115610a3957610a38611c93565b5b604051908082528060200260200182016040528015610a7257816020015b610a5f6114a9565b815260200190600190039081610a575790505b5090506002600088815260200190815260200160002060010160000160009054906101000a900473ffffffffffffffffffffffffffffffffffffffff1681600081518110610ac357610ac2611cc2565b5b60200260200101516000019073ffffffffffffffffffffffffffffffffffffffff16908173ffffffffffffffffffffffffffffffffffffffff168152505060026000888152602001908152602001600020600101600101600280602002604051908101604052809291908260028015610b51576020028201915b815481526020019060010190808311610b3d575b505050505081600081518110610b6a57610b69611cc2565b5b60200260200101516020018190525060008060009054906101000a900473ffffffffffffffffffffffffffffffffffffffff1673ffffffffffffffffffffffffffffffffffffffff166388e18cdc308460046040518463ffffffff1660e01b8152600401610bda93929190611e0a565b6020604051808303816000875af1158015610bf9573d6000803e3d6000fd5b505050506040513d601f19601f82011682018060405250810190610c1d9190611b51565b905060008054906101000a900473ffffffffffffffffffffffffffffffffffffffff1673ffffffffffffffffffffffffffffffffffffffff166387c4267c8289896040518463ffffffff1660e01b8152600401610c7c93929190611f97565b600060405180830381600087803b158015610c9657600080fd5b505af1158015610caa573d6000803e3d6000fd5b5050505080600360008a815260200190815260200160002060010181905550505050600181610cd99190611ab6565b60036000848152602001908152602001600020600001819055507fe2af5431d45f111f112df909784bcdd0cf9a409671adeaf0964cc234a98297fe82600183610d229190611ab6565b604051610d30929190611aea565b60405180910390a15050505050565b81600380600360008481526020019081526020016000206000015414610d6457600080fd5b833373ffffffffffffffffffffffffffffffffffffffff166002600083815260200190815260200160002060010160000160009054906101000a900473ffffffffffffffffffffffffffffffffffffffff1673ffffffffffffffffffffffffffffffffffffffff1614610dd657600080fd5b836003600087815260200190815260200160002060020160006101000a81548160ff02191690831515021790555050600181610e129190611ab6565b60036000848152602001908152602001600020600001819055507fe2af5431d45f111f112df909784bcdd0cf9a409671adeaf0964cc234a98297fe82600183610e5b9190611ab6565b604051610e69929190611aea565b60405180910390a150505050565b60036020528060005260406000206000915090508060000154908060010154908060020160009054906101000a900460ff16905083565b80600480600360008481526020019081526020016000206000015414610ed357600080fd5b823373ffffffffffffffffffffffffffffffffffffffff166002600083815260200190815260200160002060010160000160009054906101000a900473ffffffffffffffffffffffffffffffffffffffff1673ffffffffffffffffffffffffffffffffffffffff1614610f4557600080fd5b60006003600086815260200190815260200160002060010154905060008054906101000a900473ffffffffffffffffffffffffffffffffffffffff1673ffffffffffffffffffffffffffffffffffffffff1663778ad70782600160006040518463ffffffff1660e01b8152600401610fbf93929190611fc9565b600060405180830381600087803b158015610fd957600080fd5b505af1158015610fed573d6000803e3d6000fd5b5050505050506001816110009190611ab6565b60036000848152602001908152602001600020600001819055507fe2af5431d45f111f112df909784bcdd0cf9a409671adeaf0964cc234a98297fe826001836110499190611ab6565b604051611057929190611aea565b60405180910390a1505050565b60046020528060005260406000206000915090505481565b6001600261108a9190611be2565b341461109557600080fd5b60008054906101000a900473ffffffffffffffffffffffffffffffffffffffff1673ffffffffffffffffffffffffffffffffffffffff166353c37af783836040518363ffffffff1660e01b81526004016110f092919061202a565b6020604051808303816000875af115801561110f573d6000803e3d6000fd5b505050506040513d601f19601f82011682018060405250810190611133919061206a565b61113c57600080fd5b6001600081548092919061114f90612097565b91905055506000600154905060016002600083815260200190815260200160002060000181905550336002600083815260200190815260200160002060010160000160006101000a81548173ffffffffffffffffffffffffffffffffffffffff021916908373ffffffffffffffffffffffffffffffffffffffff16021790555081600260008381526020019081526020016000206001016001019060026111f79291906114df565b5080600460003373ffffffffffffffffffffffffffffffffffffffff1673ffffffffffffffffffffffffffffffffffffffff168152602001908152602001600020819055507f6ebd4593788358522a0cef8550b2a2f36e8d2a49a5f5608b739c489a8183051d8133600160405161127093929190611c33565b60405180910390a160016003600083815260200190815260200160002060000181905550505050565b6000808580156112a65750845b156112ca5760029050828411156112c057600091506112c5565b600191505b61135f565b8580156112d5575084155b156112f95760009150600383036112ef57600290506112f4565b600190505b61135e565b851580156113045750845b1561132857600191506003840361131e5760029050611323565b600190505b61135d565b6003840361133d57600191506002905061135c565b6003830361135257600091506002905061135b565b60029150600090505b5b5b5b5b94509492505050565b600080600084036113ae5760018360026113829190611ab6565b61138c9190611be2565b9150600183600261139d91906120df565b6113a79190611be2565b9050611413565b600184036113f15760018360026113c591906120df565b6113cf9190611be2565b915060018360026113e09190611ab6565b6113ea9190611be2565b9050611412565b600160026113ff9190611be2565b91506001600261140f9190611be2565b90505b5b6000821461145a578573ffffffffffffffffffffffffffffffffffffffff166108fc839081150290604051600060405180830381858888f1935050505061145957600080fd5b5b600081146114a1578473ffffffffffffffffffffffffffffffffffffffff166108fc829081150290604051600060405180830381858888f193505050506114a057600080fd5b5b505050505050565b6040518060400160405280600073ffffffffffffffffffffffffffffffffffffffff1681526020016114d961151f565b81525090565b826002810192821561150e579160200282015b8281111561150d5782358255916020019190600101906114f2565b5b50905061151b9190611541565b5090565b6040518060400160405280600290602082028036833780820191505090505090565b5b8082111561155a576000816000905550600101611542565b5090565b600080fd5b600080fd5b6000819050919050565b61157b81611568565b811461158657600080fd5b50565b60008135905061159881611572565b92915050565b6000602082840312156115b4576115b361155e565b5b60006115c284828501611589565b91505092915050565b6115d481611568565b82525050565b600073ffffffffffffffffffffffffffffffffffffffff82169050919050565b6000611605826115da565b9050919050565b611615816115fa565b82525050565b600060029050919050565b600081905092915050565b6000819050919050565b61164481611568565b82525050565b6000611656838361163b565b60208301905092915050565b6000602082019050919050565b6116788161161b565b6116828184611626565b925061168d82611631565b8060005b838110156116be5781516116a5878261164a565b96506116b083611662565b925050600181019050611691565b505050505050565b6060820160008201516116dc600085018261160c565b5060208201516116ef602085018261166f565b50505050565b600060808201905061170a60008301856115cb565b61171760208301846116c6565b9392505050565b600060208201905061173360008301846115cb565b92915050565b60008115159050919050565b61174e81611739565b811461175957600080fd5b50565b60008135905061176b81611745565b92915050565b600080604083850312156117885761178761155e565b5b600061179685828601611589565b92505060206117a78582860161175c565b9150509250929050565b6000819050919050565b60006117d66117d16117cc846115da565b6117b1565b6115da565b9050919050565b60006117e8826117bb565b9050919050565b60006117fa826117dd565b9050919050565b61180a816117ef565b82525050565b60006020820190506118256000830184611801565b92915050565b600080fd5b600080fd5b600080fd5b60008083601f8401126118505761184f61182b565b5b8235905067ffffffffffffffff81111561186d5761186c611830565b5b6020830191508360a082028301111561188957611888611835565b5b9250929050565b6000806000604084860312156118a9576118a861155e565b5b60006118b786828701611589565b935050602084013567ffffffffffffffff8111156118d8576118d7611563565b5b6118e48682870161183a565b92509250509250925092565b6118f981611739565b82525050565b600060608201905061191460008301866115cb565b61192160208301856115cb565b61192e60408301846118f0565b949350505050565b61193f816115fa565b811461194a57600080fd5b50565b60008135905061195c81611936565b92915050565b6000602082840312156119785761197761155e565b5b60006119868482850161194d565b91505092915050565b6000819050826020601802820111156119ab576119aa611835565b5b92915050565b6000819050826020600202820111156119cd576119cc611835565b5b92915050565b60008061034083850312156119eb576119ea61155e565b5b60006119f98582860161198f565b925050610300611a0b858286016119b1565b9150509250929050565b6000819050919050565b6000611a3a611a35611a3084611a15565b6117b1565b611568565b9050919050565b611a4a81611a1f565b82525050565b6000606082019050611a6560008301866115cb565b611a726020830185611a41565b611a7f6040830184611a41565b949350505050565b7f4e487b7100000000000000000000000000000000000000000000000000000000600052601160045260246000fd5b6000611ac182611568565b9150611acc83611568565b9250828201905080821115611ae457611ae3611a87565b5b92915050565b6000604082019050611aff60008301856115cb565b611b0c60208301846115cb565b9392505050565b6000604082019050611b2860008301856115cb565b611b356020830184611a41565b9392505050565b600081519050611b4b81611572565b92915050565b600060208284031215611b6757611b6661155e565b5b6000611b7584828501611b3c565b91505092915050565b6000819050919050565b6000611ba3611b9e611b9984611b7e565b6117b1565b611568565b9050919050565b611bb381611b88565b82525050565b6000604082019050611bce60008301856115cb565b611bdb6020830184611baa565b9392505050565b6000611bed82611568565b9150611bf883611568565b9250828202611c0681611568565b91508282048414831517611c1d57611c1c611a87565b5b5092915050565b611c2d816115fa565b82525050565b6000606082019050611c4860008301866115cb565b611c556020830185611c24565b611c6260408301846115cb565b949350505050565b6000604082019050611c7f60008301856115cb565b611c8c6020830184611c24565b9392505050565b7f4e487b7100000000000000000000000000000000000000000000000000000000600052604160045260246000fd5b7f4e487b7100000000000000000000000000000000000000000000000000000000600052603260045260246000fd5b600081519050919050565b600082825260208201905092915050565b6000819050602082019050919050565b606082016000820151611d33600085018261160c565b506020820151611d46602085018261166f565b50505050565b6000611d588383611d1d565b60608301905092915050565b6000602082019050919050565b6000611d7c82611cf1565b611d868185611cfc565b9350611d9183611d0d565b8060005b83811015611dc2578151611da98882611d4c565b9750611db483611d64565b925050600181019050611d95565b5085935050505092915050565b6000819050919050565b6000611df4611def611dea84611dcf565b6117b1565b611568565b9050919050565b611e0481611dd9565b82525050565b6000606082019050611e1f6000830186611c24565b8181036020830152611e318185611d71565b9050611e406040830184611dfb565b949350505050565b600082825260208201905092915050565b6000819050919050565b6000611e726020840184611589565b905092915050565b60a08201611e8b6000830183611e63565b611e98600085018261163b565b50611ea66020830183611e63565b611eb3602085018261163b565b50611ec16040830183611e63565b611ece604085018261163b565b50611edc6060830183611e63565b611ee9606085018261163b565b50611ef76080830183611e63565b611f04608085018261163b565b50505050565b6000611f168383611e7a565b60a08301905092915050565b600082905092915050565b600060a082019050919050565b6000611f468385611e48565b9350611f5182611e59565b8060005b85811015611f8a57611f678284611f22565b611f718882611f0a565b9750611f7c83611f2d565b925050600181019050611f55565b5085925050509392505050565b6000604082019050611fac60008301866115cb565b8181036020830152611fbf818486611f3a565b9050949350505050565b6000606082019050611fde60008301866115cb565b611feb6020830185611baa565b611ff86040830184611a41565b949350505050565b82818337505050565b6120166103008383612000565b5050565b61202660408383612000565b5050565b6000610340820190506120406000830185612009565b61204e61030083018461201a565b9392505050565b60008151905061206481611745565b92915050565b6000602082840312156120805761207f61155e565b5b600061208e84828501612055565b91505092915050565b60006120a282611568565b91507fffffffffffffffffffffffffffffffffffffffffffffffffffffffffffffffff82036120d4576120d3611a87565b5b600182019050919050565b60006120ea82611568565b91506120f583611568565b925082820390508181111561210d5761210c611a87565b5b9291505056fea26469706673582212209fbb1e0d1dffc322813a7d85fd7c709077025b9e95c23a9f5969f4f2849a014564736f6c63430008120033","opcodes":"PUSH1 0x80 PUSH1 0x40 MSTORE CALLVALUE DUP1 ISZERO PUSH3 0x11 JUMPI PUSH1 0x0 DUP1 REVERT JUMPDEST POP PUSH1 0x40 MLOAD PUSH3 0x227B CODESIZE SUB DUP1 PUSH3 0x227B DUP4 CODECOPY DUP2 DUP2 ADD PUSH1 0x40 MSTORE DUP2 ADD SWAP1 PUSH3 0x37 SWAP2 SWAP1 PUSH3 0xF0 JUMP JUMPDEST DUP1 PUSH1 0x0 DUP1 PUSH2 0x100 EXP DUP2 SLOAD DUP2 PUSH20 0xFFFFFFFFFFFFFFFFFFFFFFFFFFFFFFFFFFFFFFFF MUL NOT AND SWAP1 DUP4 PUSH20 0xFFFFFFFFFFFFFFFFFFFFFFFFFFFFFFFFFFFFFFFF AND MUL OR SWAP1 SSTORE POP PUSH1 0x0 PUSH1 0x1 DUP2 SWAP1 SSTORE POP POP PUSH3 0x122 JUMP JUMPDEST PUSH1 0x0 DUP1 REVERT JUMPDEST PUSH1 0x0 PUSH20 0xFFFFFFFFFFFFFFFFFFFFFFFFFFFFFFFFFFFFFFFF DUP3 AND SWAP1 POP SWAP2 SWAP1 POP JUMP JUMPDEST PUSH1 0x0 PUSH3 0xB8 DUP3 PUSH3 0x8B JUMP JUMPDEST SWAP1 POP SWAP2 SWAP1 POP JUMP JUMPDEST PUSH3 0xCA DUP2 PUSH3 0xAB JUMP JUMPDEST DUP2 EQ PUSH3 0xD6 JUMPI PUSH1 0x0 DUP1 REVERT JUMPDEST POP JUMP JUMPDEST PUSH1 0x0 DUP2 MLOAD SWAP1 POP PUSH3 0xEA DUP2 PUSH3 0xBF JUMP JUMPDEST SWAP3 SWAP2 POP POP JUMP JUMPDEST PUSH1 0x0 PUSH1 0x20 DUP3 DUP5 SUB SLT ISZERO PUSH3 0x109 JUMPI PUSH3 0x108 PUSH3 0x86 JUMP JUMPDEST JUMPDEST PUSH1 0x0 PUSH3 0x119 DUP5 DUP3 DUP6 ADD PUSH3 0xD9 JUMP JUMPDEST SWAP2 POP POP SWAP3 SWAP2 POP POP JUMP JUMPDEST PUSH2 0x2149 DUP1 PUSH3 0x132 PUSH1 0x0 CODECOPY PUSH1 0x0 RETURN INVALID PUSH1 0x80 PUSH1 0x40 MSTORE PUSH1 0x4 CALLDATASIZE LT PUSH2 0xA0 JUMPI PUSH1 0x0 CALLDATALOAD PUSH1 0xE0 SHR DUP1 PUSH4 0x533DD88A GT PUSH2 0x64 JUMPI DUP1 PUSH4 0x533DD88A EQ PUSH2 0x192 JUMPI DUP1 PUSH4 0x63688C6B EQ PUSH2 0x1BB JUMPI DUP1 PUSH4 0x80DB1B99 EQ PUSH2 0x1E4 JUMPI DUP1 PUSH4 0xAAE6ACB8 EQ PUSH2 0x223 JUMPI DUP1 PUSH4 0xB435CEB4 EQ PUSH2 0x24C JUMPI DUP1 PUSH4 0xD3D72553 EQ PUSH2 0x289 JUMPI PUSH2 0xA7 JUMP JUMPDEST DUP1 PUSH4 0x117A5B90 EQ PUSH2 0xAC JUMPI DUP1 PUSH4 0x26ACF95C EQ PUSH2 0xEA JUMPI DUP1 PUSH4 0x2D30D9AF EQ PUSH2 0x115 JUMPI DUP1 PUSH4 0x46AA39D6 EQ PUSH2 0x13E JUMPI DUP1 PUSH4 0x50AEA995 EQ PUSH2 0x167 JUMPI PUSH2 0xA7 JUMP JUMPDEST CALLDATASIZE PUSH2 0xA7 JUMPI STOP JUMPDEST PUSH1 0x0 DUP1 REVERT JUMPDEST CALLVALUE DUP1 ISZERO PUSH2 0xB8 JUMPI PUSH1 0x0 DUP1 REVERT JUMPDEST POP PUSH2 0xD3 PUSH1 0x4 DUP1 CALLDATASIZE SUB DUP2 ADD SWAP1 PUSH2 0xCE SWAP2 SWAP1 PUSH2 0x159E JUMP JUMPDEST PUSH2 0x2A5 JUMP JUMPDEST PUSH1 0x40 MLOAD PUSH2 0xE1 SWAP3 SWAP2 SWAP1 PUSH2 0x16F5 JUMP JUMPDEST PUSH1 0x40 MLOAD DUP1 SWAP2 SUB SWAP1 RETURN JUMPDEST CALLVALUE DUP1 ISZERO PUSH2 0xF6 JUMPI PUSH1 0x0 DUP1 REVERT JUMPDEST POP PUSH2 0xFF PUSH2 0x36E JUMP JUMPDEST PUSH1 0x40 MLOAD PUSH2 0x10C SWAP2 SWAP1 PUSH2 0x171E JUMP JUMPDEST PUSH1 0x40 MLOAD DUP1 SWAP2 SUB SWAP1 RETURN JUMPDEST CALLVALUE DUP1 ISZERO PUSH2 0x121 JUMPI PUSH1 0x0 DUP1 REVERT JUMPDEST POP PUSH2 0x13C PUSH1 0x4 DUP1 CALLDATASIZE SUB DUP2 ADD SWAP1 PUSH2 0x137 SWAP2 SWAP1 PUSH2 0x159E JUMP JUMPDEST PUSH2 0x374 JUMP JUMPDEST STOP JUMPDEST CALLVALUE DUP1 ISZERO PUSH2 0x14A JUMPI PUSH1 0x0 DUP1 REVERT JUMPDEST POP PUSH2 0x165 PUSH1 0x4 DUP1 CALLDATASIZE SUB DUP2 ADD SWAP1 PUSH2 0x160 SWAP2 SWAP1 PUSH2 0x1771 JUMP JUMPDEST PUSH2 0x529 JUMP JUMPDEST STOP JUMPDEST CALLVALUE DUP1 ISZERO PUSH2 0x173 JUMPI PUSH1 0x0 DUP1 REVERT JUMPDEST POP PUSH2 0x17C PUSH2 0x961 JUMP JUMPDEST PUSH1 0x40 MLOAD PUSH2 0x189 SWAP2 SWAP1 PUSH2 0x1810 JUMP JUMPDEST PUSH1 0x40 MLOAD DUP1 SWAP2 SUB SWAP1 RETURN JUMPDEST CALLVALUE DUP1 ISZERO PUSH2 0x19E JUMPI PUSH1 0x0 DUP1 REVERT JUMPDEST POP PUSH2 0x1B9 PUSH1 0x4 DUP1 CALLDATASIZE SUB DUP2 ADD SWAP1 PUSH2 0x1B4 SWAP2 SWAP1 PUSH2 0x1890 JUMP JUMPDEST PUSH2 0x985 JUMP JUMPDEST STOP JUMPDEST CALLVALUE DUP1 ISZERO PUSH2 0x1C7 JUMPI PUSH1 0x0 DUP1 REVERT JUMPDEST POP PUSH2 0x1E2 PUSH1 0x4 DUP1 CALLDATASIZE SUB DUP2 ADD SWAP1 PUSH2 0x1DD SWAP2 SWAP1 PUSH2 0x1771 JUMP JUMPDEST PUSH2 0xD3F JUMP JUMPDEST STOP JUMPDEST CALLVALUE DUP1 ISZERO PUSH2 0x1F0 JUMPI PUSH1 0x0 DUP1 REVERT JUMPDEST POP PUSH2 0x20B PUSH1 0x4 DUP1 CALLDATASIZE SUB DUP2 ADD SWAP1 PUSH2 0x206 SWAP2 SWAP1 PUSH2 0x159E JUMP JUMPDEST PUSH2 0xE77 JUMP JUMPDEST PUSH1 0x40 MLOAD PUSH2 0x21A SWAP4 SWAP3 SWAP2 SWAP1 PUSH2 0x18FF JUMP JUMPDEST PUSH1 0x40 MLOAD DUP1 SWAP2 SUB SWAP1 RETURN JUMPDEST CALLVALUE DUP1 ISZERO PUSH2 0x22F JUMPI PUSH1 0x0 DUP1 REVERT JUMPDEST POP PUSH2 0x24A PUSH1 0x4 DUP1 CALLDATASIZE SUB DUP2 ADD SWAP1 PUSH2 0x245 SWAP2 SWAP1 PUSH2 0x159E JUMP JUMPDEST PUSH2 0xEAE JUMP JUMPDEST STOP JUMPDEST CALLVALUE DUP1 ISZERO PUSH2 0x258 JUMPI PUSH1 0x0 DUP1 REVERT JUMPDEST POP PUSH2 0x273 PUSH1 0x4 DUP1 CALLDATASIZE SUB DUP2 ADD SWAP1 PUSH2 0x26E SWAP2 SWAP1 PUSH2 0x1962 JUMP JUMPDEST PUSH2 0x1064 JUMP JUMPDEST PUSH1 0x40 MLOAD PUSH2 0x280 SWAP2 SWAP1 PUSH2 0x171E JUMP JUMPDEST PUSH1 0x40 MLOAD DUP1 SWAP2 SUB SWAP1 RETURN JUMPDEST PUSH2 0x2A3 PUSH1 0x4 DUP1 CALLDATASIZE SUB DUP2 ADD SWAP1 PUSH2 0x29E SWAP2 SWAP1 PUSH2 0x19D3 JUMP JUMPDEST PUSH2 0x107C JUMP JUMPDEST STOP JUMPDEST PUSH1 0x2 PUSH1 0x20 MSTORE DUP1 PUSH1 0x0 MSTORE PUSH1 0x40 PUSH1 0x0 KECCAK256 PUSH1 0x0 SWAP2 POP SWAP1 POP DUP1 PUSH1 0x0 ADD SLOAD SWAP1 DUP1 PUSH1 0x1 ADD PUSH1 0x40 MLOAD DUP1 PUSH1 0x40 ADD PUSH1 0x40 MSTORE SWAP1 DUP2 PUSH1 0x0 DUP3 ADD PUSH1 0x0 SWAP1 SLOAD SWAP1 PUSH2 0x100 EXP SWAP1 DIV PUSH20 0xFFFFFFFFFFFFFFFFFFFFFFFFFFFFFFFFFFFFFFFF AND PUSH20 0xFFFFFFFFFFFFFFFFFFFFFFFFFFFFFFFFFFFFFFFF AND PUSH20 0xFFFFFFFFFFFFFFFFFFFFFFFFFFFFFFFFFFFFFFFF AND DUP2 MSTORE PUSH1 0x20 ADD PUSH1 0x1 DUP3 ADD PUSH1 0x2 DUP1 PUSH1 0x20 MUL PUSH1 0x40 MLOAD SWAP1 DUP2 ADD PUSH1 0x40 MSTORE DUP1 SWAP3 SWAP2 SWAP1 DUP3 PUSH1 0x2 DUP1 ISZERO PUSH2 0x360 JUMPI PUSH1 0x20 MUL DUP3 ADD SWAP2 JUMPDEST DUP2 SLOAD DUP2 MSTORE PUSH1 0x20 ADD SWAP1 PUSH1 0x1 ADD SWAP1 DUP1 DUP4 GT PUSH2 0x34C JUMPI JUMPDEST POP POP POP POP POP DUP2 MSTORE POP POP SWAP1 POP DUP3 JUMP JUMPDEST PUSH1 0x1 SLOAD DUP2 JUMP JUMPDEST DUP1 PUSH1 0x2 DUP1 PUSH1 0x3 PUSH1 0x0 DUP5 DUP2 MSTORE PUSH1 0x20 ADD SWAP1 DUP2 MSTORE PUSH1 0x20 ADD PUSH1 0x0 KECCAK256 PUSH1 0x0 ADD SLOAD EQ PUSH2 0x399 JUMPI PUSH1 0x0 DUP1 REVERT JUMPDEST DUP3 CALLER PUSH20 0xFFFFFFFFFFFFFFFFFFFFFFFFFFFFFFFFFFFFFFFF AND PUSH1 0x2 PUSH1 0x0 DUP4 DUP2 MSTORE PUSH1 0x20 ADD SWAP1 DUP2 MSTORE PUSH1 0x20 ADD PUSH1 0x0 KECCAK256 PUSH1 0x1 ADD PUSH1 0x0 ADD PUSH1 0x0 SWAP1 SLOAD SWAP1 PUSH2 0x100 EXP SWAP1 DIV PUSH20 0xFFFFFFFFFFFFFFFFFFFFFFFFFFFFFFFFFFFFFFFF AND PUSH20 0xFFFFFFFFFFFFFFFFFFFFFFFFFFFFFFFFFFFFFFFF AND EQ PUSH2 0x40B JUMPI PUSH1 0x0 DUP1 REVERT JUMPDEST PUSH1 0x0 PUSH1 0x3 PUSH1 0x0 DUP7 DUP2 MSTORE PUSH1 0x20 ADD SWAP1 DUP2 MSTORE PUSH1 0x20 ADD PUSH1 0x0 KECCAK256 PUSH1 0x1 ADD SLOAD SWAP1 POP PUSH1 0x0 DUP1 SLOAD SWAP1 PUSH2 0x100 EXP SWAP1 DIV PUSH20 0xFFFFFFFFFFFFFFFFFFFFFFFFFFFFFFFFFFFFFFFF AND PUSH20 0xFFFFFFFFFFFFFFFFFFFFFFFFFFFFFFFFFFFFFFFF AND PUSH4 0x778AD707 DUP3 PUSH1 0x0 DUP1 PUSH1 0x40 MLOAD DUP5 PUSH4 0xFFFFFFFF AND PUSH1 0xE0 SHL DUP2 MSTORE PUSH1 0x4 ADD PUSH2 0x484 SWAP4 SWAP3 SWAP2 SWAP1 PUSH2 0x1A50 JUMP JUMPDEST PUSH1 0x0 PUSH1 0x40 MLOAD DUP1 DUP4 SUB DUP2 PUSH1 0x0 DUP8 DUP1 EXTCODESIZE ISZERO DUP1 ISZERO PUSH2 0x49E JUMPI PUSH1 0x0 DUP1 REVERT JUMPDEST POP GAS CALL ISZERO DUP1 ISZERO PUSH2 0x4B2 JUMPI RETURNDATASIZE PUSH1 0x0 DUP1 RETURNDATACOPY RETURNDATASIZE PUSH1 0x0 REVERT JUMPDEST POP POP POP POP POP POP PUSH1 0x1 DUP2 PUSH2 0x4C5 SWAP2 SWAP1 PUSH2 0x1AB6 JUMP JUMPDEST PUSH1 0x3 PUSH1 0x0 DUP5 DUP2 MSTORE PUSH1 0x20 ADD SWAP1 DUP2 MSTORE PUSH1 0x20 ADD PUSH1 0x0 KECCAK256 PUSH1 0x0 ADD DUP2 SWAP1 SSTORE POP PUSH32 0xE2AF5431D45F111F112DF909784BCDD0CF9A409671ADEAF0964CC234A98297FE DUP3 PUSH1 0x1 DUP4 PUSH2 0x50E SWAP2 SWAP1 PUSH2 0x1AB6 JUMP JUMPDEST PUSH1 0x40 MLOAD PUSH2 0x51C SWAP3 SWAP2 SWAP1 PUSH2 0x1AEA JUMP JUMPDEST PUSH1 0x40 MLOAD DUP1 SWAP2 SUB SWAP1 LOG1 POP POP POP JUMP JUMPDEST DUP2 PUSH1 0x5 DUP1 PUSH1 0x3 PUSH1 0x0 DUP5 DUP2 MSTORE PUSH1 0x20 ADD SWAP1 DUP2 MSTORE PUSH1 0x20 ADD PUSH1 0x0 KECCAK256 PUSH1 0x0 ADD SLOAD EQ PUSH2 0x54E JUMPI PUSH1 0x0 DUP1 REVERT JUMPDEST PUSH1 0x0 PUSH1 0x3 PUSH1 0x0 DUP7 DUP2 MSTORE PUSH1 0x20 ADD SWAP1 DUP2 MSTORE PUSH1 0x20 ADD PUSH1 0x0 KECCAK256 PUSH1 0x1 ADD SLOAD SWAP1 POP PUSH1 0x0 DUP1 PUSH1 0x0 SWAP1 SLOAD SWAP1 PUSH2 0x100 EXP SWAP1 DIV PUSH20 0xFFFFFFFFFFFFFFFFFFFFFFFFFFFFFFFFFFFFFFFF AND PUSH20 0xFFFFFFFFFFFFFFFFFFFFFFFFFFFFFFFFFFFFFFFF AND PUSH4 0xABEEEAC0 DUP4 PUSH1 0x0 PUSH1 0x40 MLOAD DUP4 PUSH4 0xFFFFFFFF AND PUSH1 0xE0 SHL DUP2 MSTORE PUSH1 0x4 ADD PUSH2 0x5C8 SWAP3 SWAP2 SWAP1 PUSH2 0x1B13 JUMP JUMPDEST PUSH1 0x20 PUSH1 0x40 MLOAD DUP1 DUP4 SUB DUP2 DUP7 GAS STATICCALL ISZERO DUP1 ISZERO PUSH2 0x5E5 JUMPI RETURNDATASIZE PUSH1 0x0 DUP1 RETURNDATACOPY RETURNDATASIZE PUSH1 0x0 REVERT JUMPDEST POP POP POP POP PUSH1 0x40 MLOAD RETURNDATASIZE PUSH1 0x1F NOT PUSH1 0x1F DUP3 ADD AND DUP3 ADD DUP1 PUSH1 0x40 MSTORE POP DUP2 ADD SWAP1 PUSH2 0x609 SWAP2 SWAP1 PUSH2 0x1B51 JUMP JUMPDEST SWAP1 POP PUSH1 0x0 DUP1 PUSH1 0x0 SWAP1 SLOAD SWAP1 PUSH2 0x100 EXP SWAP1 DIV PUSH20 0xFFFFFFFFFFFFFFFFFFFFFFFFFFFFFFFFFFFFFFFF AND PUSH20 0xFFFFFFFFFFFFFFFFFFFFFFFFFFFFFFFFFFFFFFFF AND PUSH4 0xABEEEAC0 DUP5 PUSH1 0x1 PUSH1 0x40 MLOAD DUP4 PUSH4 0xFFFFFFFF AND PUSH1 0xE0 SHL DUP2 MSTORE PUSH1 0x4 ADD PUSH2 0x66A SWAP3 SWAP2 SWAP1 PUSH2 0x1BB9 JUMP JUMPDEST PUSH1 0x20 PUSH1 0x40 MLOAD DUP1 DUP4 SUB DUP2 DUP7 GAS STATICCALL ISZERO DUP1 ISZERO PUSH2 0x687 JUMPI RETURNDATASIZE PUSH1 0x0 DUP1 RETURNDATACOPY RETURNDATASIZE PUSH1 0x0 REVERT JUMPDEST POP POP POP POP PUSH1 0x40 MLOAD RETURNDATASIZE PUSH1 0x1F NOT PUSH1 0x1F DUP3 ADD AND DUP3 ADD DUP1 PUSH1 0x40 MSTORE POP DUP2 ADD SWAP1 PUSH2 0x6AB SWAP2 SWAP1 PUSH2 0x1B51 JUMP JUMPDEST SWAP1 POP PUSH1 0x0 PUSH1 0x3 PUSH1 0x0 DUP10 DUP2 MSTORE PUSH1 0x20 ADD SWAP1 DUP2 MSTORE PUSH1 0x20 ADD PUSH1 0x0 KECCAK256 PUSH1 0x2 ADD PUSH1 0x0 SWAP1 SLOAD SWAP1 PUSH2 0x100 EXP SWAP1 DIV PUSH1 0xFF AND SWAP1 POP PUSH1 0x0 DUP8 SWAP1 POP PUSH1 0x0 DUP1 PUSH2 0x6E9 DUP5 DUP5 DUP8 DUP10 PUSH2 0x1299 JUMP JUMPDEST SWAP2 POP SWAP2 POP PUSH1 0x0 PUSH1 0x2 PUSH1 0x0 DUP14 DUP2 MSTORE PUSH1 0x20 ADD SWAP1 DUP2 MSTORE PUSH1 0x20 ADD PUSH1 0x0 KECCAK256 PUSH1 0x1 ADD PUSH1 0x0 ADD PUSH1 0x0 SWAP1 SLOAD SWAP1 PUSH2 0x100 EXP SWAP1 DIV PUSH20 0xFFFFFFFFFFFFFFFFFFFFFFFFFFFFFFFFFFFFFFFF AND SWAP1 POP PUSH1 0x0 ADDRESS SWAP1 POP PUSH2 0x73C DUP3 DUP3 DUP7 DUP7 PUSH2 0x1368 JUMP JUMPDEST PUSH1 0x0 DUP5 SUB PUSH2 0x7D7 JUMPI PUSH32 0x94DD8CAF4803213035E054C595C14A4902FC45FF2D35957B439326822E434819 DUP14 DUP4 DUP6 PUSH1 0x1 PUSH2 0x774 SWAP2 SWAP1 PUSH2 0x1BE2 JUMP JUMPDEST PUSH1 0x40 MLOAD PUSH2 0x783 SWAP4 SWAP3 SWAP2 SWAP1 PUSH2 0x1C33 JUMP JUMPDEST PUSH1 0x40 MLOAD DUP1 SWAP2 SUB SWAP1 LOG1 PUSH32 0x19C1452898D0E907E7FEDD103C9F4F2133B48BDDE93BABA832CD4C0D2A2B3BAA DUP14 DUP3 DUP6 PUSH1 0x1 PUSH2 0x7BB SWAP2 SWAP1 PUSH2 0x1BE2 JUMP JUMPDEST PUSH1 0x40 MLOAD PUSH2 0x7CA SWAP4 SWAP3 SWAP2 SWAP1 PUSH2 0x1C33 JUMP JUMPDEST PUSH1 0x40 MLOAD DUP1 SWAP2 SUB SWAP1 LOG1 PUSH2 0x8E6 JUMP JUMPDEST PUSH1 0x1 DUP5 SUB PUSH2 0x872 JUMPI PUSH32 0x94DD8CAF4803213035E054C595C14A4902FC45FF2D35957B439326822E434819 DUP14 DUP3 DUP6 PUSH1 0x1 PUSH2 0x80F SWAP2 SWAP1 PUSH2 0x1BE2 JUMP JUMPDEST PUSH1 0x40 MLOAD PUSH2 0x81E SWAP4 SWAP3 SWAP2 SWAP1 PUSH2 0x1C33 JUMP JUMPDEST PUSH1 0x40 MLOAD DUP1 SWAP2 SUB SWAP1 LOG1 PUSH32 0x19C1452898D0E907E7FEDD103C9F4F2133B48BDDE93BABA832CD4C0D2A2B3BAA DUP14 DUP4 DUP6 PUSH1 0x1 PUSH2 0x856 SWAP2 SWAP1 PUSH2 0x1BE2 JUMP JUMPDEST PUSH1 0x40 MLOAD PUSH2 0x865 SWAP4 SWAP3 SWAP2 SWAP1 PUSH2 0x1C33 JUMP JUMPDEST PUSH1 0x40 MLOAD DUP1 SWAP2 SUB SWAP1 LOG1 PUSH2 0x8E5 JUMP JUMPDEST PUSH32 0xC41816115FA1BCEC19C79512B6FBB5B88FE30C0036F40828B1A10609EC943482 DUP14 DUP4 PUSH1 0x40 MLOAD PUSH2 0x8A3 SWAP3 SWAP2 SWAP1 PUSH2 0x1C6A JUMP JUMPDEST PUSH1 0x40 MLOAD DUP1 SWAP2 SUB SWAP1 LOG1 PUSH32 0xC41816115FA1BCEC19C79512B6FBB5B88FE30C0036F40828B1A10609EC943482 DUP14 DUP3 PUSH1 0x40 MLOAD PUSH2 0x8DC SWAP3 SWAP2 SWAP1 PUSH2 0x1C6A JUMP JUMPDEST PUSH1 0x40 MLOAD DUP1 SWAP2 SUB SWAP1 LOG1 JUMPDEST JUMPDEST POP POP POP POP POP POP POP POP POP PUSH1 0x1 DUP2 PUSH2 0x8FC SWAP2 SWAP1 PUSH2 0x1AB6 JUMP JUMPDEST PUSH1 0x3 PUSH1 0x0 DUP5 DUP2 MSTORE PUSH1 0x20 ADD SWAP1 DUP2 MSTORE PUSH1 0x20 ADD PUSH1 0x0 KECCAK256 PUSH1 0x0 ADD DUP2 SWAP1 SSTORE POP PUSH32 0xE2AF5431D45F111F112DF909784BCDD0CF9A409671ADEAF0964CC234A98297FE DUP3 PUSH1 0x1 DUP4 PUSH2 0x945 SWAP2 SWAP1 PUSH2 0x1AB6 JUMP JUMPDEST PUSH1 0x40 MLOAD PUSH2 0x953 SWAP3 SWAP2 SWAP1 PUSH2 0x1AEA JUMP JUMPDEST PUSH1 0x40 MLOAD DUP1 SWAP2 SUB SWAP1 LOG1 POP POP POP POP JUMP JUMPDEST PUSH1 0x0 DUP1 SLOAD SWAP1 PUSH2 0x100 EXP SWAP1 DIV PUSH20 0xFFFFFFFFFFFFFFFFFFFFFFFFFFFFFFFFFFFFFFFF AND DUP2 JUMP JUMPDEST DUP3 PUSH1 0x1 DUP1 PUSH1 0x3 PUSH1 0x0 DUP5 DUP2 MSTORE PUSH1 0x20 ADD SWAP1 DUP2 MSTORE PUSH1 0x20 ADD PUSH1 0x0 KECCAK256 PUSH1 0x0 ADD SLOAD EQ PUSH2 0x9AA JUMPI PUSH1 0x0 DUP1 REVERT JUMPDEST DUP5 CALLER PUSH20 0xFFFFFFFFFFFFFFFFFFFFFFFFFFFFFFFFFFFFFFFF AND PUSH1 0x2 PUSH1 0x0 DUP4 DUP2 MSTORE PUSH1 0x20 ADD SWAP1 DUP2 MSTORE PUSH1 0x20 ADD PUSH1 0x0 KECCAK256 PUSH1 0x1 ADD PUSH1 0x0 ADD PUSH1 0x0 SWAP1 SLOAD SWAP1 PUSH2 0x100 EXP SWAP1 DIV PUSH20 0xFFFFFFFFFFFFFFFFFFFFFFFFFFFFFFFFFFFFFFFF AND PUSH20 0xFFFFFFFFFFFFFFFFFFFFFFFFFFFFFFFFFFFFFFFF AND EQ PUSH2 0xA1C JUMPI PUSH1 0x0 DUP1 REVERT JUMPDEST PUSH1 0x0 PUSH1 0x1 PUSH8 0xFFFFFFFFFFFFFFFF DUP2 GT ISZERO PUSH2 0xA39 JUMPI PUSH2 0xA38 PUSH2 0x1C93 JUMP JUMPDEST JUMPDEST PUSH1 0x40 MLOAD SWAP1 DUP1 DUP3 MSTORE DUP1 PUSH1 0x20 MUL PUSH1 0x20 ADD DUP3 ADD PUSH1 0x40 MSTORE DUP1 ISZERO PUSH2 0xA72 JUMPI DUP2 PUSH1 0x20 ADD JUMPDEST PUSH2 0xA5F PUSH2 0x14A9 JUMP JUMPDEST DUP2 MSTORE PUSH1 0x20 ADD SWAP1 PUSH1 0x1 SWAP1 SUB SWAP1 DUP2 PUSH2 0xA57 JUMPI SWAP1 POP JUMPDEST POP SWAP1 POP PUSH1 0x2 PUSH1 0x0 DUP9 DUP2 MSTORE PUSH1 0x20 ADD SWAP1 DUP2 MSTORE PUSH1 0x20 ADD PUSH1 0x0 KECCAK256 PUSH1 0x1 ADD PUSH1 0x0 ADD PUSH1 0x0 SWAP1 SLOAD SWAP1 PUSH2 0x100 EXP SWAP1 DIV PUSH20 0xFFFFFFFFFFFFFFFFFFFFFFFFFFFFFFFFFFFFFFFF AND DUP2 PUSH1 0x0 DUP2 MLOAD DUP2 LT PUSH2 0xAC3 JUMPI PUSH2 0xAC2 PUSH2 0x1CC2 JUMP JUMPDEST JUMPDEST PUSH1 0x20 MUL PUSH1 0x20 ADD ADD MLOAD PUSH1 0x0 ADD SWAP1 PUSH20 0xFFFFFFFFFFFFFFFFFFFFFFFFFFFFFFFFFFFFFFFF AND SWAP1 DUP2 PUSH20 0xFFFFFFFFFFFFFFFFFFFFFFFFFFFFFFFFFFFFFFFF AND DUP2 MSTORE POP POP PUSH1 0x2 PUSH1 0x0 DUP9 DUP2 MSTORE PUSH1 0x20 ADD SWAP1 DUP2 MSTORE PUSH1 0x20 ADD PUSH1 0x0 KECCAK256 PUSH1 0x1 ADD PUSH1 0x1 ADD PUSH1 0x2 DUP1 PUSH1 0x20 MUL PUSH1 0x40 MLOAD SWAP1 DUP2 ADD PUSH1 0x40 MSTORE DUP1 SWAP3 SWAP2 SWAP1 DUP3 PUSH1 0x2 DUP1 ISZERO PUSH2 0xB51 JUMPI PUSH1 0x20 MUL DUP3 ADD SWAP2 JUMPDEST DUP2 SLOAD DUP2 MSTORE PUSH1 0x20 ADD SWAP1 PUSH1 0x1 ADD SWAP1 DUP1 DUP4 GT PUSH2 0xB3D JUMPI JUMPDEST POP POP POP POP POP DUP2 PUSH1 0x0 DUP2 MLOAD DUP2 LT PUSH2 0xB6A JUMPI PUSH2 0xB69 PUSH2 0x1CC2 JUMP JUMPDEST JUMPDEST PUSH1 0x20 MUL PUSH1 0x20 ADD ADD MLOAD PUSH1 0x20 ADD DUP2 SWAP1 MSTORE POP PUSH1 0x0 DUP1 PUSH1 0x0 SWAP1 SLOAD SWAP1 PUSH2 0x100 EXP SWAP1 DIV PUSH20 0xFFFFFFFFFFFFFFFFFFFFFFFFFFFFFFFFFFFFFFFF AND PUSH20 0xFFFFFFFFFFFFFFFFFFFFFFFFFFFFFFFFFFFFFFFF AND PUSH4 0x88E18CDC ADDRESS DUP5 PUSH1 0x4 PUSH1 0x40 MLOAD DUP5 PUSH4 0xFFFFFFFF AND PUSH1 0xE0 SHL DUP2 MSTORE PUSH1 0x4 ADD PUSH2 0xBDA SWAP4 SWAP3 SWAP2 SWAP1 PUSH2 0x1E0A JUMP JUMPDEST PUSH1 0x20 PUSH1 0x40 MLOAD DUP1 DUP4 SUB DUP2 PUSH1 0x0 DUP8 GAS CALL ISZERO DUP1 ISZERO PUSH2 0xBF9 JUMPI RETURNDATASIZE PUSH1 0x0 DUP1 RETURNDATACOPY RETURNDATASIZE PUSH1 0x0 REVERT JUMPDEST POP POP POP POP PUSH1 0x40 MLOAD RETURNDATASIZE PUSH1 0x1F NOT PUSH1 0x1F DUP3 ADD AND DUP3 ADD DUP1 PUSH1 0x40 MSTORE POP DUP2 ADD SWAP1 PUSH2 0xC1D SWAP2 SWAP1 PUSH2 0x1B51 JUMP JUMPDEST SWAP1 POP PUSH1 0x0 DUP1 SLOAD SWAP1 PUSH2 0x100 EXP SWAP1 DIV PUSH20 0xFFFFFFFFFFFFFFFFFFFFFFFFFFFFFFFFFFFFFFFF AND PUSH20 0xFFFFFFFFFFFFFFFFFFFFFFFFFFFFFFFFFFFFFFFF AND PUSH4 0x87C4267C DUP3 DUP10 DUP10 PUSH1 0x40 MLOAD DUP5 PUSH4 0xFFFFFFFF AND PUSH1 0xE0 SHL DUP2 MSTORE PUSH1 0x4 ADD PUSH2 0xC7C SWAP4 SWAP3 SWAP2 SWAP1 PUSH2 0x1F97 JUMP JUMPDEST PUSH1 0x0 PUSH1 0x40 MLOAD DUP1 DUP4 SUB DUP2 PUSH1 0x0 DUP8 DUP1 EXTCODESIZE ISZERO DUP1 ISZERO PUSH2 0xC96 JUMPI PUSH1 0x0 DUP1 REVERT JUMPDEST POP GAS CALL ISZERO DUP1 ISZERO PUSH2 0xCAA JUMPI RETURNDATASIZE PUSH1 0x0 DUP1 RETURNDATACOPY RETURNDATASIZE PUSH1 0x0 REVERT JUMPDEST POP POP POP POP DUP1 PUSH1 0x3 PUSH1 0x0 DUP11 DUP2 MSTORE PUSH1 0x20 ADD SWAP1 DUP2 MSTORE PUSH1 0x20 ADD PUSH1 0x0 KECCAK256 PUSH1 0x1 ADD DUP2 SWAP1 SSTORE POP POP POP POP PUSH1 0x1 DUP2 PUSH2 0xCD9 SWAP2 SWAP1 PUSH2 0x1AB6 JUMP JUMPDEST PUSH1 0x3 PUSH1 0x0 DUP5 DUP2 MSTORE PUSH1 0x20 ADD SWAP1 DUP2 MSTORE PUSH1 0x20 ADD PUSH1 0x0 KECCAK256 PUSH1 0x0 ADD DUP2 SWAP1 SSTORE POP PUSH32 0xE2AF5431D45F111F112DF909784BCDD0CF9A409671ADEAF0964CC234A98297FE DUP3 PUSH1 0x1 DUP4 PUSH2 0xD22 SWAP2 SWAP1 PUSH2 0x1AB6 JUMP JUMPDEST PUSH1 0x40 MLOAD PUSH2 0xD30 SWAP3 SWAP2 SWAP1 PUSH2 0x1AEA JUMP JUMPDEST PUSH1 0x40 MLOAD DUP1 SWAP2 SUB SWAP1 LOG1 POP POP POP POP POP JUMP JUMPDEST DUP2 PUSH1 0x3 DUP1 PUSH1 0x3 PUSH1 0x0 DUP5 DUP2 MSTORE PUSH1 0x20 ADD SWAP1 DUP2 MSTORE PUSH1 0x20 ADD PUSH1 0x0 KECCAK256 PUSH1 0x0 ADD SLOAD EQ PUSH2 0xD64 JUMPI PUSH1 0x0 DUP1 REVERT JUMPDEST DUP4 CALLER PUSH20 0xFFFFFFFFFFFFFFFFFFFFFFFFFFFFFFFFFFFFFFFF AND PUSH1 0x2 PUSH1 0x0 DUP4 DUP2 MSTORE PUSH1 0x20 ADD SWAP1 DUP2 MSTORE PUSH1 0x20 ADD PUSH1 0x0 KECCAK256 PUSH1 0x1 ADD PUSH1 0x0 ADD PUSH1 0x0 SWAP1 SLOAD SWAP1 PUSH2 0x100 EXP SWAP1 DIV PUSH20 0xFFFFFFFFFFFFFFFFFFFFFFFFFFFFFFFFFFFFFFFF AND PUSH20 0xFFFFFFFFFFFFFFFFFFFFFFFFFFFFFFFFFFFFFFFF AND EQ PUSH2 0xDD6 JUMPI PUSH1 0x0 DUP1 REVERT JUMPDEST DUP4 PUSH1 0x3 PUSH1 0x0 DUP8 DUP2 MSTORE PUSH1 0x20 ADD SWAP1 DUP2 MSTORE PUSH1 0x20 ADD PUSH1 0x0 KECCAK256 PUSH1 0x2 ADD PUSH1 0x0 PUSH2 0x100 EXP DUP2 SLOAD DUP2 PUSH1 0xFF MUL NOT AND SWAP1 DUP4 ISZERO ISZERO MUL OR SWAP1 SSTORE POP POP PUSH1 0x1 DUP2 PUSH2 0xE12 SWAP2 SWAP1 PUSH2 0x1AB6 JUMP JUMPDEST PUSH1 0x3 PUSH1 0x0 DUP5 DUP2 MSTORE PUSH1 0x20 ADD SWAP1 DUP2 MSTORE PUSH1 0x20 ADD PUSH1 0x0 KECCAK256 PUSH1 0x0 ADD DUP2 SWAP1 SSTORE POP PUSH32 0xE2AF5431D45F111F112DF909784BCDD0CF9A409671ADEAF0964CC234A98297FE DUP3 PUSH1 0x1 DUP4 PUSH2 0xE5B SWAP2 SWAP1 PUSH2 0x1AB6 JUMP JUMPDEST PUSH1 0x40 MLOAD PUSH2 0xE69 SWAP3 SWAP2 SWAP1 PUSH2 0x1AEA JUMP JUMPDEST PUSH1 0x40 MLOAD DUP1 SWAP2 SUB SWAP1 LOG1 POP POP POP POP JUMP JUMPDEST PUSH1 0x3 PUSH1 0x20 MSTORE DUP1 PUSH1 0x0 MSTORE PUSH1 0x40 PUSH1 0x0 KECCAK256 PUSH1 0x0 SWAP2 POP SWAP1 POP DUP1 PUSH1 0x0 ADD SLOAD SWAP1 DUP1 PUSH1 0x1 ADD SLOAD SWAP1 DUP1 PUSH1 0x2 ADD PUSH1 0x0 SWAP1 SLOAD SWAP1 PUSH2 0x100 EXP SWAP1 DIV PUSH1 0xFF AND SWAP1 POP DUP4 JUMP JUMPDEST DUP1 PUSH1 0x4 DUP1 PUSH1 0x3 PUSH1 0x0 DUP5 DUP2 MSTORE PUSH1 0x20 ADD SWAP1 DUP2 MSTORE PUSH1 0x20 ADD PUSH1 0x0 KECCAK256 PUSH1 0x0 ADD SLOAD EQ PUSH2 0xED3 JUMPI PUSH1 0x0 DUP1 REVERT JUMPDEST DUP3 CALLER PUSH20 0xFFFFFFFFFFFFFFFFFFFFFFFFFFFFFFFFFFFFFFFF AND PUSH1 0x2 PUSH1 0x0 DUP4 DUP2 MSTORE PUSH1 0x20 ADD SWAP1 DUP2 MSTORE PUSH1 0x20 ADD PUSH1 0x0 KECCAK256 PUSH1 0x1 ADD PUSH1 0x0 ADD PUSH1 0x0 SWAP1 SLOAD SWAP1 PUSH2 0x100 EXP SWAP1 DIV PUSH20 0xFFFFFFFFFFFFFFFFFFFFFFFFFFFFFFFFFFFFFFFF AND PUSH20 0xFFFFFFFFFFFFFFFFFFFFFFFFFFFFFFFFFFFFFFFF AND EQ PUSH2 0xF45 JUMPI PUSH1 0x0 DUP1 REVERT JUMPDEST PUSH1 0x0 PUSH1 0x3 PUSH1 0x0 DUP7 DUP2 MSTORE PUSH1 0x20 ADD SWAP1 DUP2 MSTORE PUSH1 0x20 ADD PUSH1 0x0 KECCAK256 PUSH1 0x1 ADD SLOAD SWAP1 POP PUSH1 0x0 DUP1 SLOAD SWAP1 PUSH2 0x100 EXP SWAP1 DIV PUSH20 0xFFFFFFFFFFFFFFFFFFFFFFFFFFFFFFFFFFFFFFFF AND PUSH20 0xFFFFFFFFFFFFFFFFFFFFFFFFFFFFFFFFFFFFFFFF AND PUSH4 0x778AD707 DUP3 PUSH1 0x1 PUSH1 0x0 PUSH1 0x40 MLOAD DUP5 PUSH4 0xFFFFFFFF AND PUSH1 0xE0 SHL DUP2 MSTORE PUSH1 0x4 ADD PUSH2 0xFBF SWAP4 SWAP3 SWAP2 SWAP1 PUSH2 0x1FC9 JUMP JUMPDEST PUSH1 0x0 PUSH1 0x40 MLOAD DUP1 DUP4 SUB DUP2 PUSH1 0x0 DUP8 DUP1 EXTCODESIZE ISZERO DUP1 ISZERO PUSH2 0xFD9 JUMPI PUSH1 0x0 DUP1 REVERT JUMPDEST POP GAS CALL ISZERO DUP1 ISZERO PUSH2 0xFED JUMPI RETURNDATASIZE PUSH1 0x0 DUP1 RETURNDATACOPY RETURNDATASIZE PUSH1 0x0 REVERT JUMPDEST POP POP POP POP POP POP PUSH1 0x1 DUP2 PUSH2 0x1000 SWAP2 SWAP1 PUSH2 0x1AB6 JUMP JUMPDEST PUSH1 0x3 PUSH1 0x0 DUP5 DUP2 MSTORE PUSH1 0x20 ADD SWAP1 DUP2 MSTORE PUSH1 0x20 ADD PUSH1 0x0 KECCAK256 PUSH1 0x0 ADD DUP2 SWAP1 SSTORE POP PUSH32 0xE2AF5431D45F111F112DF909784BCDD0CF9A409671ADEAF0964CC234A98297FE DUP3 PUSH1 0x1 DUP4 PUSH2 0x1049 SWAP2 SWAP1 PUSH2 0x1AB6 JUMP JUMPDEST PUSH1 0x40 MLOAD PUSH2 0x1057 SWAP3 SWAP2 SWAP1 PUSH2 0x1AEA JUMP JUMPDEST PUSH1 0x40 MLOAD DUP1 SWAP2 SUB SWAP1 LOG1 POP POP POP JUMP JUMPDEST PUSH1 0x4 PUSH1 0x20 MSTORE DUP1 PUSH1 0x0 MSTORE PUSH1 0x40 PUSH1 0x0 KECCAK256 PUSH1 0x0 SWAP2 POP SWAP1 POP SLOAD DUP2 JUMP JUMPDEST PUSH1 0x1 PUSH1 0x2 PUSH2 0x108A SWAP2 SWAP1 PUSH2 0x1BE2 JUMP JUMPDEST CALLVALUE EQ PUSH2 0x1095 JUMPI PUSH1 0x0 DUP1 REVERT JUMPDEST PUSH1 0x0 DUP1 SLOAD SWAP1 PUSH2 0x100 EXP SWAP1 DIV PUSH20 0xFFFFFFFFFFFFFFFFFFFFFFFFFFFFFFFFFFFFFFFF AND PUSH20 0xFFFFFFFFFFFFFFFFFFFFFFFFFFFFFFFFFFFFFFFF AND PUSH4 0x53C37AF7 DUP4 DUP4 PUSH1 0x40 MLOAD DUP4 PUSH4 0xFFFFFFFF AND PUSH1 0xE0 SHL DUP2 MSTORE PUSH1 0x4 ADD PUSH2 0x10F0 SWAP3 SWAP2 SWAP1 PUSH2 0x202A JUMP JUMPDEST PUSH1 0x20 PUSH1 0x40 MLOAD DUP1 DUP4 SUB DUP2 PUSH1 0x0 DUP8 GAS CALL ISZERO DUP1 ISZERO PUSH2 0x110F JUMPI RETURNDATASIZE PUSH1 0x0 DUP1 RETURNDATACOPY RETURNDATASIZE PUSH1 0x0 REVERT JUMPDEST POP POP POP POP PUSH1 0x40 MLOAD RETURNDATASIZE PUSH1 0x1F NOT PUSH1 0x1F DUP3 ADD AND DUP3 ADD DUP1 PUSH1 0x40 MSTORE POP DUP2 ADD SWAP1 PUSH2 0x1133 SWAP2 SWAP1 PUSH2 0x206A JUMP JUMPDEST PUSH2 0x113C JUMPI PUSH1 0x0 DUP1 REVERT JUMPDEST PUSH1 0x1 PUSH1 0x0 DUP2 SLOAD DUP1 SWAP3 SWAP2 SWAP1 PUSH2 0x114F SWAP1 PUSH2 0x2097 JUMP JUMPDEST SWAP2 SWAP1 POP SSTORE POP PUSH1 0x0 PUSH1 0x1 SLOAD SWAP1 POP PUSH1 0x1 PUSH1 0x2 PUSH1 0x0 DUP4 DUP2 MSTORE PUSH1 0x20 ADD SWAP1 DUP2 MSTORE PUSH1 0x20 ADD PUSH1 0x0 KECCAK256 PUSH1 0x0 ADD DUP2 SWAP1 SSTORE POP CALLER PUSH1 0x2 PUSH1 0x0 DUP4 DUP2 MSTORE PUSH1 0x20 ADD SWAP1 DUP2 MSTORE PUSH1 0x20 ADD PUSH1 0x0 KECCAK256 PUSH1 0x1 ADD PUSH1 0x0 ADD PUSH1 0x0 PUSH2 0x100 EXP DUP2 SLOAD DUP2 PUSH20 0xFFFFFFFFFFFFFFFFFFFFFFFFFFFFFFFFFFFFFFFF MUL NOT AND SWAP1 DUP4 PUSH20 0xFFFFFFFFFFFFFFFFFFFFFFFFFFFFFFFFFFFFFFFF AND MUL OR SWAP1 SSTORE POP DUP2 PUSH1 0x2 PUSH1 0x0 DUP4 DUP2 MSTORE PUSH1 0x20 ADD SWAP1 DUP2 MSTORE PUSH1 0x20 ADD PUSH1 0x0 KECCAK256 PUSH1 0x1 ADD PUSH1 0x1 ADD SWAP1 PUSH1 0x2 PUSH2 0x11F7 SWAP3 SWAP2 SWAP1 PUSH2 0x14DF JUMP JUMPDEST POP DUP1 PUSH1 0x4 PUSH1 0x0 CALLER PUSH20 0xFFFFFFFFFFFFFFFFFFFFFFFFFFFFFFFFFFFFFFFF AND PUSH20 0xFFFFFFFFFFFFFFFFFFFFFFFFFFFFFFFFFFFFFFFF AND DUP2 MSTORE PUSH1 0x20 ADD SWAP1 DUP2 MSTORE PUSH1 0x20 ADD PUSH1 0x0 KECCAK256 DUP2 SWAP1 SSTORE POP PUSH32 0x6EBD4593788358522A0CEF8550B2A2F36E8D2A49A5F5608B739C489A8183051D DUP2 CALLER PUSH1 0x1 PUSH1 0x40 MLOAD PUSH2 0x1270 SWAP4 SWAP3 SWAP2 SWAP1 PUSH2 0x1C33 JUMP JUMPDEST PUSH1 0x40 MLOAD DUP1 SWAP2 SUB SWAP1 LOG1 PUSH1 0x1 PUSH1 0x3 PUSH1 0x0 DUP4 DUP2 MSTORE PUSH1 0x20 ADD SWAP1 DUP2 MSTORE PUSH1 0x20 ADD PUSH1 0x0 KECCAK256 PUSH1 0x0 ADD DUP2 SWAP1 SSTORE POP POP POP POP JUMP JUMPDEST PUSH1 0x0 DUP1 DUP6 DUP1 ISZERO PUSH2 0x12A6 JUMPI POP DUP5 JUMPDEST ISZERO PUSH2 0x12CA JUMPI PUSH1 0x2 SWAP1 POP DUP3 DUP5 GT ISZERO PUSH2 0x12C0 JUMPI PUSH1 0x0 SWAP2 POP PUSH2 0x12C5 JUMP JUMPDEST PUSH1 0x1 SWAP2 POP JUMPDEST PUSH2 0x135F JUMP JUMPDEST DUP6 DUP1 ISZERO PUSH2 0x12D5 JUMPI POP DUP5 ISZERO JUMPDEST ISZERO PUSH2 0x12F9 JUMPI PUSH1 0x0 SWAP2 POP PUSH1 0x3 DUP4 SUB PUSH2 0x12EF JUMPI PUSH1 0x2 SWAP1 POP PUSH2 0x12F4 JUMP JUMPDEST PUSH1 0x1 SWAP1 POP JUMPDEST PUSH2 0x135E JUMP JUMPDEST DUP6 ISZERO DUP1 ISZERO PUSH2 0x1304 JUMPI POP DUP5 JUMPDEST ISZERO PUSH2 0x1328 JUMPI PUSH1 0x1 SWAP2 POP PUSH1 0x3 DUP5 SUB PUSH2 0x131E JUMPI PUSH1 0x2 SWAP1 POP PUSH2 0x1323 JUMP JUMPDEST PUSH1 0x1 SWAP1 POP JUMPDEST PUSH2 0x135D JUMP JUMPDEST PUSH1 0x3 DUP5 SUB PUSH2 0x133D JUMPI PUSH1 0x1 SWAP2 POP PUSH1 0x2 SWAP1 POP PUSH2 0x135C JUMP JUMPDEST PUSH1 0x3 DUP4 SUB PUSH2 0x1352 JUMPI PUSH1 0x0 SWAP2 POP PUSH1 0x2 SWAP1 POP PUSH2 0x135B JUMP JUMPDEST PUSH1 0x2 SWAP2 POP PUSH1 0x0 SWAP1 POP JUMPDEST JUMPDEST JUMPDEST JUMPDEST JUMPDEST SWAP5 POP SWAP5 SWAP3 POP POP POP JUMP JUMPDEST PUSH1 0x0 DUP1 PUSH1 0x0 DUP5 SUB PUSH2 0x13AE JUMPI PUSH1 0x1 DUP4 PUSH1 0x2 PUSH2 0x1382 SWAP2 SWAP1 PUSH2 0x1AB6 JUMP JUMPDEST PUSH2 0x138C SWAP2 SWAP1 PUSH2 0x1BE2 JUMP JUMPDEST SWAP2 POP PUSH1 0x1 DUP4 PUSH1 0x2 PUSH2 0x139D SWAP2 SWAP1 PUSH2 0x20DF JUMP JUMPDEST PUSH2 0x13A7 SWAP2 SWAP1 PUSH2 0x1BE2 JUMP JUMPDEST SWAP1 POP PUSH2 0x1413 JUMP JUMPDEST PUSH1 0x1 DUP5 SUB PUSH2 0x13F1 JUMPI PUSH1 0x1 DUP4 PUSH1 0x2 PUSH2 0x13C5 SWAP2 SWAP1 PUSH2 0x20DF JUMP JUMPDEST PUSH2 0x13CF SWAP2 SWAP1 PUSH2 0x1BE2 JUMP JUMPDEST SWAP2 POP PUSH1 0x1 DUP4 PUSH1 0x2 PUSH2 0x13E0 SWAP2 SWAP1 PUSH2 0x1AB6 JUMP JUMPDEST PUSH2 0x13EA SWAP2 SWAP1 PUSH2 0x1BE2 JUMP JUMPDEST SWAP1 POP PUSH2 0x1412 JUMP JUMPDEST PUSH1 0x1 PUSH1 0x2 PUSH2 0x13FF SWAP2 SWAP1 PUSH2 0x1BE2 JUMP JUMPDEST SWAP2 POP PUSH1 0x1 PUSH1 0x2 PUSH2 0x140F SWAP2 SWAP1 PUSH2 0x1BE2 JUMP JUMPDEST SWAP1 POP JUMPDEST JUMPDEST PUSH1 0x0 DUP3 EQ PUSH2 0x145A JUMPI DUP6 PUSH20 0xFFFFFFFFFFFFFFFFFFFFFFFFFFFFFFFFFFFFFFFF AND PUSH2 0x8FC DUP4 SWAP1 DUP2 ISZERO MUL SWAP1 PUSH1 0x40 MLOAD PUSH1 0x0 PUSH1 0x40 MLOAD DUP1 DUP4 SUB DUP2 DUP6 DUP9 DUP9 CALL SWAP4 POP POP POP POP PUSH2 0x1459 JUMPI PUSH1 0x0 DUP1 REVERT JUMPDEST JUMPDEST PUSH1 0x0 DUP2 EQ PUSH2 0x14A1 JUMPI DUP5 PUSH20 0xFFFFFFFFFFFFFFFFFFFFFFFFFFFFFFFFFFFFFFFF AND PUSH2 0x8FC DUP3 SWAP1 DUP2 ISZERO MUL SWAP1 PUSH1 0x40 MLOAD PUSH1 0x0 PUSH1 0x40 MLOAD DUP1 DUP4 SUB DUP2 DUP6 DUP9 DUP9 CALL SWAP4 POP POP POP POP PUSH2 0x14A0 JUMPI PUSH1 0x0 DUP1 REVERT JUMPDEST JUMPDEST POP POP POP POP POP POP JUMP JUMPDEST PUSH1 0x40 MLOAD DUP1 PUSH1 0x40 ADD PUSH1 0x40 MSTORE DUP1 PUSH1 0x0 PUSH20 0xFFFFFFFFFFFFFFFFFFFFFFFFFFFFFFFFFFFFFFFF AND DUP2 MSTORE PUSH1 0x20 ADD PUSH2 0x14D9 PUSH2 0x151F JUMP JUMPDEST DUP2 MSTORE POP SWAP1 JUMP JUMPDEST DUP3 PUSH1 0x2 DUP2 ADD SWAP3 DUP3 ISZERO PUSH2 0x150E JUMPI SWAP2 PUSH1 0x20 MUL DUP3 ADD JUMPDEST DUP3 DUP2 GT ISZERO PUSH2 0x150D JUMPI DUP3 CALLDATALOAD DUP3 SSTORE SWAP2 PUSH1 0x20 ADD SWAP2 SWAP1 PUSH1 0x1 ADD SWAP1 PUSH2 0x14F2 JUMP JUMPDEST JUMPDEST POP SWAP1 POP PUSH2 0x151B SWAP2 SWAP1 PUSH2 0x1541 JUMP JUMPDEST POP SWAP1 JUMP JUMPDEST PUSH1 0x40 MLOAD DUP1 PUSH1 0x40 ADD PUSH1 0x40 MSTORE DUP1 PUSH1 0x2 SWAP1 PUSH1 0x20 DUP3 MUL DUP1 CALLDATASIZE DUP4 CALLDATACOPY DUP1 DUP3 ADD SWAP2 POP POP SWAP1 POP POP SWAP1 JUMP JUMPDEST JUMPDEST DUP1 DUP3 GT ISZERO PUSH2 0x155A JUMPI PUSH1 0x0 DUP2 PUSH1 0x0 SWAP1 SSTORE POP PUSH1 0x1 ADD PUSH2 0x1542 JUMP JUMPDEST POP SWAP1 JUMP JUMPDEST PUSH1 0x0 DUP1 REVERT JUMPDEST PUSH1 0x0 DUP1 REVERT JUMPDEST PUSH1 0x0 DUP2 SWAP1 POP SWAP2 SWAP1 POP JUMP JUMPDEST PUSH2 0x157B DUP2 PUSH2 0x1568 JUMP JUMPDEST DUP2 EQ PUSH2 0x1586 JUMPI PUSH1 0x0 DUP1 REVERT JUMPDEST POP JUMP JUMPDEST PUSH1 0x0 DUP2 CALLDATALOAD SWAP1 POP PUSH2 0x1598 DUP2 PUSH2 0x1572 JUMP JUMPDEST SWAP3 SWAP2 POP POP JUMP JUMPDEST PUSH1 0x0 PUSH1 0x20 DUP3 DUP5 SUB SLT ISZERO PUSH2 0x15B4 JUMPI PUSH2 0x15B3 PUSH2 0x155E JUMP JUMPDEST JUMPDEST PUSH1 0x0 PUSH2 0x15C2 DUP5 DUP3 DUP6 ADD PUSH2 0x1589 JUMP JUMPDEST SWAP2 POP POP SWAP3 SWAP2 POP POP JUMP JUMPDEST PUSH2 0x15D4 DUP2 PUSH2 0x1568 JUMP JUMPDEST DUP3 MSTORE POP POP JUMP JUMPDEST PUSH1 0x0 PUSH20 0xFFFFFFFFFFFFFFFFFFFFFFFFFFFFFFFFFFFFFFFF DUP3 AND SWAP1 POP SWAP2 SWAP1 POP JUMP JUMPDEST PUSH1 0x0 PUSH2 0x1605 DUP3 PUSH2 0x15DA JUMP JUMPDEST SWAP1 POP SWAP2 SWAP1 POP JUMP JUMPDEST PUSH2 0x1615 DUP2 PUSH2 0x15FA JUMP JUMPDEST DUP3 MSTORE POP POP JUMP JUMPDEST PUSH1 0x0 PUSH1 0x2 SWAP1 POP SWAP2 SWAP1 POP JUMP JUMPDEST PUSH1 0x0 DUP2 SWAP1 POP SWAP3 SWAP2 POP POP JUMP JUMPDEST PUSH1 0x0 DUP2 SWAP1 POP SWAP2 SWAP1 POP JUMP JUMPDEST PUSH2 0x1644 DUP2 PUSH2 0x1568 JUMP JUMPDEST DUP3 MSTORE POP POP JUMP JUMPDEST PUSH1 0x0 PUSH2 0x1656 DUP4 DUP4 PUSH2 0x163B JUMP JUMPDEST PUSH1 0x20 DUP4 ADD SWAP1 POP SWAP3 SWAP2 POP POP JUMP JUMPDEST PUSH1 0x0 PUSH1 0x20 DUP3 ADD SWAP1 POP SWAP2 SWAP1 POP JUMP JUMPDEST PUSH2 0x1678 DUP2 PUSH2 0x161B JUMP JUMPDEST PUSH2 0x1682 DUP2 DUP5 PUSH2 0x1626 JUMP JUMPDEST SWAP3 POP PUSH2 0x168D DUP3 PUSH2 0x1631 JUMP JUMPDEST DUP1 PUSH1 0x0 JUMPDEST DUP4 DUP2 LT ISZERO PUSH2 0x16BE JUMPI DUP2 MLOAD PUSH2 0x16A5 DUP8 DUP3 PUSH2 0x164A JUMP JUMPDEST SWAP7 POP PUSH2 0x16B0 DUP4 PUSH2 0x1662 JUMP JUMPDEST SWAP3 POP POP PUSH1 0x1 DUP2 ADD SWAP1 POP PUSH2 0x1691 JUMP JUMPDEST POP POP POP POP POP POP JUMP JUMPDEST PUSH1 0x60 DUP3 ADD PUSH1 0x0 DUP3 ADD MLOAD PUSH2 0x16DC PUSH1 0x0 DUP6 ADD DUP3 PUSH2 0x160C JUMP JUMPDEST POP PUSH1 0x20 DUP3 ADD MLOAD PUSH2 0x16EF PUSH1 0x20 DUP6 ADD DUP3 PUSH2 0x166F JUMP JUMPDEST POP POP POP POP JUMP JUMPDEST PUSH1 0x0 PUSH1 0x80 DUP3 ADD SWAP1 POP PUSH2 0x170A PUSH1 0x0 DUP4 ADD DUP6 PUSH2 0x15CB JUMP JUMPDEST PUSH2 0x1717 PUSH1 0x20 DUP4 ADD DUP5 PUSH2 0x16C6 JUMP JUMPDEST SWAP4 SWAP3 POP POP POP JUMP JUMPDEST PUSH1 0x0 PUSH1 0x20 DUP3 ADD SWAP1 POP PUSH2 0x1733 PUSH1 0x0 DUP4 ADD DUP5 PUSH2 0x15CB JUMP JUMPDEST SWAP3 SWAP2 POP POP JUMP JUMPDEST PUSH1 0x0 DUP2 ISZERO ISZERO SWAP1 POP SWAP2 SWAP1 POP JUMP JUMPDEST PUSH2 0x174E DUP2 PUSH2 0x1739 JUMP JUMPDEST DUP2 EQ PUSH2 0x1759 JUMPI PUSH1 0x0 DUP1 REVERT JUMPDEST POP JUMP JUMPDEST PUSH1 0x0 DUP2 CALLDATALOAD SWAP1 POP PUSH2 0x176B DUP2 PUSH2 0x1745 JUMP JUMPDEST SWAP3 SWAP2 POP POP JUMP JUMPDEST PUSH1 0x0 DUP1 PUSH1 0x40 DUP4 DUP6 SUB SLT ISZERO PUSH2 0x1788 JUMPI PUSH2 0x1787 PUSH2 0x155E JUMP JUMPDEST JUMPDEST PUSH1 0x0 PUSH2 0x1796 DUP6 DUP3 DUP7 ADD PUSH2 0x1589 JUMP JUMPDEST SWAP3 POP POP PUSH1 0x20 PUSH2 0x17A7 DUP6 DUP3 DUP7 ADD PUSH2 0x175C JUMP JUMPDEST SWAP2 POP POP SWAP3 POP SWAP3 SWAP1 POP JUMP JUMPDEST PUSH1 0x0 DUP2 SWAP1 POP SWAP2 SWAP1 POP JUMP JUMPDEST PUSH1 0x0 PUSH2 0x17D6 PUSH2 0x17D1 PUSH2 0x17CC DUP5 PUSH2 0x15DA JUMP JUMPDEST PUSH2 0x17B1 JUMP JUMPDEST PUSH2 0x15DA JUMP JUMPDEST SWAP1 POP SWAP2 SWAP1 POP JUMP JUMPDEST PUSH1 0x0 PUSH2 0x17E8 DUP3 PUSH2 0x17BB JUMP JUMPDEST SWAP1 POP SWAP2 SWAP1 POP JUMP JUMPDEST PUSH1 0x0 PUSH2 0x17FA DUP3 PUSH2 0x17DD JUMP JUMPDEST SWAP1 POP SWAP2 SWAP1 POP JUMP JUMPDEST PUSH2 0x180A DUP2 PUSH2 0x17EF JUMP JUMPDEST DUP3 MSTORE POP POP JUMP JUMPDEST PUSH1 0x0 PUSH1 0x20 DUP3 ADD SWAP1 POP PUSH2 0x1825 PUSH1 0x0 DUP4 ADD DUP5 PUSH2 0x1801 JUMP JUMPDEST SWAP3 SWAP2 POP POP JUMP JUMPDEST PUSH1 0x0 DUP1 REVERT JUMPDEST PUSH1 0x0 DUP1 REVERT JUMPDEST PUSH1 0x0 DUP1 REVERT JUMPDEST PUSH1 0x0 DUP1 DUP4 PUSH1 0x1F DUP5 ADD SLT PUSH2 0x1850 JUMPI PUSH2 0x184F PUSH2 0x182B JUMP JUMPDEST JUMPDEST DUP3 CALLDATALOAD SWAP1 POP PUSH8 0xFFFFFFFFFFFFFFFF DUP2 GT ISZERO PUSH2 0x186D JUMPI PUSH2 0x186C PUSH2 0x1830 JUMP JUMPDEST JUMPDEST PUSH1 0x20 DUP4 ADD SWAP2 POP DUP4 PUSH1 0xA0 DUP3 MUL DUP4 ADD GT ISZERO PUSH2 0x1889 JUMPI PUSH2 0x1888 PUSH2 0x1835 JUMP JUMPDEST JUMPDEST SWAP3 POP SWAP3 SWAP1 POP JUMP JUMPDEST PUSH1 0x0 DUP1 PUSH1 0x0 PUSH1 0x40 DUP5 DUP7 SUB SLT ISZERO PUSH2 0x18A9 JUMPI PUSH2 0x18A8 PUSH2 0x155E JUMP JUMPDEST JUMPDEST PUSH1 0x0 PUSH2 0x18B7 DUP7 DUP3 DUP8 ADD PUSH2 0x1589 JUMP JUMPDEST SWAP4 POP POP PUSH1 0x20 DUP5 ADD CALLDATALOAD PUSH8 0xFFFFFFFFFFFFFFFF DUP2 GT ISZERO PUSH2 0x18D8 JUMPI PUSH2 0x18D7 PUSH2 0x1563 JUMP JUMPDEST JUMPDEST PUSH2 0x18E4 DUP7 DUP3 DUP8 ADD PUSH2 0x183A JUMP JUMPDEST SWAP3 POP SWAP3 POP POP SWAP3 POP SWAP3 POP SWAP3 JUMP JUMPDEST PUSH2 0x18F9 DUP2 PUSH2 0x1739 JUMP JUMPDEST DUP3 MSTORE POP POP JUMP JUMPDEST PUSH1 0x0 PUSH1 0x60 DUP3 ADD SWAP1 POP PUSH2 0x1914 PUSH1 0x0 DUP4 ADD DUP7 PUSH2 0x15CB JUMP JUMPDEST PUSH2 0x1921 PUSH1 0x20 DUP4 ADD DUP6 PUSH2 0x15CB JUMP JUMPDEST PUSH2 0x192E PUSH1 0x40 DUP4 ADD DUP5 PUSH2 0x18F0 JUMP JUMPDEST SWAP5 SWAP4 POP POP POP POP JUMP JUMPDEST PUSH2 0x193F DUP2 PUSH2 0x15FA JUMP JUMPDEST DUP2 EQ PUSH2 0x194A JUMPI PUSH1 0x0 DUP1 REVERT JUMPDEST POP JUMP JUMPDEST PUSH1 0x0 DUP2 CALLDATALOAD SWAP1 POP PUSH2 0x195C DUP2 PUSH2 0x1936 JUMP JUMPDEST SWAP3 SWAP2 POP POP JUMP JUMPDEST PUSH1 0x0 PUSH1 0x20 DUP3 DUP5 SUB SLT ISZERO PUSH2 0x1978 JUMPI PUSH2 0x1977 PUSH2 0x155E JUMP JUMPDEST JUMPDEST PUSH1 0x0 PUSH2 0x1986 DUP5 DUP3 DUP6 ADD PUSH2 0x194D JUMP JUMPDEST SWAP2 POP POP SWAP3 SWAP2 POP POP JUMP JUMPDEST PUSH1 0x0 DUP2 SWAP1 POP DUP3 PUSH1 0x20 PUSH1 0x18 MUL DUP3 ADD GT ISZERO PUSH2 0x19AB JUMPI PUSH2 0x19AA PUSH2 0x1835 JUMP JUMPDEST JUMPDEST SWAP3 SWAP2 POP POP JUMP JUMPDEST PUSH1 0x0 DUP2 SWAP1 POP DUP3 PUSH1 0x20 PUSH1 0x2 MUL DUP3 ADD GT ISZERO PUSH2 0x19CD JUMPI PUSH2 0x19CC PUSH2 0x1835 JUMP JUMPDEST JUMPDEST SWAP3 SWAP2 POP POP JUMP JUMPDEST PUSH1 0x0 DUP1 PUSH2 0x340 DUP4 DUP6 SUB SLT ISZERO PUSH2 0x19EB JUMPI PUSH2 0x19EA PUSH2 0x155E JUMP JUMPDEST JUMPDEST PUSH1 0x0 PUSH2 0x19F9 DUP6 DUP3 DUP7 ADD PUSH2 0x198F JUMP JUMPDEST SWAP3 POP POP PUSH2 0x300 PUSH2 0x1A0B DUP6 DUP3 DUP7 ADD PUSH2 0x19B1 JUMP JUMPDEST SWAP2 POP POP SWAP3 POP SWAP3 SWAP1 POP JUMP JUMPDEST PUSH1 0x0 DUP2 SWAP1 POP SWAP2 SWAP1 POP JUMP JUMPDEST PUSH1 0x0 PUSH2 0x1A3A PUSH2 0x1A35 PUSH2 0x1A30 DUP5 PUSH2 0x1A15 JUMP JUMPDEST PUSH2 0x17B1 JUMP JUMPDEST PUSH2 0x1568 JUMP JUMPDEST SWAP1 POP SWAP2 SWAP1 POP JUMP JUMPDEST PUSH2 0x1A4A DUP2 PUSH2 0x1A1F JUMP JUMPDEST DUP3 MSTORE POP POP JUMP JUMPDEST PUSH1 0x0 PUSH1 0x60 DUP3 ADD SWAP1 POP PUSH2 0x1A65 PUSH1 0x0 DUP4 ADD DUP7 PUSH2 0x15CB JUMP JUMPDEST PUSH2 0x1A72 PUSH1 0x20 DUP4 ADD DUP6 PUSH2 0x1A41 JUMP JUMPDEST PUSH2 0x1A7F PUSH1 0x40 DUP4 ADD DUP5 PUSH2 0x1A41 JUMP JUMPDEST SWAP5 SWAP4 POP POP POP POP JUMP JUMPDEST PUSH32 0x4E487B7100000000000000000000000000000000000000000000000000000000 PUSH1 0x0 MSTORE PUSH1 0x11 PUSH1 0x4 MSTORE PUSH1 0x24 PUSH1 0x0 REVERT JUMPDEST PUSH1 0x0 PUSH2 0x1AC1 DUP3 PUSH2 0x1568 JUMP JUMPDEST SWAP2 POP PUSH2 0x1ACC DUP4 PUSH2 0x1568 JUMP JUMPDEST SWAP3 POP DUP3 DUP3 ADD SWAP1 POP DUP1 DUP3 GT ISZERO PUSH2 0x1AE4 JUMPI PUSH2 0x1AE3 PUSH2 0x1A87 JUMP JUMPDEST JUMPDEST SWAP3 SWAP2 POP POP JUMP JUMPDEST PUSH1 0x0 PUSH1 0x40 DUP3 ADD SWAP1 POP PUSH2 0x1AFF PUSH1 0x0 DUP4 ADD DUP6 PUSH2 0x15CB JUMP JUMPDEST PUSH2 0x1B0C PUSH1 0x20 DUP4 ADD DUP5 PUSH2 0x15CB JUMP JUMPDEST SWAP4 SWAP3 POP POP POP JUMP JUMPDEST PUSH1 0x0 PUSH1 0x40 DUP3 ADD SWAP1 POP PUSH2 0x1B28 PUSH1 0x0 DUP4 ADD DUP6 PUSH2 0x15CB JUMP JUMPDEST PUSH2 0x1B35 PUSH1 0x20 DUP4 ADD DUP5 PUSH2 0x1A41 JUMP JUMPDEST SWAP4 SWAP3 POP POP POP JUMP JUMPDEST PUSH1 0x0 DUP2 MLOAD SWAP1 POP PUSH2 0x1B4B DUP2 PUSH2 0x1572 JUMP JUMPDEST SWAP3 SWAP2 POP POP JUMP JUMPDEST PUSH1 0x0 PUSH1 0x20 DUP3 DUP5 SUB SLT ISZERO PUSH2 0x1B67 JUMPI PUSH2 0x1B66 PUSH2 0x155E JUMP JUMPDEST JUMPDEST PUSH1 0x0 PUSH2 0x1B75 DUP5 DUP3 DUP6 ADD PUSH2 0x1B3C JUMP JUMPDEST SWAP2 POP POP SWAP3 SWAP2 POP POP JUMP JUMPDEST PUSH1 0x0 DUP2 SWAP1 POP SWAP2 SWAP1 POP JUMP JUMPDEST PUSH1 0x0 PUSH2 0x1BA3 PUSH2 0x1B9E PUSH2 0x1B99 DUP5 PUSH2 0x1B7E JUMP JUMPDEST PUSH2 0x17B1 JUMP JUMPDEST PUSH2 0x1568 JUMP JUMPDEST SWAP1 POP SWAP2 SWAP1 POP JUMP JUMPDEST PUSH2 0x1BB3 DUP2 PUSH2 0x1B88 JUMP JUMPDEST DUP3 MSTORE POP POP JUMP JUMPDEST PUSH1 0x0 PUSH1 0x40 DUP3 ADD SWAP1 POP PUSH2 0x1BCE PUSH1 0x0 DUP4 ADD DUP6 PUSH2 0x15CB JUMP JUMPDEST PUSH2 0x1BDB PUSH1 0x20 DUP4 ADD DUP5 PUSH2 0x1BAA JUMP JUMPDEST SWAP4 SWAP3 POP POP POP JUMP JUMPDEST PUSH1 0x0 PUSH2 0x1BED DUP3 PUSH2 0x1568 JUMP JUMPDEST SWAP2 POP PUSH2 0x1BF8 DUP4 PUSH2 0x1568 JUMP JUMPDEST SWAP3 POP DUP3 DUP3 MUL PUSH2 0x1C06 DUP2 PUSH2 0x1568 JUMP JUMPDEST SWAP2 POP DUP3 DUP3 DIV DUP5 EQ DUP4 ISZERO OR PUSH2 0x1C1D JUMPI PUSH2 0x1C1C PUSH2 0x1A87 JUMP JUMPDEST JUMPDEST POP SWAP3 SWAP2 POP POP JUMP JUMPDEST PUSH2 0x1C2D DUP2 PUSH2 0x15FA JUMP JUMPDEST DUP3 MSTORE POP POP JUMP JUMPDEST PUSH1 0x0 PUSH1 0x60 DUP3 ADD SWAP1 POP PUSH2 0x1C48 PUSH1 0x0 DUP4 ADD DUP7 PUSH2 0x15CB JUMP JUMPDEST PUSH2 0x1C55 PUSH1 0x20 DUP4 ADD DUP6 PUSH2 0x1C24 JUMP JUMPDEST PUSH2 0x1C62 PUSH1 0x40 DUP4 ADD DUP5 PUSH2 0x15CB JUMP JUMPDEST SWAP5 SWAP4 POP POP POP POP JUMP JUMPDEST PUSH1 0x0 PUSH1 0x40 DUP3 ADD SWAP1 POP PUSH2 0x1C7F PUSH1 0x0 DUP4 ADD DUP6 PUSH2 0x15CB JUMP JUMPDEST PUSH2 0x1C8C PUSH1 0x20 DUP4 ADD DUP5 PUSH2 0x1C24 JUMP JUMPDEST SWAP4 SWAP3 POP POP POP JUMP JUMPDEST PUSH32 0x4E487B7100000000000000000000000000000000000000000000000000000000 PUSH1 0x0 MSTORE PUSH1 0x41 PUSH1 0x4 MSTORE PUSH1 0x24 PUSH1 0x0 REVERT JUMPDEST PUSH32 0x4E487B7100000000000000000000000000000000000000000000000000000000 PUSH1 0x0 MSTORE PUSH1 0x32 PUSH1 0x4 MSTORE PUSH1 0x24 PUSH1 0x0 REVERT JUMPDEST PUSH1 0x0 DUP2 MLOAD SWAP1 POP SWAP2 SWAP1 POP JUMP JUMPDEST PUSH1 0x0 DUP3 DUP3 MSTORE PUSH1 0x20 DUP3 ADD SWAP1 POP SWAP3 SWAP2 POP POP JUMP JUMPDEST PUSH1 0x0 DUP2 SWAP1 POP PUSH1 0x20 DUP3 ADD SWAP1 POP SWAP2 SWAP1 POP JUMP JUMPDEST PUSH1 0x60 DUP3 ADD PUSH1 0x0 DUP3 ADD MLOAD PUSH2 0x1D33 PUSH1 0x0 DUP6 ADD DUP3 PUSH2 0x160C JUMP JUMPDEST POP PUSH1 0x20 DUP3 ADD MLOAD PUSH2 0x1D46 PUSH1 0x20 DUP6 ADD DUP3 PUSH2 0x166F JUMP JUMPDEST POP POP POP POP JUMP JUMPDEST PUSH1 0x0 PUSH2 0x1D58 DUP4 DUP4 PUSH2 0x1D1D JUMP JUMPDEST PUSH1 0x60 DUP4 ADD SWAP1 POP SWAP3 SWAP2 POP POP JUMP JUMPDEST PUSH1 0x0 PUSH1 0x20 DUP3 ADD SWAP1 POP SWAP2 SWAP1 POP JUMP JUMPDEST PUSH1 0x0 PUSH2 0x1D7C DUP3 PUSH2 0x1CF1 JUMP JUMPDEST PUSH2 0x1D86 DUP2 DUP6 PUSH2 0x1CFC JUMP JUMPDEST SWAP4 POP PUSH2 0x1D91 DUP4 PUSH2 0x1D0D JUMP JUMPDEST DUP1 PUSH1 0x0 JUMPDEST DUP4 DUP2 LT ISZERO PUSH2 0x1DC2 JUMPI DUP2 MLOAD PUSH2 0x1DA9 DUP9 DUP3 PUSH2 0x1D4C JUMP JUMPDEST SWAP8 POP PUSH2 0x1DB4 DUP4 PUSH2 0x1D64 JUMP JUMPDEST SWAP3 POP POP PUSH1 0x1 DUP2 ADD SWAP1 POP PUSH2 0x1D95 JUMP JUMPDEST POP DUP6 SWAP4 POP POP POP POP SWAP3 SWAP2 POP POP JUMP JUMPDEST PUSH1 0x0 DUP2 SWAP1 POP SWAP2 SWAP1 POP JUMP JUMPDEST PUSH1 0x0 PUSH2 0x1DF4 PUSH2 0x1DEF PUSH2 0x1DEA DUP5 PUSH2 0x1DCF JUMP JUMPDEST PUSH2 0x17B1 JUMP JUMPDEST PUSH2 0x1568 JUMP JUMPDEST SWAP1 POP SWAP2 SWAP1 POP JUMP JUMPDEST PUSH2 0x1E04 DUP2 PUSH2 0x1DD9 JUMP JUMPDEST DUP3 MSTORE POP POP JUMP JUMPDEST PUSH1 0x0 PUSH1 0x60 DUP3 ADD SWAP1 POP PUSH2 0x1E1F PUSH1 0x0 DUP4 ADD DUP7 PUSH2 0x1C24 JUMP JUMPDEST DUP2 DUP2 SUB PUSH1 0x20 DUP4 ADD MSTORE PUSH2 0x1E31 DUP2 DUP6 PUSH2 0x1D71 JUMP JUMPDEST SWAP1 POP PUSH2 0x1E40 PUSH1 0x40 DUP4 ADD DUP5 PUSH2 0x1DFB JUMP JUMPDEST SWAP5 SWAP4 POP POP POP POP JUMP JUMPDEST PUSH1 0x0 DUP3 DUP3 MSTORE PUSH1 0x20 DUP3 ADD SWAP1 POP SWAP3 SWAP2 POP POP JUMP JUMPDEST PUSH1 0x0 DUP2 SWAP1 POP SWAP2 SWAP1 POP JUMP JUMPDEST PUSH1 0x0 PUSH2 0x1E72 PUSH1 0x20 DUP5 ADD DUP5 PUSH2 0x1589 JUMP JUMPDEST SWAP1 POP SWAP3 SWAP2 POP POP JUMP JUMPDEST PUSH1 0xA0 DUP3 ADD PUSH2 0x1E8B PUSH1 0x0 DUP4 ADD DUP4 PUSH2 0x1E63 JUMP JUMPDEST PUSH2 0x1E98 PUSH1 0x0 DUP6 ADD DUP3 PUSH2 0x163B JUMP JUMPDEST POP PUSH2 0x1EA6 PUSH1 0x20 DUP4 ADD DUP4 PUSH2 0x1E63 JUMP JUMPDEST PUSH2 0x1EB3 PUSH1 0x20 DUP6 ADD DUP3 PUSH2 0x163B JUMP JUMPDEST POP PUSH2 0x1EC1 PUSH1 0x40 DUP4 ADD DUP4 PUSH2 0x1E63 JUMP JUMPDEST PUSH2 0x1ECE PUSH1 0x40 DUP6 ADD DUP3 PUSH2 0x163B JUMP JUMPDEST POP PUSH2 0x1EDC PUSH1 0x60 DUP4 ADD DUP4 PUSH2 0x1E63 JUMP JUMPDEST PUSH2 0x1EE9 PUSH1 0x60 DUP6 ADD DUP3 PUSH2 0x163B JUMP JUMPDEST POP PUSH2 0x1EF7 PUSH1 0x80 DUP4 ADD DUP4 PUSH2 0x1E63 JUMP JUMPDEST PUSH2 0x1F04 PUSH1 0x80 DUP6 ADD DUP3 PUSH2 0x163B JUMP JUMPDEST POP POP POP POP JUMP JUMPDEST PUSH1 0x0 PUSH2 0x1F16 DUP4 DUP4 PUSH2 0x1E7A JUMP JUMPDEST PUSH1 0xA0 DUP4 ADD SWAP1 POP SWAP3 SWAP2 POP POP JUMP JUMPDEST PUSH1 0x0 DUP3 SWAP1 POP SWAP3 SWAP2 POP POP JUMP JUMPDEST PUSH1 0x0 PUSH1 0xA0 DUP3 ADD SWAP1 POP SWAP2 SWAP1 POP JUMP JUMPDEST PUSH1 0x0 PUSH2 0x1F46 DUP4 DUP6 PUSH2 0x1E48 JUMP JUMPDEST SWAP4 POP PUSH2 0x1F51 DUP3 PUSH2 0x1E59 JUMP JUMPDEST DUP1 PUSH1 0x0 JUMPDEST DUP6 DUP2 LT ISZERO PUSH2 0x1F8A JUMPI PUSH2 0x1F67 DUP3 DUP5 PUSH2 0x1F22 JUMP JUMPDEST PUSH2 0x1F71 DUP9 DUP3 PUSH2 0x1F0A JUMP JUMPDEST SWAP8 POP PUSH2 0x1F7C DUP4 PUSH2 0x1F2D JUMP JUMPDEST SWAP3 POP POP PUSH1 0x1 DUP2 ADD SWAP1 POP PUSH2 0x1F55 JUMP JUMPDEST POP DUP6 SWAP3 POP POP POP SWAP4 SWAP3 POP POP POP JUMP JUMPDEST PUSH1 0x0 PUSH1 0x40 DUP3 ADD SWAP1 POP PUSH2 0x1FAC PUSH1 0x0 DUP4 ADD DUP7 PUSH2 0x15CB JUMP JUMPDEST DUP2 DUP2 SUB PUSH1 0x20 DUP4 ADD MSTORE PUSH2 0x1FBF DUP2 DUP5 DUP7 PUSH2 0x1F3A JUMP JUMPDEST SWAP1 POP SWAP5 SWAP4 POP POP POP POP JUMP JUMPDEST PUSH1 0x0 PUSH1 0x60 DUP3 ADD SWAP1 POP PUSH2 0x1FDE PUSH1 0x0 DUP4 ADD DUP7 PUSH2 0x15CB JUMP JUMPDEST PUSH2 0x1FEB PUSH1 0x20 DUP4 ADD DUP6 PUSH2 0x1BAA JUMP JUMPDEST PUSH2 0x1FF8 PUSH1 0x40 DUP4 ADD DUP5 PUSH2 0x1A41 JUMP JUMPDEST SWAP5 SWAP4 POP POP POP POP JUMP JUMPDEST DUP3 DUP2 DUP4 CALLDATACOPY POP POP POP JUMP JUMPDEST PUSH2 0x2016 PUSH2 0x300 DUP4 DUP4 PUSH2 0x2000 JUMP JUMPDEST POP POP JUMP JUMPDEST PUSH2 0x2026 PUSH1 0x40 DUP4 DUP4 PUSH2 0x2000 JUMP JUMPDEST POP POP JUMP JUMPDEST PUSH1 0x0 PUSH2 0x340 DUP3 ADD SWAP1 POP PUSH2 0x2040 PUSH1 0x0 DUP4 ADD DUP6 PUSH2 0x2009 JUMP JUMPDEST PUSH2 0x204E PUSH2 0x300 DUP4 ADD DUP5 PUSH2 0x201A JUMP JUMPDEST SWAP4 SWAP3 POP POP POP JUMP JUMPDEST PUSH1 0x0 DUP2 MLOAD SWAP1 POP PUSH2 0x2064 DUP2 PUSH2 0x1745 JUMP JUMPDEST SWAP3 SWAP2 POP POP JUMP JUMPDEST PUSH1 0x0 PUSH1 0x20 DUP3 DUP5 SUB SLT ISZERO PUSH2 0x2080 JUMPI PUSH2 0x207F PUSH2 0x155E JUMP JUMPDEST JUMPDEST PUSH1 0x0 PUSH2 0x208E DUP5 DUP3 DUP6 ADD PUSH2 0x2055 JUMP JUMPDEST SWAP2 POP POP SWAP3 SWAP2 POP POP JUMP JUMPDEST PUSH1 0x0 PUSH2 0x20A2 DUP3 PUSH2 0x1568 JUMP JUMPDEST SWAP2 POP PUSH32 0xFFFFFFFFFFFFFFFFFFFFFFFFFFFFFFFFFFFFFFFFFFFFFFFFFFFFFFFFFFFFFFFF DUP3 SUB PUSH2 0x20D4 JUMPI PUSH2 0x20D3 PUSH2 0x1A87 JUMP JUMPDEST JUMPDEST PUSH1 0x1 DUP3 ADD SWAP1 POP SWAP2 SWAP1 POP JUMP JUMPDEST PUSH1 0x0 PUSH2 0x20EA DUP3 PUSH2 0x1568 JUMP JUMPDEST SWAP2 POP PUSH2 0x20F5 DUP4 PUSH2 0x1568 JUMP JUMPDEST SWAP3 POP DUP3 DUP3 SUB SWAP1 POP DUP2 DUP2 GT ISZERO PUSH2 0x210D JUMPI PUSH2 0x210C PUSH2 0x1A87 JUMP JUMPDEST JUMPDEST SWAP3 SWAP2 POP POP JUMP INVALID LOG2 PUSH5 0x6970667358 0x22 SLT KECCAK256 SWAP16 0xBB 0x1E 0xD SAR SELFDESTRUCT 0xC3 0x22 DUP2 GASPRICE PUSH30 0x85FD7C709077025B9E95C23A9F5969F4F2849A014564736F6C6343000812 STOP CALLER "},"methodIdentifiers":{"TAZZA()":"50aea995","game_count()":"26acf95c","game_per_player(address)":"b435ceb4","game_states(uint256)":"80db1b99","games(uint256)":"117a5b90","round1(uint256,(uint256,uint256,uint256,uint256,uint256)[])":"533dd88a","round2(uint256)":"2d30d9af","round3(uint256,bool)":"63688c6b","round4(uint256)":"aae6acb8","round5(uint256,bool)":"46aa39d6","start_game(uint256[24],uint256[2])":"d3d72553"}}}}}