{"contracts/Tazza.sol":{"Tazza":{"abi":[{"inputs":[{"internalType":"contract KeyGenerationVerifier","name":"_keyGenerationVerifier","type":"address"},{"internalType":"contract CreateShuffledDeckVerifier","name":"_createShuffledDeckVerifier","type":"address"}],"stateMutability":"nonpayable","type":"constructor"},{"inputs":[],"name":"createShuffledDeckVerifier","outputs":[{"internalType":"contract CreateShuffledDeckVerifier","name":"","type":"address"}],"stateMutability":"view","type":"function"},{"inputs":[{"internalType":"address","name":"owner","type":"address"},{"components":[{"internalType":"address","name":"addr","type":"address"},{"internalType":"uint256[2]","name":"public_key","type":"uint256[2]"}],"internalType":"struct ITazza.Player[]","name":"players","type":"tuple[]"},{"internalType":"uint256","name":"num_cards","type":"uint256"}],"name":"create_deck","outputs":[{"internalType":"uint256","name":"","type":"uint256"}],"stateMutability":"nonpayable","type":"function"},{"inputs":[{"internalType":"uint256","name":"deck_ind","type":"uint256"},{"internalType":"uint256[24]","name":"proof","type":"uint256[24]"},{"internalType":"uint256[18]","name":"pubSignals","type":"uint256[18]"}],"name":"create_shuffled_deck","outputs":[{"internalType":"bool","name":"","type":"bool"}],"stateMutability":"nonpayable","type":"function"},{"inputs":[],"name":"deck_count","outputs":[{"internalType":"uint256","name":"","type":"uint256"}],"stateMutability":"view","type":"function"},{"inputs":[{"internalType":"uint256","name":"","type":"uint256"}],"name":"decks","outputs":[{"internalType":"address","name":"owner","type":"address"},{"internalType":"uint256","name":"num_players","type":"uint256"},{"internalType":"uint256","name":"num_cards","type":"uint256"}],"stateMutability":"view","type":"function"},{"inputs":[{"components":[{"internalType":"address","name":"addr","type":"address"},{"internalType":"uint256[2]","name":"public_key","type":"uint256[2]"}],"internalType":"struct ITazza.Player[]","name":"","type":"tuple[]"},{"components":[{"internalType":"uint256","name":"c1_x","type":"uint256"},{"internalType":"uint256","name":"c1_y","type":"uint256"},{"internalType":"uint256","name":"c2_x","type":"uint256"},{"internalType":"uint256","name":"c2_y","type":"uint256"},{"internalType":"uint256","name":"flag","type":"uint256"}],"internalType":"struct ITazza.Card","name":"card","type":"tuple"}],"name":"decode_card","outputs":[{"internalType":"uint256","name":"c","type":"uint256"}],"stateMutability":"pure","type":"function"},{"inputs":[{"internalType":"uint256","name":"deck_ind","type":"uint256"},{"internalType":"uint256","name":"card_ind","type":"uint256"},{"internalType":"uint256","name":"player_index","type":"uint256"}],"name":"decrypt_card","outputs":[],"stateMutability":"nonpayable","type":"function"},{"inputs":[{"components":[{"internalType":"address","name":"addr","type":"address"},{"internalType":"uint256[2]","name":"public_key","type":"uint256[2]"}],"internalType":"struct ITazza.Player[]","name":"","type":"tuple[]"},{"internalType":"uint256","name":"c","type":"uint256"}],"name":"encode_card","outputs":[{"components":[{"internalType":"uint256","name":"c1_x","type":"uint256"},{"internalType":"uint256","name":"c1_y","type":"uint256"},{"internalType":"uint256","name":"c2_x","type":"uint256"},{"internalType":"uint256","name":"c2_y","type":"uint256"},{"internalType":"uint256","name":"flag","type":"uint256"}],"internalType":"struct ITazza.Card","name":"card","type":"tuple"}],"stateMutability":"pure","type":"function"},{"inputs":[],"name":"keyGenerationVerifier","outputs":[{"internalType":"contract KeyGenerationVerifier","name":"","type":"address"}],"stateMutability":"view","type":"function"},{"inputs":[{"internalType":"uint256","name":"deck_ind","type":"uint256"},{"internalType":"uint256","name":"card_ind","type":"uint256"}],"name":"open_card","outputs":[{"internalType":"uint256","name":"","type":"uint256"}],"stateMutability":"view","type":"function"},{"inputs":[{"internalType":"uint256","name":"deck_ind","type":"uint256"},{"components":[{"internalType":"uint256","name":"c1_x","type":"uint256"},{"internalType":"uint256","name":"c1_y","type":"uint256"},{"internalType":"uint256","name":"c2_x","type":"uint256"},{"internalType":"uint256","name":"c2_y","type":"uint256"},{"internalType":"uint256","name":"flag","type":"uint256"}],"internalType":"struct ITazza.Card[]","name":"cards","type":"tuple[]"}],"name":"shuffle_deck","outputs":[],"stateMutability":"nonpayable","type":"function"},{"inputs":[{"internalType":"uint256[24]","name":"proof","type":"uint256[24]"},{"internalType":"uint256[2]","name":"pubSignals","type":"uint256[2]"}],"name":"verify_public_key","outputs":[{"internalType":"bool","name":"","type":"bool"}],"stateMutability":"view","type":"function"}],"evm":{"bytecode":{"linkReferences":{},"object":"60806040523480156200001157600080fd5b506040516200196f3803806200196f83398181016040528101906200003791906200018b565b816000806101000a81548173ffffffffffffffffffffffffffffffffffffffff021916908373ffffffffffffffffffffffffffffffffffffffff16021790555080600160006101000a81548173ffffffffffffffffffffffffffffffffffffffff021916908373ffffffffffffffffffffffffffffffffffffffff16021790555060006002819055505050620001d2565b600080fd5b600073ffffffffffffffffffffffffffffffffffffffff82169050919050565b6000620000fa82620000cd565b9050919050565b60006200010e82620000ed565b9050919050565b620001208162000101565b81146200012c57600080fd5b50565b600081519050620001408162000115565b92915050565b60006200015382620000ed565b9050919050565b620001658162000146565b81146200017157600080fd5b50565b60008151905062000185816200015a565b92915050565b60008060408385031215620001a557620001a4620000c8565b5b6000620001b5858286016200012f565b9250506020620001c88582860162000174565b9150509250929050565b61178d80620001e26000396000f3fe608060405234801561001057600080fd5b50600436106100b45760003560e01c806387c4267c1161007157806387c4267c146101b357806388e18cdc146101cf578063a090195d146101ff578063abeeeac014610231578063ddc7cdf914610261578063fd15a0de1461027f576100b4565b80631314b545146100b95780631bb8f488146100e95780634b3efeac1461011957806353c37af7146101495780635906106e14610179578063778ad70714610197575b600080fd5b6100d360048036038101906100ce9190610cd6565b61029d565b6040516100e09190610d46565b60405180910390f35b61010360048036038101906100fe9190611019565b6103b6565b60405161011091906110ec565b60405180910390f35b610133600480360381019061012e9190611193565b6103ce565b60405161014091906111fe565b60405180910390f35b610163600480360381019061015e919061123b565b6103dd565b6040516101709190610d46565b60405180910390f35b610181610484565b60405161018e91906112dc565b60405180910390f35b6101b160048036038101906101ac91906112f7565b6104a8565b005b6101cd60048036038101906101c8919061140d565b6105b4565b005b6101e960048036038101906101e49190611469565b6106f1565b6040516101f691906111fe565b60405180910390f35b610219600480360381019061021491906114d8565b610930565b60405161022893929190611514565b60405180910390f35b61024b6004803603810190610246919061154b565b61097a565b60405161025891906111fe565b60405180910390f35b610269610b8b565b60405161027691906111fe565b60405180910390f35b610287610b91565b60405161029491906115ac565b60405180910390f35b6000833373ffffffffffffffffffffffffffffffffffffffff166003600083815260200190815260200160002060000160009054906101000a900473ffffffffffffffffffffffffffffffffffffffff1673ffffffffffffffffffffffffffffffffffffffff161461030e57600080fd5b600160009054906101000a900473ffffffffffffffffffffffffffffffffffffffff1673ffffffffffffffffffffffffffffffffffffffff16632e05aefd85856040518363ffffffff1660e01b815260040161036b9291906115f2565b602060405180830381865afa158015610388573d6000803e3d6000fd5b505050506040513d601f19601f820116820180604052508101906103ac9190611649565b9150509392505050565b6103be610bb7565b8181600001818152505092915050565b60008160000151905092915050565b60008060009054906101000a900473ffffffffffffffffffffffffffffffffffffffff1673ffffffffffffffffffffffffffffffffffffffff1663c0e9d81c84846040518363ffffffff1660e01b815260040161043b929190611686565b602060405180830381865afa158015610458573d6000803e3d6000fd5b505050506040513d601f19601f8201168201806040525081019061047c9190611649565b905092915050565b60008054906101000a900473ffffffffffffffffffffffffffffffffffffffff1681565b823373ffffffffffffffffffffffffffffffffffffffff166003600083815260200190815260200160002060000160009054906101000a900473ffffffffffffffffffffffffffffffffffffffff1673ffffffffffffffffffffffffffffffffffffffff161461051757600080fd5b6000600183600360008881526020019081526020016000206004018681548110610544576105436116b1565b5b906000526020600020906005020160040154901c161461056357600080fd5b816001901b6003600086815260200190815260200160002060040184815481106105905761058f6116b1565b5b90600052602060002090600502016004016000828254179250508190555050505050565b813373ffffffffffffffffffffffffffffffffffffffff166003600083815260200190815260200160002060000160009054906101000a900473ffffffffffffffffffffffffffffffffffffffff1673ffffffffffffffffffffffffffffffffffffffff161461062357600080fd5b815160036000858152602001908152602001600020600201541461064657600080fd5b60005b82518110156106eb57828181518110610665576106646116b1565b5b6020026020010151600360008681526020019081526020016000206004018281548110610695576106946116b1565b5b9060005260206000209060050201600082015181600001556020820151816001015560408201518160020155606082015181600301556080820151816004015590505080806106e39061170f565b915050610649565b50505050565b60006101008351111561070357600080fd5b600060025490506002600081548092919061071d9061170f565b9190505550846003600083815260200190815260200160002060000160006101000a81548173ffffffffffffffffffffffffffffffffffffffff021916908373ffffffffffffffffffffffffffffffffffffffff1602179055508351600360008381526020019081526020016000206001018190555060005b845181101561086d57600360008381526020019081526020016000206003018582815181106107c8576107c76116b1565b5b6020026020010151908060018154018082558091505060019003906000526020600020906003020160009091909190915060008201518160000160006101000a81548173ffffffffffffffffffffffffffffffffffffffff021916908373ffffffffffffffffffffffffffffffffffffffff160217905550602082015181600101906002610857929190610be6565b50505080806108659061170f565b915050610796565b5082600360008381526020019081526020016000206002018190555060005b8381101561092457600360008381526020019081526020016000206004016108b486836103b6565b908060018154018082558091505060019003906000526020600020906005020160009091909190915060008201518160000155602082015181600101556040820151816002015560608201518160030155608082015181600401555050808061091c9061170f565b91505061088c565b50809150509392505050565b60036020528060005260406000206000915090508060000160009054906101000a900473ffffffffffffffffffffffffffffffffffffffff16908060010154908060020154905083565b6000806003600085815260200190815260200160002060040183815481106109a5576109a46116b1565b5b906000526020600020906005020160040154905060005b60036000868152602001908152602001600020600101548110156109ff576001808284901c16146109ec57600080fd5b80806109f79061170f565b9150506109bc565b50610b8260036000868152602001908152602001600020600301805480602002602001604051908101604052809291908181526020016000905b82821015610b0657838290600052602060002090600302016040518060400160405290816000820160009054906101000a900473ffffffffffffffffffffffffffffffffffffffff1673ffffffffffffffffffffffffffffffffffffffff1673ffffffffffffffffffffffffffffffffffffffff16815260200160018201600280602002604051908101604052809291908260028015610aee576020028201915b815481526020019060010190808311610ada575b50505050508152505081526020019060010190610a39565b50505050600360008781526020019081526020016000206004018581548110610b3257610b316116b1565b5b90600052602060002090600502016040518060a0016040529081600082015481526020016001820154815260200160028201548152602001600382015481526020016004820154815250506103ce565b91505092915050565b60025481565b600160009054906101000a900473ffffffffffffffffffffffffffffffffffffffff1681565b6040518060a0016040528060008152602001600081526020016000815260200160008152602001600081525090565b8260028101928215610c15579160200282015b82811115610c14578251825591602001919060010190610bf9565b5b509050610c229190610c26565b5090565b5b80821115610c3f576000816000905550600101610c27565b5090565b6000604051905090565b600080fd5b600080fd5b6000819050919050565b610c6a81610c57565b8114610c7557600080fd5b50565b600081359050610c8781610c61565b92915050565b600080fd5b600081905082602060180282011115610cae57610cad610c8d565b5b92915050565b600081905082602060120282011115610cd057610ccf610c8d565b5b92915050565b60008060006105608486031215610cf057610cef610c4d565b5b6000610cfe86828701610c78565b9350506020610d0f86828701610c92565b925050610320610d2186828701610cb4565b9150509250925092565b60008115159050919050565b610d4081610d2b565b82525050565b6000602082019050610d5b6000830184610d37565b92915050565b600080fd5b6000601f19601f8301169050919050565b7f4e487b7100000000000000000000000000000000000000000000000000000000600052604160045260246000fd5b610daf82610d66565b810181811067ffffffffffffffff82111715610dce57610dcd610d77565b5b80604052505050565b6000610de1610c43565b9050610ded8282610da6565b919050565b600067ffffffffffffffff821115610e0d57610e0c610d77565b5b602082029050602081019050919050565b600080fd5b600073ffffffffffffffffffffffffffffffffffffffff82169050919050565b6000610e4e82610e23565b9050919050565b610e5e81610e43565b8114610e6957600080fd5b50565b600081359050610e7b81610e55565b92915050565b600067ffffffffffffffff821115610e9c57610e9b610d77565b5b602082029050919050565b6000610eba610eb584610e81565b610dd7565b90508060208402830185811115610ed457610ed3610c8d565b5b835b81811015610efd5780610ee98882610c78565b845260208401935050602081019050610ed6565b5050509392505050565b600082601f830112610f1c57610f1b610d61565b5b6002610f29848285610ea7565b91505092915050565b600060608284031215610f4857610f47610e1e565b5b610f526040610dd7565b90506000610f6284828501610e6c565b6000830152506020610f7684828501610f07565b60208301525092915050565b6000610f95610f9084610df2565b610dd7565b90508083825260208201905060608402830185811115610fb857610fb7610c8d565b5b835b81811015610fe15780610fcd8882610f32565b845260208401935050606081019050610fba565b5050509392505050565b600082601f83011261100057610fff610d61565b5b8135611010848260208601610f82565b91505092915050565b600080604083850312156110305761102f610c4d565b5b600083013567ffffffffffffffff81111561104e5761104d610c52565b5b61105a85828601610feb565b925050602061106b85828601610c78565b9150509250929050565b61107e81610c57565b82525050565b60a08201600082015161109a6000850182611075565b5060208201516110ad6020850182611075565b5060408201516110c06040850182611075565b5060608201516110d36060850182611075565b5060808201516110e66080850182611075565b50505050565b600060a0820190506111016000830184611084565b92915050565b600060a0828403121561111d5761111c610e1e565b5b61112760a0610dd7565b9050600061113784828501610c78565b600083015250602061114b84828501610c78565b602083015250604061115f84828501610c78565b604083015250606061117384828501610c78565b606083015250608061118784828501610c78565b60808301525092915050565b60008060c083850312156111aa576111a9610c4d565b5b600083013567ffffffffffffffff8111156111c8576111c7610c52565b5b6111d485828601610feb565b92505060206111e585828601611107565b9150509250929050565b6111f881610c57565b82525050565b600060208201905061121360008301846111ef565b92915050565b60008190508260206002028201111561123557611234610c8d565b5b92915050565b600080610340838503121561125357611252610c4d565b5b600061126185828601610c92565b92505061030061127385828601611219565b9150509250929050565b6000819050919050565b60006112a261129d61129884610e23565b61127d565b610e23565b9050919050565b60006112b482611287565b9050919050565b60006112c6826112a9565b9050919050565b6112d6816112bb565b82525050565b60006020820190506112f160008301846112cd565b92915050565b6000806000606084860312156113105761130f610c4d565b5b600061131e86828701610c78565b935050602061132f86828701610c78565b925050604061134086828701610c78565b9150509250925092565b600067ffffffffffffffff82111561136557611364610d77565b5b602082029050602081019050919050565b60006113896113848461134a565b610dd7565b90508083825260208201905060a084028301858111156113ac576113ab610c8d565b5b835b818110156113d557806113c18882611107565b84526020840193505060a0810190506113ae565b5050509392505050565b600082601f8301126113f4576113f3610d61565b5b8135611404848260208601611376565b91505092915050565b6000806040838503121561142457611423610c4d565b5b600061143285828601610c78565b925050602083013567ffffffffffffffff81111561145357611452610c52565b5b61145f858286016113df565b9150509250929050565b60008060006060848603121561148257611481610c4d565b5b600061149086828701610e6c565b935050602084013567ffffffffffffffff8111156114b1576114b0610c52565b5b6114bd86828701610feb565b92505060406114ce86828701610c78565b9150509250925092565b6000602082840312156114ee576114ed610c4d565b5b60006114fc84828501610c78565b91505092915050565b61150e81610e43565b82525050565b60006060820190506115296000830186611505565b61153660208301856111ef565b61154360408301846111ef565b949350505050565b6000806040838503121561156257611561610c4d565b5b600061157085828601610c78565b925050602061158185828601610c78565b9150509250929050565b6000611596826112a9565b9050919050565b6115a68161158b565b82525050565b60006020820190506115c1600083018461159d565b92915050565b82818337505050565b6115dd61030083836115c7565b5050565b6115ee61024083836115c7565b5050565b60006105408201905061160860008301856115d0565b6116166103008301846115e1565b9392505050565b61162681610d2b565b811461163157600080fd5b50565b6000815190506116438161161d565b92915050565b60006020828403121561165f5761165e610c4d565b5b600061166d84828501611634565b91505092915050565b611682604083836115c7565b5050565b60006103408201905061169c60008301856115d0565b6116aa610300830184611676565b9392505050565b7f4e487b7100000000000000000000000000000000000000000000000000000000600052603260045260246000fd5b7f4e487b7100000000000000000000000000000000000000000000000000000000600052601160045260246000fd5b600061171a82610c57565b91507fffffffffffffffffffffffffffffffffffffffffffffffffffffffffffffffff820361174c5761174b6116e0565b5b60018201905091905056fea2646970667358221220c1cd6f18fc5411681c5dbb5da72a5f07fb31658198397a6701f0f1fb52e097c864736f6c63430008120033","opcodes":"PUSH1 0x80 PUSH1 0x40 MSTORE CALLVALUE DUP1 ISZERO PUSH3 0x11 JUMPI PUSH1 0x0 DUP1 REVERT JUMPDEST POP PUSH1 0x40 MLOAD PUSH3 0x196F CODESIZE SUB DUP1 PUSH3 0x196F DUP4 CODECOPY DUP2 DUP2 ADD PUSH1 0x40 MSTORE DUP2 ADD SWAP1 PUSH3 0x37 SWAP2 SWAP1 PUSH3 0x18B JUMP JUMPDEST DUP2 PUSH1 0x0 DUP1 PUSH2 0x100 EXP DUP2 SLOAD DUP2 PUSH20 0xFFFFFFFFFFFFFFFFFFFFFFFFFFFFFFFFFFFFFFFF MUL NOT AND SWAP1 DUP4 PUSH20 0xFFFFFFFFFFFFFFFFFFFFFFFFFFFFFFFFFFFFFFFF AND MUL OR SWAP1 SSTORE POP DUP1 PUSH1 0x1 PUSH1 0x0 PUSH2 0x100 EXP DUP2 SLOAD DUP2 PUSH20 0xFFFFFFFFFFFFFFFFFFFFFFFFFFFFFFFFFFFFFFFF MUL NOT AND SWAP1 DUP4 PUSH20 0xFFFFFFFFFFFFFFFFFFFFFFFFFFFFFFFFFFFFFFFF AND MUL OR SWAP1 SSTORE POP PUSH1 0x0 PUSH1 0x2 DUP2 SWAP1 SSTORE POP POP POP PUSH3 0x1D2 JUMP JUMPDEST PUSH1 0x0 DUP1 REVERT JUMPDEST PUSH1 0x0 PUSH20 0xFFFFFFFFFFFFFFFFFFFFFFFFFFFFFFFFFFFFFFFF DUP3 AND SWAP1 POP SWAP2 SWAP1 POP JUMP JUMPDEST PUSH1 0x0 PUSH3 0xFA DUP3 PUSH3 0xCD JUMP JUMPDEST SWAP1 POP SWAP2 SWAP1 POP JUMP JUMPDEST PUSH1 0x0 PUSH3 0x10E DUP3 PUSH3 0xED JUMP JUMPDEST SWAP1 POP SWAP2 SWAP1 POP JUMP JUMPDEST PUSH3 0x120 DUP2 PUSH3 0x101 JUMP JUMPDEST DUP2 EQ PUSH3 0x12C JUMPI PUSH1 0x0 DUP1 REVERT JUMPDEST POP JUMP JUMPDEST PUSH1 0x0 DUP2 MLOAD SWAP1 POP PUSH3 0x140 DUP2 PUSH3 0x115 JUMP JUMPDEST SWAP3 SWAP2 POP POP JUMP JUMPDEST PUSH1 0x0 PUSH3 0x153 DUP3 PUSH3 0xED JUMP JUMPDEST SWAP1 POP SWAP2 SWAP1 POP JUMP JUMPDEST PUSH3 0x165 DUP2 PUSH3 0x146 JUMP JUMPDEST DUP2 EQ PUSH3 0x171 JUMPI PUSH1 0x0 DUP1 REVERT JUMPDEST POP JUMP JUMPDEST PUSH1 0x0 DUP2 MLOAD SWAP1 POP PUSH3 0x185 DUP2 PUSH3 0x15A JUMP JUMPDEST SWAP3 SWAP2 POP POP JUMP JUMPDEST PUSH1 0x0 DUP1 PUSH1 0x40 DUP4 DUP6 SUB SLT ISZERO PUSH3 0x1A5 JUMPI PUSH3 0x1A4 PUSH3 0xC8 JUMP JUMPDEST JUMPDEST PUSH1 0x0 PUSH3 0x1B5 DUP6 DUP3 DUP7 ADD PUSH3 0x12F JUMP JUMPDEST SWAP3 POP POP PUSH1 0x20 PUSH3 0x1C8 DUP6 DUP3 DUP7 ADD PUSH3 0x174 JUMP JUMPDEST SWAP2 POP POP SWAP3 POP SWAP3 SWAP1 POP JUMP JUMPDEST PUSH2 0x178D DUP1 PUSH3 0x1E2 PUSH1 0x0 CODECOPY PUSH1 0x0 RETURN INVALID PUSH1 0x80 PUSH1 0x40 MSTORE CALLVALUE DUP1 ISZERO PUSH2 0x10 JUMPI PUSH1 0x0 DUP1 REVERT JUMPDEST POP PUSH1 0x4 CALLDATASIZE LT PUSH2 0xB4 JUMPI PUSH1 0x0 CALLDATALOAD PUSH1 0xE0 SHR DUP1 PUSH4 0x87C4267C GT PUSH2 0x71 JUMPI DUP1 PUSH4 0x87C4267C EQ PUSH2 0x1B3 JUMPI DUP1 PUSH4 0x88E18CDC EQ PUSH2 0x1CF JUMPI DUP1 PUSH4 0xA090195D EQ PUSH2 0x1FF JUMPI DUP1 PUSH4 0xABEEEAC0 EQ PUSH2 0x231 JUMPI DUP1 PUSH4 0xDDC7CDF9 EQ PUSH2 0x261 JUMPI DUP1 PUSH4 0xFD15A0DE EQ PUSH2 0x27F JUMPI PUSH2 0xB4 JUMP JUMPDEST DUP1 PUSH4 0x1314B545 EQ PUSH2 0xB9 JUMPI DUP1 PUSH4 0x1BB8F488 EQ PUSH2 0xE9 JUMPI DUP1 PUSH4 0x4B3EFEAC EQ PUSH2 0x119 JUMPI DUP1 PUSH4 0x53C37AF7 EQ PUSH2 0x149 JUMPI DUP1 PUSH4 0x5906106E EQ PUSH2 0x179 JUMPI DUP1 PUSH4 0x778AD707 EQ PUSH2 0x197 JUMPI JUMPDEST PUSH1 0x0 DUP1 REVERT JUMPDEST PUSH2 0xD3 PUSH1 0x4 DUP1 CALLDATASIZE SUB DUP2 ADD SWAP1 PUSH2 0xCE SWAP2 SWAP1 PUSH2 0xCD6 JUMP JUMPDEST PUSH2 0x29D JUMP JUMPDEST PUSH1 0x40 MLOAD PUSH2 0xE0 SWAP2 SWAP1 PUSH2 0xD46 JUMP JUMPDEST PUSH1 0x40 MLOAD DUP1 SWAP2 SUB SWAP1 RETURN JUMPDEST PUSH2 0x103 PUSH1 0x4 DUP1 CALLDATASIZE SUB DUP2 ADD SWAP1 PUSH2 0xFE SWAP2 SWAP1 PUSH2 0x1019 JUMP JUMPDEST PUSH2 0x3B6 JUMP JUMPDEST PUSH1 0x40 MLOAD PUSH2 0x110 SWAP2 SWAP1 PUSH2 0x10EC JUMP JUMPDEST PUSH1 0x40 MLOAD DUP1 SWAP2 SUB SWAP1 RETURN JUMPDEST PUSH2 0x133 PUSH1 0x4 DUP1 CALLDATASIZE SUB DUP2 ADD SWAP1 PUSH2 0x12E SWAP2 SWAP1 PUSH2 0x1193 JUMP JUMPDEST PUSH2 0x3CE JUMP JUMPDEST PUSH1 0x40 MLOAD PUSH2 0x140 SWAP2 SWAP1 PUSH2 0x11FE JUMP JUMPDEST PUSH1 0x40 MLOAD DUP1 SWAP2 SUB SWAP1 RETURN JUMPDEST PUSH2 0x163 PUSH1 0x4 DUP1 CALLDATASIZE SUB DUP2 ADD SWAP1 PUSH2 0x15E SWAP2 SWAP1 PUSH2 0x123B JUMP JUMPDEST PUSH2 0x3DD JUMP JUMPDEST PUSH1 0x40 MLOAD PUSH2 0x170 SWAP2 SWAP1 PUSH2 0xD46 JUMP JUMPDEST PUSH1 0x40 MLOAD DUP1 SWAP2 SUB SWAP1 RETURN JUMPDEST PUSH2 0x181 PUSH2 0x484 JUMP JUMPDEST PUSH1 0x40 MLOAD PUSH2 0x18E SWAP2 SWAP1 PUSH2 0x12DC JUMP JUMPDEST PUSH1 0x40 MLOAD DUP1 SWAP2 SUB SWAP1 RETURN JUMPDEST PUSH2 0x1B1 PUSH1 0x4 DUP1 CALLDATASIZE SUB DUP2 ADD SWAP1 PUSH2 0x1AC SWAP2 SWAP1 PUSH2 0x12F7 JUMP JUMPDEST PUSH2 0x4A8 JUMP JUMPDEST STOP JUMPDEST PUSH2 0x1CD PUSH1 0x4 DUP1 CALLDATASIZE SUB DUP2 ADD SWAP1 PUSH2 0x1C8 SWAP2 SWAP1 PUSH2 0x140D JUMP JUMPDEST PUSH2 0x5B4 JUMP JUMPDEST STOP JUMPDEST PUSH2 0x1E9 PUSH1 0x4 DUP1 CALLDATASIZE SUB DUP2 ADD SWAP1 PUSH2 0x1E4 SWAP2 SWAP1 PUSH2 0x1469 JUMP JUMPDEST PUSH2 0x6F1 JUMP JUMPDEST PUSH1 0x40 MLOAD PUSH2 0x1F6 SWAP2 SWAP1 PUSH2 0x11FE JUMP JUMPDEST PUSH1 0x40 MLOAD DUP1 SWAP2 SUB SWAP1 RETURN JUMPDEST PUSH2 0x219 PUSH1 0x4 DUP1 CALLDATASIZE SUB DUP2 ADD SWAP1 PUSH2 0x214 SWAP2 SWAP1 PUSH2 0x14D8 JUMP JUMPDEST PUSH2 0x930 JUMP JUMPDEST PUSH1 0x40 MLOAD PUSH2 0x228 SWAP4 SWAP3 SWAP2 SWAP1 PUSH2 0x1514 JUMP JUMPDEST PUSH1 0x40 MLOAD DUP1 SWAP2 SUB SWAP1 RETURN JUMPDEST PUSH2 0x24B PUSH1 0x4 DUP1 CALLDATASIZE SUB DUP2 ADD SWAP1 PUSH2 0x246 SWAP2 SWAP1 PUSH2 0x154B JUMP JUMPDEST PUSH2 0x97A JUMP JUMPDEST PUSH1 0x40 MLOAD PUSH2 0x258 SWAP2 SWAP1 PUSH2 0x11FE JUMP JUMPDEST PUSH1 0x40 MLOAD DUP1 SWAP2 SUB SWAP1 RETURN JUMPDEST PUSH2 0x269 PUSH2 0xB8B JUMP JUMPDEST PUSH1 0x40 MLOAD PUSH2 0x276 SWAP2 SWAP1 PUSH2 0x11FE JUMP JUMPDEST PUSH1 0x40 MLOAD DUP1 SWAP2 SUB SWAP1 RETURN JUMPDEST PUSH2 0x287 PUSH2 0xB91 JUMP JUMPDEST PUSH1 0x40 MLOAD PUSH2 0x294 SWAP2 SWAP1 PUSH2 0x15AC JUMP JUMPDEST PUSH1 0x40 MLOAD DUP1 SWAP2 SUB SWAP1 RETURN JUMPDEST PUSH1 0x0 DUP4 CALLER PUSH20 0xFFFFFFFFFFFFFFFFFFFFFFFFFFFFFFFFFFFFFFFF AND PUSH1 0x3 PUSH1 0x0 DUP4 DUP2 MSTORE PUSH1 0x20 ADD SWAP1 DUP2 MSTORE PUSH1 0x20 ADD PUSH1 0x0 KECCAK256 PUSH1 0x0 ADD PUSH1 0x0 SWAP1 SLOAD SWAP1 PUSH2 0x100 EXP SWAP1 DIV PUSH20 0xFFFFFFFFFFFFFFFFFFFFFFFFFFFFFFFFFFFFFFFF AND PUSH20 0xFFFFFFFFFFFFFFFFFFFFFFFFFFFFFFFFFFFFFFFF AND EQ PUSH2 0x30E JUMPI PUSH1 0x0 DUP1 REVERT JUMPDEST PUSH1 0x1 PUSH1 0x0 SWAP1 SLOAD SWAP1 PUSH2 0x100 EXP SWAP1 DIV PUSH20 0xFFFFFFFFFFFFFFFFFFFFFFFFFFFFFFFFFFFFFFFF AND PUSH20 0xFFFFFFFFFFFFFFFFFFFFFFFFFFFFFFFFFFFFFFFF AND PUSH4 0x2E05AEFD DUP6 DUP6 PUSH1 0x40 MLOAD DUP4 PUSH4 0xFFFFFFFF AND PUSH1 0xE0 SHL DUP2 MSTORE PUSH1 0x4 ADD PUSH2 0x36B SWAP3 SWAP2 SWAP1 PUSH2 0x15F2 JUMP JUMPDEST PUSH1 0x20 PUSH1 0x40 MLOAD DUP1 DUP4 SUB DUP2 DUP7 GAS STATICCALL ISZERO DUP1 ISZERO PUSH2 0x388 JUMPI RETURNDATASIZE PUSH1 0x0 DUP1 RETURNDATACOPY RETURNDATASIZE PUSH1 0x0 REVERT JUMPDEST POP POP POP POP PUSH1 0x40 MLOAD RETURNDATASIZE PUSH1 0x1F NOT PUSH1 0x1F DUP3 ADD AND DUP3 ADD DUP1 PUSH1 0x40 MSTORE POP DUP2 ADD SWAP1 PUSH2 0x3AC SWAP2 SWAP1 PUSH2 0x1649 JUMP JUMPDEST SWAP2 POP POP SWAP4 SWAP3 POP POP POP JUMP JUMPDEST PUSH2 0x3BE PUSH2 0xBB7 JUMP JUMPDEST DUP2 DUP2 PUSH1 0x0 ADD DUP2 DUP2 MSTORE POP POP SWAP3 SWAP2 POP POP JUMP JUMPDEST PUSH1 0x0 DUP2 PUSH1 0x0 ADD MLOAD SWAP1 POP SWAP3 SWAP2 POP POP JUMP JUMPDEST PUSH1 0x0 DUP1 PUSH1 0x0 SWAP1 SLOAD SWAP1 PUSH2 0x100 EXP SWAP1 DIV PUSH20 0xFFFFFFFFFFFFFFFFFFFFFFFFFFFFFFFFFFFFFFFF AND PUSH20 0xFFFFFFFFFFFFFFFFFFFFFFFFFFFFFFFFFFFFFFFF AND PUSH4 0xC0E9D81C DUP5 DUP5 PUSH1 0x40 MLOAD DUP4 PUSH4 0xFFFFFFFF AND PUSH1 0xE0 SHL DUP2 MSTORE PUSH1 0x4 ADD PUSH2 0x43B SWAP3 SWAP2 SWAP1 PUSH2 0x1686 JUMP JUMPDEST PUSH1 0x20 PUSH1 0x40 MLOAD DUP1 DUP4 SUB DUP2 DUP7 GAS STATICCALL ISZERO DUP1 ISZERO PUSH2 0x458 JUMPI RETURNDATASIZE PUSH1 0x0 DUP1 RETURNDATACOPY RETURNDATASIZE PUSH1 0x0 REVERT JUMPDEST POP POP POP POP PUSH1 0x40 MLOAD RETURNDATASIZE PUSH1 0x1F NOT PUSH1 0x1F DUP3 ADD AND DUP3 ADD DUP1 PUSH1 0x40 MSTORE POP DUP2 ADD SWAP1 PUSH2 0x47C SWAP2 SWAP1 PUSH2 0x1649 JUMP JUMPDEST SWAP1 POP SWAP3 SWAP2 POP POP JUMP JUMPDEST PUSH1 0x0 DUP1 SLOAD SWAP1 PUSH2 0x100 EXP SWAP1 DIV PUSH20 0xFFFFFFFFFFFFFFFFFFFFFFFFFFFFFFFFFFFFFFFF AND DUP2 JUMP JUMPDEST DUP3 CALLER PUSH20 0xFFFFFFFFFFFFFFFFFFFFFFFFFFFFFFFFFFFFFFFF AND PUSH1 0x3 PUSH1 0x0 DUP4 DUP2 MSTORE PUSH1 0x20 ADD SWAP1 DUP2 MSTORE PUSH1 0x20 ADD PUSH1 0x0 KECCAK256 PUSH1 0x0 ADD PUSH1 0x0 SWAP1 SLOAD SWAP1 PUSH2 0x100 EXP SWAP1 DIV PUSH20 0xFFFFFFFFFFFFFFFFFFFFFFFFFFFFFFFFFFFFFFFF AND PUSH20 0xFFFFFFFFFFFFFFFFFFFFFFFFFFFFFFFFFFFFFFFF AND EQ PUSH2 0x517 JUMPI PUSH1 0x0 DUP1 REVERT JUMPDEST PUSH1 0x0 PUSH1 0x1 DUP4 PUSH1 0x3 PUSH1 0x0 DUP9 DUP2 MSTORE PUSH1 0x20 ADD SWAP1 DUP2 MSTORE PUSH1 0x20 ADD PUSH1 0x0 KECCAK256 PUSH1 0x4 ADD DUP7 DUP2 SLOAD DUP2 LT PUSH2 0x544 JUMPI PUSH2 0x543 PUSH2 0x16B1 JUMP JUMPDEST JUMPDEST SWAP1 PUSH1 0x0 MSTORE PUSH1 0x20 PUSH1 0x0 KECCAK256 SWAP1 PUSH1 0x5 MUL ADD PUSH1 0x4 ADD SLOAD SWAP1 SHR AND EQ PUSH2 0x563 JUMPI PUSH1 0x0 DUP1 REVERT JUMPDEST DUP2 PUSH1 0x1 SWAP1 SHL PUSH1 0x3 PUSH1 0x0 DUP7 DUP2 MSTORE PUSH1 0x20 ADD SWAP1 DUP2 MSTORE PUSH1 0x20 ADD PUSH1 0x0 KECCAK256 PUSH1 0x4 ADD DUP5 DUP2 SLOAD DUP2 LT PUSH2 0x590 JUMPI PUSH2 0x58F PUSH2 0x16B1 JUMP JUMPDEST JUMPDEST SWAP1 PUSH1 0x0 MSTORE PUSH1 0x20 PUSH1 0x0 KECCAK256 SWAP1 PUSH1 0x5 MUL ADD PUSH1 0x4 ADD PUSH1 0x0 DUP3 DUP3 SLOAD OR SWAP3 POP POP DUP2 SWAP1 SSTORE POP POP POP POP POP JUMP JUMPDEST DUP2 CALLER PUSH20 0xFFFFFFFFFFFFFFFFFFFFFFFFFFFFFFFFFFFFFFFF AND PUSH1 0x3 PUSH1 0x0 DUP4 DUP2 MSTORE PUSH1 0x20 ADD SWAP1 DUP2 MSTORE PUSH1 0x20 ADD PUSH1 0x0 KECCAK256 PUSH1 0x0 ADD PUSH1 0x0 SWAP1 SLOAD SWAP1 PUSH2 0x100 EXP SWAP1 DIV PUSH20 0xFFFFFFFFFFFFFFFFFFFFFFFFFFFFFFFFFFFFFFFF AND PUSH20 0xFFFFFFFFFFFFFFFFFFFFFFFFFFFFFFFFFFFFFFFF AND EQ PUSH2 0x623 JUMPI PUSH1 0x0 DUP1 REVERT JUMPDEST DUP2 MLOAD PUSH1 0x3 PUSH1 0x0 DUP6 DUP2 MSTORE PUSH1 0x20 ADD SWAP1 DUP2 MSTORE PUSH1 0x20 ADD PUSH1 0x0 KECCAK256 PUSH1 0x2 ADD SLOAD EQ PUSH2 0x646 JUMPI PUSH1 0x0 DUP1 REVERT JUMPDEST PUSH1 0x0 JUMPDEST DUP3 MLOAD DUP2 LT ISZERO PUSH2 0x6EB JUMPI DUP3 DUP2 DUP2 MLOAD DUP2 LT PUSH2 0x665 JUMPI PUSH2 0x664 PUSH2 0x16B1 JUMP JUMPDEST JUMPDEST PUSH1 0x20 MUL PUSH1 0x20 ADD ADD MLOAD PUSH1 0x3 PUSH1 0x0 DUP7 DUP2 MSTORE PUSH1 0x20 ADD SWAP1 DUP2 MSTORE PUSH1 0x20 ADD PUSH1 0x0 KECCAK256 PUSH1 0x4 ADD DUP3 DUP2 SLOAD DUP2 LT PUSH2 0x695 JUMPI PUSH2 0x694 PUSH2 0x16B1 JUMP JUMPDEST JUMPDEST SWAP1 PUSH1 0x0 MSTORE PUSH1 0x20 PUSH1 0x0 KECCAK256 SWAP1 PUSH1 0x5 MUL ADD PUSH1 0x0 DUP3 ADD MLOAD DUP2 PUSH1 0x0 ADD SSTORE PUSH1 0x20 DUP3 ADD MLOAD DUP2 PUSH1 0x1 ADD SSTORE PUSH1 0x40 DUP3 ADD MLOAD DUP2 PUSH1 0x2 ADD SSTORE PUSH1 0x60 DUP3 ADD MLOAD DUP2 PUSH1 0x3 ADD SSTORE PUSH1 0x80 DUP3 ADD MLOAD DUP2 PUSH1 0x4 ADD SSTORE SWAP1 POP POP DUP1 DUP1 PUSH2 0x6E3 SWAP1 PUSH2 0x170F JUMP JUMPDEST SWAP2 POP POP PUSH2 0x649 JUMP JUMPDEST POP POP POP POP JUMP JUMPDEST PUSH1 0x0 PUSH2 0x100 DUP4 MLOAD GT ISZERO PUSH2 0x703 JUMPI PUSH1 0x0 DUP1 REVERT JUMPDEST PUSH1 0x0 PUSH1 0x2 SLOAD SWAP1 POP PUSH1 0x2 PUSH1 0x0 DUP2 SLOAD DUP1 SWAP3 SWAP2 SWAP1 PUSH2 0x71D SWAP1 PUSH2 0x170F JUMP JUMPDEST SWAP2 SWAP1 POP SSTORE POP DUP5 PUSH1 0x3 PUSH1 0x0 DUP4 DUP2 MSTORE PUSH1 0x20 ADD SWAP1 DUP2 MSTORE PUSH1 0x20 ADD PUSH1 0x0 KECCAK256 PUSH1 0x0 ADD PUSH1 0x0 PUSH2 0x100 EXP DUP2 SLOAD DUP2 PUSH20 0xFFFFFFFFFFFFFFFFFFFFFFFFFFFFFFFFFFFFFFFF MUL NOT AND SWAP1 DUP4 PUSH20 0xFFFFFFFFFFFFFFFFFFFFFFFFFFFFFFFFFFFFFFFF AND MUL OR SWAP1 SSTORE POP DUP4 MLOAD PUSH1 0x3 PUSH1 0x0 DUP4 DUP2 MSTORE PUSH1 0x20 ADD SWAP1 DUP2 MSTORE PUSH1 0x20 ADD PUSH1 0x0 KECCAK256 PUSH1 0x1 ADD DUP2 SWAP1 SSTORE POP PUSH1 0x0 JUMPDEST DUP5 MLOAD DUP2 LT ISZERO PUSH2 0x86D JUMPI PUSH1 0x3 PUSH1 0x0 DUP4 DUP2 MSTORE PUSH1 0x20 ADD SWAP1 DUP2 MSTORE PUSH1 0x20 ADD PUSH1 0x0 KECCAK256 PUSH1 0x3 ADD DUP6 DUP3 DUP2 MLOAD DUP2 LT PUSH2 0x7C8 JUMPI PUSH2 0x7C7 PUSH2 0x16B1 JUMP JUMPDEST JUMPDEST PUSH1 0x20 MUL PUSH1 0x20 ADD ADD MLOAD SWAP1 DUP1 PUSH1 0x1 DUP2 SLOAD ADD DUP1 DUP3 SSTORE DUP1 SWAP2 POP POP PUSH1 0x1 SWAP1 SUB SWAP1 PUSH1 0x0 MSTORE PUSH1 0x20 PUSH1 0x0 KECCAK256 SWAP1 PUSH1 0x3 MUL ADD PUSH1 0x0 SWAP1 SWAP2 SWAP1 SWAP2 SWAP1 SWAP2 POP PUSH1 0x0 DUP3 ADD MLOAD DUP2 PUSH1 0x0 ADD PUSH1 0x0 PUSH2 0x100 EXP DUP2 SLOAD DUP2 PUSH20 0xFFFFFFFFFFFFFFFFFFFFFFFFFFFFFFFFFFFFFFFF MUL NOT AND SWAP1 DUP4 PUSH20 0xFFFFFFFFFFFFFFFFFFFFFFFFFFFFFFFFFFFFFFFF AND MUL OR SWAP1 SSTORE POP PUSH1 0x20 DUP3 ADD MLOAD DUP2 PUSH1 0x1 ADD SWAP1 PUSH1 0x2 PUSH2 0x857 SWAP3 SWAP2 SWAP1 PUSH2 0xBE6 JUMP JUMPDEST POP POP POP DUP1 DUP1 PUSH2 0x865 SWAP1 PUSH2 0x170F JUMP JUMPDEST SWAP2 POP POP PUSH2 0x796 JUMP JUMPDEST POP DUP3 PUSH1 0x3 PUSH1 0x0 DUP4 DUP2 MSTORE PUSH1 0x20 ADD SWAP1 DUP2 MSTORE PUSH1 0x20 ADD PUSH1 0x0 KECCAK256 PUSH1 0x2 ADD DUP2 SWAP1 SSTORE POP PUSH1 0x0 JUMPDEST DUP4 DUP2 LT ISZERO PUSH2 0x924 JUMPI PUSH1 0x3 PUSH1 0x0 DUP4 DUP2 MSTORE PUSH1 0x20 ADD SWAP1 DUP2 MSTORE PUSH1 0x20 ADD PUSH1 0x0 KECCAK256 PUSH1 0x4 ADD PUSH2 0x8B4 DUP7 DUP4 PUSH2 0x3B6 JUMP JUMPDEST SWAP1 DUP1 PUSH1 0x1 DUP2 SLOAD ADD DUP1 DUP3 SSTORE DUP1 SWAP2 POP POP PUSH1 0x1 SWAP1 SUB SWAP1 PUSH1 0x0 MSTORE PUSH1 0x20 PUSH1 0x0 KECCAK256 SWAP1 PUSH1 0x5 MUL ADD PUSH1 0x0 SWAP1 SWAP2 SWAP1 SWAP2 SWAP1 SWAP2 POP PUSH1 0x0 DUP3 ADD MLOAD DUP2 PUSH1 0x0 ADD SSTORE PUSH1 0x20 DUP3 ADD MLOAD DUP2 PUSH1 0x1 ADD SSTORE PUSH1 0x40 DUP3 ADD MLOAD DUP2 PUSH1 0x2 ADD SSTORE PUSH1 0x60 DUP3 ADD MLOAD DUP2 PUSH1 0x3 ADD SSTORE PUSH1 0x80 DUP3 ADD MLOAD DUP2 PUSH1 0x4 ADD SSTORE POP POP DUP1 DUP1 PUSH2 0x91C SWAP1 PUSH2 0x170F JUMP JUMPDEST SWAP2 POP POP PUSH2 0x88C JUMP JUMPDEST POP DUP1 SWAP2 POP POP SWAP4 SWAP3 POP POP POP JUMP JUMPDEST PUSH1 0x3 PUSH1 0x20 MSTORE DUP1 PUSH1 0x0 MSTORE PUSH1 0x40 PUSH1 0x0 KECCAK256 PUSH1 0x0 SWAP2 POP SWAP1 POP DUP1 PUSH1 0x0 ADD PUSH1 0x0 SWAP1 SLOAD SWAP1 PUSH2 0x100 EXP SWAP1 DIV PUSH20 0xFFFFFFFFFFFFFFFFFFFFFFFFFFFFFFFFFFFFFFFF AND SWAP1 DUP1 PUSH1 0x1 ADD SLOAD SWAP1 DUP1 PUSH1 0x2 ADD SLOAD SWAP1 POP DUP4 JUMP JUMPDEST PUSH1 0x0 DUP1 PUSH1 0x3 PUSH1 0x0 DUP6 DUP2 MSTORE PUSH1 0x20 ADD SWAP1 DUP2 MSTORE PUSH1 0x20 ADD PUSH1 0x0 KECCAK256 PUSH1 0x4 ADD DUP4 DUP2 SLOAD DUP2 LT PUSH2 0x9A5 JUMPI PUSH2 0x9A4 PUSH2 0x16B1 JUMP JUMPDEST JUMPDEST SWAP1 PUSH1 0x0 MSTORE PUSH1 0x20 PUSH1 0x0 KECCAK256 SWAP1 PUSH1 0x5 MUL ADD PUSH1 0x4 ADD SLOAD SWAP1 POP PUSH1 0x0 JUMPDEST PUSH1 0x3 PUSH1 0x0 DUP7 DUP2 MSTORE PUSH1 0x20 ADD SWAP1 DUP2 MSTORE PUSH1 0x20 ADD PUSH1 0x0 KECCAK256 PUSH1 0x1 ADD SLOAD DUP2 LT ISZERO PUSH2 0x9FF JUMPI PUSH1 0x1 DUP1 DUP3 DUP5 SWAP1 SHR AND EQ PUSH2 0x9EC JUMPI PUSH1 0x0 DUP1 REVERT JUMPDEST DUP1 DUP1 PUSH2 0x9F7 SWAP1 PUSH2 0x170F JUMP JUMPDEST SWAP2 POP POP PUSH2 0x9BC JUMP JUMPDEST POP PUSH2 0xB82 PUSH1 0x3 PUSH1 0x0 DUP7 DUP2 MSTORE PUSH1 0x20 ADD SWAP1 DUP2 MSTORE PUSH1 0x20 ADD PUSH1 0x0 KECCAK256 PUSH1 0x3 ADD DUP1 SLOAD DUP1 PUSH1 0x20 MUL PUSH1 0x20 ADD PUSH1 0x40 MLOAD SWAP1 DUP2 ADD PUSH1 0x40 MSTORE DUP1 SWAP3 SWAP2 SWAP1 DUP2 DUP2 MSTORE PUSH1 0x20 ADD PUSH1 0x0 SWAP1 JUMPDEST DUP3 DUP3 LT ISZERO PUSH2 0xB06 JUMPI DUP4 DUP3 SWAP1 PUSH1 0x0 MSTORE PUSH1 0x20 PUSH1 0x0 KECCAK256 SWAP1 PUSH1 0x3 MUL ADD PUSH1 0x40 MLOAD DUP1 PUSH1 0x40 ADD PUSH1 0x40 MSTORE SWAP1 DUP2 PUSH1 0x0 DUP3 ADD PUSH1 0x0 SWAP1 SLOAD SWAP1 PUSH2 0x100 EXP SWAP1 DIV PUSH20 0xFFFFFFFFFFFFFFFFFFFFFFFFFFFFFFFFFFFFFFFF AND PUSH20 0xFFFFFFFFFFFFFFFFFFFFFFFFFFFFFFFFFFFFFFFF AND PUSH20 0xFFFFFFFFFFFFFFFFFFFFFFFFFFFFFFFFFFFFFFFF AND DUP2 MSTORE PUSH1 0x20 ADD PUSH1 0x1 DUP3 ADD PUSH1 0x2 DUP1 PUSH1 0x20 MUL PUSH1 0x40 MLOAD SWAP1 DUP2 ADD PUSH1 0x40 MSTORE DUP1 SWAP3 SWAP2 SWAP1 DUP3 PUSH1 0x2 DUP1 ISZERO PUSH2 0xAEE JUMPI PUSH1 0x20 MUL DUP3 ADD SWAP2 JUMPDEST DUP2 SLOAD DUP2 MSTORE PUSH1 0x20 ADD SWAP1 PUSH1 0x1 ADD SWAP1 DUP1 DUP4 GT PUSH2 0xADA JUMPI JUMPDEST POP POP POP POP POP DUP2 MSTORE POP POP DUP2 MSTORE PUSH1 0x20 ADD SWAP1 PUSH1 0x1 ADD SWAP1 PUSH2 0xA39 JUMP JUMPDEST POP POP POP POP PUSH1 0x3 PUSH1 0x0 DUP8 DUP2 MSTORE PUSH1 0x20 ADD SWAP1 DUP2 MSTORE PUSH1 0x20 ADD PUSH1 0x0 KECCAK256 PUSH1 0x4 ADD DUP6 DUP2 SLOAD DUP2 LT PUSH2 0xB32 JUMPI PUSH2 0xB31 PUSH2 0x16B1 JUMP JUMPDEST JUMPDEST SWAP1 PUSH1 0x0 MSTORE PUSH1 0x20 PUSH1 0x0 KECCAK256 SWAP1 PUSH1 0x5 MUL ADD PUSH1 0x40 MLOAD DUP1 PUSH1 0xA0 ADD PUSH1 0x40 MSTORE SWAP1 DUP2 PUSH1 0x0 DUP3 ADD SLOAD DUP2 MSTORE PUSH1 0x20 ADD PUSH1 0x1 DUP3 ADD SLOAD DUP2 MSTORE PUSH1 0x20 ADD PUSH1 0x2 DUP3 ADD SLOAD DUP2 MSTORE PUSH1 0x20 ADD PUSH1 0x3 DUP3 ADD SLOAD DUP2 MSTORE PUSH1 0x20 ADD PUSH1 0x4 DUP3 ADD SLOAD DUP2 MSTORE POP POP PUSH2 0x3CE JUMP JUMPDEST SWAP2 POP POP SWAP3 SWAP2 POP POP JUMP JUMPDEST PUSH1 0x2 SLOAD DUP2 JUMP JUMPDEST PUSH1 0x1 PUSH1 0x0 SWAP1 SLOAD SWAP1 PUSH2 0x100 EXP SWAP1 DIV PUSH20 0xFFFFFFFFFFFFFFFFFFFFFFFFFFFFFFFFFFFFFFFF AND DUP2 JUMP JUMPDEST PUSH1 0x40 MLOAD DUP1 PUSH1 0xA0 ADD PUSH1 0x40 MSTORE DUP1 PUSH1 0x0 DUP2 MSTORE PUSH1 0x20 ADD PUSH1 0x0 DUP2 MSTORE PUSH1 0x20 ADD PUSH1 0x0 DUP2 MSTORE PUSH1 0x20 ADD PUSH1 0x0 DUP2 MSTORE PUSH1 0x20 ADD PUSH1 0x0 DUP2 MSTORE POP SWAP1 JUMP JUMPDEST DUP3 PUSH1 0x2 DUP2 ADD SWAP3 DUP3 ISZERO PUSH2 0xC15 JUMPI SWAP2 PUSH1 0x20 MUL DUP3 ADD JUMPDEST DUP3 DUP2 GT ISZERO PUSH2 0xC14 JUMPI DUP3 MLOAD DUP3 SSTORE SWAP2 PUSH1 0x20 ADD SWAP2 SWAP1 PUSH1 0x1 ADD SWAP1 PUSH2 0xBF9 JUMP JUMPDEST JUMPDEST POP SWAP1 POP PUSH2 0xC22 SWAP2 SWAP1 PUSH2 0xC26 JUMP JUMPDEST POP SWAP1 JUMP JUMPDEST JUMPDEST DUP1 DUP3 GT ISZERO PUSH2 0xC3F JUMPI PUSH1 0x0 DUP2 PUSH1 0x0 SWAP1 SSTORE POP PUSH1 0x1 ADD PUSH2 0xC27 JUMP JUMPDEST POP SWAP1 JUMP JUMPDEST PUSH1 0x0 PUSH1 0x40 MLOAD SWAP1 POP SWAP1 JUMP JUMPDEST PUSH1 0x0 DUP1 REVERT JUMPDEST PUSH1 0x0 DUP1 REVERT JUMPDEST PUSH1 0x0 DUP2 SWAP1 POP SWAP2 SWAP1 POP JUMP JUMPDEST PUSH2 0xC6A DUP2 PUSH2 0xC57 JUMP JUMPDEST DUP2 EQ PUSH2 0xC75 JUMPI PUSH1 0x0 DUP1 REVERT JUMPDEST POP JUMP JUMPDEST PUSH1 0x0 DUP2 CALLDATALOAD SWAP1 POP PUSH2 0xC87 DUP2 PUSH2 0xC61 JUMP JUMPDEST SWAP3 SWAP2 POP POP JUMP JUMPDEST PUSH1 0x0 DUP1 REVERT JUMPDEST PUSH1 0x0 DUP2 SWAP1 POP DUP3 PUSH1 0x20 PUSH1 0x18 MUL DUP3 ADD GT ISZERO PUSH2 0xCAE JUMPI PUSH2 0xCAD PUSH2 0xC8D JUMP JUMPDEST JUMPDEST SWAP3 SWAP2 POP POP JUMP JUMPDEST PUSH1 0x0 DUP2 SWAP1 POP DUP3 PUSH1 0x20 PUSH1 0x12 MUL DUP3 ADD GT ISZERO PUSH2 0xCD0 JUMPI PUSH2 0xCCF PUSH2 0xC8D JUMP JUMPDEST JUMPDEST SWAP3 SWAP2 POP POP JUMP JUMPDEST PUSH1 0x0 DUP1 PUSH1 0x0 PUSH2 0x560 DUP5 DUP7 SUB SLT ISZERO PUSH2 0xCF0 JUMPI PUSH2 0xCEF PUSH2 0xC4D JUMP JUMPDEST JUMPDEST PUSH1 0x0 PUSH2 0xCFE DUP7 DUP3 DUP8 ADD PUSH2 0xC78 JUMP JUMPDEST SWAP4 POP POP PUSH1 0x20 PUSH2 0xD0F DUP7 DUP3 DUP8 ADD PUSH2 0xC92 JUMP JUMPDEST SWAP3 POP POP PUSH2 0x320 PUSH2 0xD21 DUP7 DUP3 DUP8 ADD PUSH2 0xCB4 JUMP JUMPDEST SWAP2 POP POP SWAP3 POP SWAP3 POP SWAP3 JUMP JUMPDEST PUSH1 0x0 DUP2 ISZERO ISZERO SWAP1 POP SWAP2 SWAP1 POP JUMP JUMPDEST PUSH2 0xD40 DUP2 PUSH2 0xD2B JUMP JUMPDEST DUP3 MSTORE POP POP JUMP JUMPDEST PUSH1 0x0 PUSH1 0x20 DUP3 ADD SWAP1 POP PUSH2 0xD5B PUSH1 0x0 DUP4 ADD DUP5 PUSH2 0xD37 JUMP JUMPDEST SWAP3 SWAP2 POP POP JUMP JUMPDEST PUSH1 0x0 DUP1 REVERT JUMPDEST PUSH1 0x0 PUSH1 0x1F NOT PUSH1 0x1F DUP4 ADD AND SWAP1 POP SWAP2 SWAP1 POP JUMP JUMPDEST PUSH32 0x4E487B7100000000000000000000000000000000000000000000000000000000 PUSH1 0x0 MSTORE PUSH1 0x41 PUSH1 0x4 MSTORE PUSH1 0x24 PUSH1 0x0 REVERT JUMPDEST PUSH2 0xDAF DUP3 PUSH2 0xD66 JUMP JUMPDEST DUP2 ADD DUP2 DUP2 LT PUSH8 0xFFFFFFFFFFFFFFFF DUP3 GT OR ISZERO PUSH2 0xDCE JUMPI PUSH2 0xDCD PUSH2 0xD77 JUMP JUMPDEST JUMPDEST DUP1 PUSH1 0x40 MSTORE POP POP POP JUMP JUMPDEST PUSH1 0x0 PUSH2 0xDE1 PUSH2 0xC43 JUMP JUMPDEST SWAP1 POP PUSH2 0xDED DUP3 DUP3 PUSH2 0xDA6 JUMP JUMPDEST SWAP2 SWAP1 POP JUMP JUMPDEST PUSH1 0x0 PUSH8 0xFFFFFFFFFFFFFFFF DUP3 GT ISZERO PUSH2 0xE0D JUMPI PUSH2 0xE0C PUSH2 0xD77 JUMP JUMPDEST JUMPDEST PUSH1 0x20 DUP3 MUL SWAP1 POP PUSH1 0x20 DUP2 ADD SWAP1 POP SWAP2 SWAP1 POP JUMP JUMPDEST PUSH1 0x0 DUP1 REVERT JUMPDEST PUSH1 0x0 PUSH20 0xFFFFFFFFFFFFFFFFFFFFFFFFFFFFFFFFFFFFFFFF DUP3 AND SWAP1 POP SWAP2 SWAP1 POP JUMP JUMPDEST PUSH1 0x0 PUSH2 0xE4E DUP3 PUSH2 0xE23 JUMP JUMPDEST SWAP1 POP SWAP2 SWAP1 POP JUMP JUMPDEST PUSH2 0xE5E DUP2 PUSH2 0xE43 JUMP JUMPDEST DUP2 EQ PUSH2 0xE69 JUMPI PUSH1 0x0 DUP1 REVERT JUMPDEST POP JUMP JUMPDEST PUSH1 0x0 DUP2 CALLDATALOAD SWAP1 POP PUSH2 0xE7B DUP2 PUSH2 0xE55 JUMP JUMPDEST SWAP3 SWAP2 POP POP JUMP JUMPDEST PUSH1 0x0 PUSH8 0xFFFFFFFFFFFFFFFF DUP3 GT ISZERO PUSH2 0xE9C JUMPI PUSH2 0xE9B PUSH2 0xD77 JUMP JUMPDEST JUMPDEST PUSH1 0x20 DUP3 MUL SWAP1 POP SWAP2 SWAP1 POP JUMP JUMPDEST PUSH1 0x0 PUSH2 0xEBA PUSH2 0xEB5 DUP5 PUSH2 0xE81 JUMP JUMPDEST PUSH2 0xDD7 JUMP JUMPDEST SWAP1 POP DUP1 PUSH1 0x20 DUP5 MUL DUP4 ADD DUP6 DUP2 GT ISZERO PUSH2 0xED4 JUMPI PUSH2 0xED3 PUSH2 0xC8D JUMP JUMPDEST JUMPDEST DUP4 JUMPDEST DUP2 DUP2 LT ISZERO PUSH2 0xEFD JUMPI DUP1 PUSH2 0xEE9 DUP9 DUP3 PUSH2 0xC78 JUMP JUMPDEST DUP5 MSTORE PUSH1 0x20 DUP5 ADD SWAP4 POP POP PUSH1 0x20 DUP2 ADD SWAP1 POP PUSH2 0xED6 JUMP JUMPDEST POP POP POP SWAP4 SWAP3 POP POP POP JUMP JUMPDEST PUSH1 0x0 DUP3 PUSH1 0x1F DUP4 ADD SLT PUSH2 0xF1C JUMPI PUSH2 0xF1B PUSH2 0xD61 JUMP JUMPDEST JUMPDEST PUSH1 0x2 PUSH2 0xF29 DUP5 DUP3 DUP6 PUSH2 0xEA7 JUMP JUMPDEST SWAP2 POP POP SWAP3 SWAP2 POP POP JUMP JUMPDEST PUSH1 0x0 PUSH1 0x60 DUP3 DUP5 SUB SLT ISZERO PUSH2 0xF48 JUMPI PUSH2 0xF47 PUSH2 0xE1E JUMP JUMPDEST JUMPDEST PUSH2 0xF52 PUSH1 0x40 PUSH2 0xDD7 JUMP JUMPDEST SWAP1 POP PUSH1 0x0 PUSH2 0xF62 DUP5 DUP3 DUP6 ADD PUSH2 0xE6C JUMP JUMPDEST PUSH1 0x0 DUP4 ADD MSTORE POP PUSH1 0x20 PUSH2 0xF76 DUP5 DUP3 DUP6 ADD PUSH2 0xF07 JUMP JUMPDEST PUSH1 0x20 DUP4 ADD MSTORE POP SWAP3 SWAP2 POP POP JUMP JUMPDEST PUSH1 0x0 PUSH2 0xF95 PUSH2 0xF90 DUP5 PUSH2 0xDF2 JUMP JUMPDEST PUSH2 0xDD7 JUMP JUMPDEST SWAP1 POP DUP1 DUP4 DUP3 MSTORE PUSH1 0x20 DUP3 ADD SWAP1 POP PUSH1 0x60 DUP5 MUL DUP4 ADD DUP6 DUP2 GT ISZERO PUSH2 0xFB8 JUMPI PUSH2 0xFB7 PUSH2 0xC8D JUMP JUMPDEST JUMPDEST DUP4 JUMPDEST DUP2 DUP2 LT ISZERO PUSH2 0xFE1 JUMPI DUP1 PUSH2 0xFCD DUP9 DUP3 PUSH2 0xF32 JUMP JUMPDEST DUP5 MSTORE PUSH1 0x20 DUP5 ADD SWAP4 POP POP PUSH1 0x60 DUP2 ADD SWAP1 POP PUSH2 0xFBA JUMP JUMPDEST POP POP POP SWAP4 SWAP3 POP POP POP JUMP JUMPDEST PUSH1 0x0 DUP3 PUSH1 0x1F DUP4 ADD SLT PUSH2 0x1000 JUMPI PUSH2 0xFFF PUSH2 0xD61 JUMP JUMPDEST JUMPDEST DUP2 CALLDATALOAD PUSH2 0x1010 DUP5 DUP3 PUSH1 0x20 DUP7 ADD PUSH2 0xF82 JUMP JUMPDEST SWAP2 POP POP SWAP3 SWAP2 POP POP JUMP JUMPDEST PUSH1 0x0 DUP1 PUSH1 0x40 DUP4 DUP6 SUB SLT ISZERO PUSH2 0x1030 JUMPI PUSH2 0x102F PUSH2 0xC4D JUMP JUMPDEST JUMPDEST PUSH1 0x0 DUP4 ADD CALLDATALOAD PUSH8 0xFFFFFFFFFFFFFFFF DUP2 GT ISZERO PUSH2 0x104E JUMPI PUSH2 0x104D PUSH2 0xC52 JUMP JUMPDEST JUMPDEST PUSH2 0x105A DUP6 DUP3 DUP7 ADD PUSH2 0xFEB JUMP JUMPDEST SWAP3 POP POP PUSH1 0x20 PUSH2 0x106B DUP6 DUP3 DUP7 ADD PUSH2 0xC78 JUMP JUMPDEST SWAP2 POP POP SWAP3 POP SWAP3 SWAP1 POP JUMP JUMPDEST PUSH2 0x107E DUP2 PUSH2 0xC57 JUMP JUMPDEST DUP3 MSTORE POP POP JUMP JUMPDEST PUSH1 0xA0 DUP3 ADD PUSH1 0x0 DUP3 ADD MLOAD PUSH2 0x109A PUSH1 0x0 DUP6 ADD DUP3 PUSH2 0x1075 JUMP JUMPDEST POP PUSH1 0x20 DUP3 ADD MLOAD PUSH2 0x10AD PUSH1 0x20 DUP6 ADD DUP3 PUSH2 0x1075 JUMP JUMPDEST POP PUSH1 0x40 DUP3 ADD MLOAD PUSH2 0x10C0 PUSH1 0x40 DUP6 ADD DUP3 PUSH2 0x1075 JUMP JUMPDEST POP PUSH1 0x60 DUP3 ADD MLOAD PUSH2 0x10D3 PUSH1 0x60 DUP6 ADD DUP3 PUSH2 0x1075 JUMP JUMPDEST POP PUSH1 0x80 DUP3 ADD MLOAD PUSH2 0x10E6 PUSH1 0x80 DUP6 ADD DUP3 PUSH2 0x1075 JUMP JUMPDEST POP POP POP POP JUMP JUMPDEST PUSH1 0x0 PUSH1 0xA0 DUP3 ADD SWAP1 POP PUSH2 0x1101 PUSH1 0x0 DUP4 ADD DUP5 PUSH2 0x1084 JUMP JUMPDEST SWAP3 SWAP2 POP POP JUMP JUMPDEST PUSH1 0x0 PUSH1 0xA0 DUP3 DUP5 SUB SLT ISZERO PUSH2 0x111D JUMPI PUSH2 0x111C PUSH2 0xE1E JUMP JUMPDEST JUMPDEST PUSH2 0x1127 PUSH1 0xA0 PUSH2 0xDD7 JUMP JUMPDEST SWAP1 POP PUSH1 0x0 PUSH2 0x1137 DUP5 DUP3 DUP6 ADD PUSH2 0xC78 JUMP JUMPDEST PUSH1 0x0 DUP4 ADD MSTORE POP PUSH1 0x20 PUSH2 0x114B DUP5 DUP3 DUP6 ADD PUSH2 0xC78 JUMP JUMPDEST PUSH1 0x20 DUP4 ADD MSTORE POP PUSH1 0x40 PUSH2 0x115F DUP5 DUP3 DUP6 ADD PUSH2 0xC78 JUMP JUMPDEST PUSH1 0x40 DUP4 ADD MSTORE POP PUSH1 0x60 PUSH2 0x1173 DUP5 DUP3 DUP6 ADD PUSH2 0xC78 JUMP JUMPDEST PUSH1 0x60 DUP4 ADD MSTORE POP PUSH1 0x80 PUSH2 0x1187 DUP5 DUP3 DUP6 ADD PUSH2 0xC78 JUMP JUMPDEST PUSH1 0x80 DUP4 ADD MSTORE POP SWAP3 SWAP2 POP POP JUMP JUMPDEST PUSH1 0x0 DUP1 PUSH1 0xC0 DUP4 DUP6 SUB SLT ISZERO PUSH2 0x11AA JUMPI PUSH2 0x11A9 PUSH2 0xC4D JUMP JUMPDEST JUMPDEST PUSH1 0x0 DUP4 ADD CALLDATALOAD PUSH8 0xFFFFFFFFFFFFFFFF DUP2 GT ISZERO PUSH2 0x11C8 JUMPI PUSH2 0x11C7 PUSH2 0xC52 JUMP JUMPDEST JUMPDEST PUSH2 0x11D4 DUP6 DUP3 DUP7 ADD PUSH2 0xFEB JUMP JUMPDEST SWAP3 POP POP PUSH1 0x20 PUSH2 0x11E5 DUP6 DUP3 DUP7 ADD PUSH2 0x1107 JUMP JUMPDEST SWAP2 POP POP SWAP3 POP SWAP3 SWAP1 POP JUMP JUMPDEST PUSH2 0x11F8 DUP2 PUSH2 0xC57 JUMP JUMPDEST DUP3 MSTORE POP POP JUMP JUMPDEST PUSH1 0x0 PUSH1 0x20 DUP3 ADD SWAP1 POP PUSH2 0x1213 PUSH1 0x0 DUP4 ADD DUP5 PUSH2 0x11EF JUMP JUMPDEST SWAP3 SWAP2 POP POP JUMP JUMPDEST PUSH1 0x0 DUP2 SWAP1 POP DUP3 PUSH1 0x20 PUSH1 0x2 MUL DUP3 ADD GT ISZERO PUSH2 0x1235 JUMPI PUSH2 0x1234 PUSH2 0xC8D JUMP JUMPDEST JUMPDEST SWAP3 SWAP2 POP POP JUMP JUMPDEST PUSH1 0x0 DUP1 PUSH2 0x340 DUP4 DUP6 SUB SLT ISZERO PUSH2 0x1253 JUMPI PUSH2 0x1252 PUSH2 0xC4D JUMP JUMPDEST JUMPDEST PUSH1 0x0 PUSH2 0x1261 DUP6 DUP3 DUP7 ADD PUSH2 0xC92 JUMP JUMPDEST SWAP3 POP POP PUSH2 0x300 PUSH2 0x1273 DUP6 DUP3 DUP7 ADD PUSH2 0x1219 JUMP JUMPDEST SWAP2 POP POP SWAP3 POP SWAP3 SWAP1 POP JUMP JUMPDEST PUSH1 0x0 DUP2 SWAP1 POP SWAP2 SWAP1 POP JUMP JUMPDEST PUSH1 0x0 PUSH2 0x12A2 PUSH2 0x129D PUSH2 0x1298 DUP5 PUSH2 0xE23 JUMP JUMPDEST PUSH2 0x127D JUMP JUMPDEST PUSH2 0xE23 JUMP JUMPDEST SWAP1 POP SWAP2 SWAP1 POP JUMP JUMPDEST PUSH1 0x0 PUSH2 0x12B4 DUP3 PUSH2 0x1287 JUMP JUMPDEST SWAP1 POP SWAP2 SWAP1 POP JUMP JUMPDEST PUSH1 0x0 PUSH2 0x12C6 DUP3 PUSH2 0x12A9 JUMP JUMPDEST SWAP1 POP SWAP2 SWAP1 POP JUMP JUMPDEST PUSH2 0x12D6 DUP2 PUSH2 0x12BB JUMP JUMPDEST DUP3 MSTORE POP POP JUMP JUMPDEST PUSH1 0x0 PUSH1 0x20 DUP3 ADD SWAP1 POP PUSH2 0x12F1 PUSH1 0x0 DUP4 ADD DUP5 PUSH2 0x12CD JUMP JUMPDEST SWAP3 SWAP2 POP POP JUMP JUMPDEST PUSH1 0x0 DUP1 PUSH1 0x0 PUSH1 0x60 DUP5 DUP7 SUB SLT ISZERO PUSH2 0x1310 JUMPI PUSH2 0x130F PUSH2 0xC4D JUMP JUMPDEST JUMPDEST PUSH1 0x0 PUSH2 0x131E DUP7 DUP3 DUP8 ADD PUSH2 0xC78 JUMP JUMPDEST SWAP4 POP POP PUSH1 0x20 PUSH2 0x132F DUP7 DUP3 DUP8 ADD PUSH2 0xC78 JUMP JUMPDEST SWAP3 POP POP PUSH1 0x40 PUSH2 0x1340 DUP7 DUP3 DUP8 ADD PUSH2 0xC78 JUMP JUMPDEST SWAP2 POP POP SWAP3 POP SWAP3 POP SWAP3 JUMP JUMPDEST PUSH1 0x0 PUSH8 0xFFFFFFFFFFFFFFFF DUP3 GT ISZERO PUSH2 0x1365 JUMPI PUSH2 0x1364 PUSH2 0xD77 JUMP JUMPDEST JUMPDEST PUSH1 0x20 DUP3 MUL SWAP1 POP PUSH1 0x20 DUP2 ADD SWAP1 POP SWAP2 SWAP1 POP JUMP JUMPDEST PUSH1 0x0 PUSH2 0x1389 PUSH2 0x1384 DUP5 PUSH2 0x134A JUMP JUMPDEST PUSH2 0xDD7 JUMP JUMPDEST SWAP1 POP DUP1 DUP4 DUP3 MSTORE PUSH1 0x20 DUP3 ADD SWAP1 POP PUSH1 0xA0 DUP5 MUL DUP4 ADD DUP6 DUP2 GT ISZERO PUSH2 0x13AC JUMPI PUSH2 0x13AB PUSH2 0xC8D JUMP JUMPDEST JUMPDEST DUP4 JUMPDEST DUP2 DUP2 LT ISZERO PUSH2 0x13D5 JUMPI DUP1 PUSH2 0x13C1 DUP9 DUP3 PUSH2 0x1107 JUMP JUMPDEST DUP5 MSTORE PUSH1 0x20 DUP5 ADD SWAP4 POP POP PUSH1 0xA0 DUP2 ADD SWAP1 POP PUSH2 0x13AE JUMP JUMPDEST POP POP POP SWAP4 SWAP3 POP POP POP JUMP JUMPDEST PUSH1 0x0 DUP3 PUSH1 0x1F DUP4 ADD SLT PUSH2 0x13F4 JUMPI PUSH2 0x13F3 PUSH2 0xD61 JUMP JUMPDEST JUMPDEST DUP2 CALLDATALOAD PUSH2 0x1404 DUP5 DUP3 PUSH1 0x20 DUP7 ADD PUSH2 0x1376 JUMP JUMPDEST SWAP2 POP POP SWAP3 SWAP2 POP POP JUMP JUMPDEST PUSH1 0x0 DUP1 PUSH1 0x40 DUP4 DUP6 SUB SLT ISZERO PUSH2 0x1424 JUMPI PUSH2 0x1423 PUSH2 0xC4D JUMP JUMPDEST JUMPDEST PUSH1 0x0 PUSH2 0x1432 DUP6 DUP3 DUP7 ADD PUSH2 0xC78 JUMP JUMPDEST SWAP3 POP POP PUSH1 0x20 DUP4 ADD CALLDATALOAD PUSH8 0xFFFFFFFFFFFFFFFF DUP2 GT ISZERO PUSH2 0x1453 JUMPI PUSH2 0x1452 PUSH2 0xC52 JUMP JUMPDEST JUMPDEST PUSH2 0x145F DUP6 DUP3 DUP7 ADD PUSH2 0x13DF JUMP JUMPDEST SWAP2 POP POP SWAP3 POP SWAP3 SWAP1 POP JUMP JUMPDEST PUSH1 0x0 DUP1 PUSH1 0x0 PUSH1 0x60 DUP5 DUP7 SUB SLT ISZERO PUSH2 0x1482 JUMPI PUSH2 0x1481 PUSH2 0xC4D JUMP JUMPDEST JUMPDEST PUSH1 0x0 PUSH2 0x1490 DUP7 DUP3 DUP8 ADD PUSH2 0xE6C JUMP JUMPDEST SWAP4 POP POP PUSH1 0x20 DUP5 ADD CALLDATALOAD PUSH8 0xFFFFFFFFFFFFFFFF DUP2 GT ISZERO PUSH2 0x14B1 JUMPI PUSH2 0x14B0 PUSH2 0xC52 JUMP JUMPDEST JUMPDEST PUSH2 0x14BD DUP7 DUP3 DUP8 ADD PUSH2 0xFEB JUMP JUMPDEST SWAP3 POP POP PUSH1 0x40 PUSH2 0x14CE DUP7 DUP3 DUP8 ADD PUSH2 0xC78 JUMP JUMPDEST SWAP2 POP POP SWAP3 POP SWAP3 POP SWAP3 JUMP JUMPDEST PUSH1 0x0 PUSH1 0x20 DUP3 DUP5 SUB SLT ISZERO PUSH2 0x14EE JUMPI PUSH2 0x14ED PUSH2 0xC4D JUMP JUMPDEST JUMPDEST PUSH1 0x0 PUSH2 0x14FC DUP5 DUP3 DUP6 ADD PUSH2 0xC78 JUMP JUMPDEST SWAP2 POP POP SWAP3 SWAP2 POP POP JUMP JUMPDEST PUSH2 0x150E DUP2 PUSH2 0xE43 JUMP JUMPDEST DUP3 MSTORE POP POP JUMP JUMPDEST PUSH1 0x0 PUSH1 0x60 DUP3 ADD SWAP1 POP PUSH2 0x1529 PUSH1 0x0 DUP4 ADD DUP7 PUSH2 0x1505 JUMP JUMPDEST PUSH2 0x1536 PUSH1 0x20 DUP4 ADD DUP6 PUSH2 0x11EF JUMP JUMPDEST PUSH2 0x1543 PUSH1 0x40 DUP4 ADD DUP5 PUSH2 0x11EF JUMP JUMPDEST SWAP5 SWAP4 POP POP POP POP JUMP JUMPDEST PUSH1 0x0 DUP1 PUSH1 0x40 DUP4 DUP6 SUB SLT ISZERO PUSH2 0x1562 JUMPI PUSH2 0x1561 PUSH2 0xC4D JUMP JUMPDEST JUMPDEST PUSH1 0x0 PUSH2 0x1570 DUP6 DUP3 DUP7 ADD PUSH2 0xC78 JUMP JUMPDEST SWAP3 POP POP PUSH1 0x20 PUSH2 0x1581 DUP6 DUP3 DUP7 ADD PUSH2 0xC78 JUMP JUMPDEST SWAP2 POP POP SWAP3 POP SWAP3 SWAP1 POP JUMP JUMPDEST PUSH1 0x0 PUSH2 0x1596 DUP3 PUSH2 0x12A9 JUMP JUMPDEST SWAP1 POP SWAP2 SWAP1 POP JUMP JUMPDEST PUSH2 0x15A6 DUP2 PUSH2 0x158B JUMP JUMPDEST DUP3 MSTORE POP POP JUMP JUMPDEST PUSH1 0x0 PUSH1 0x20 DUP3 ADD SWAP1 POP PUSH2 0x15C1 PUSH1 0x0 DUP4 ADD DUP5 PUSH2 0x159D JUMP JUMPDEST SWAP3 SWAP2 POP POP JUMP JUMPDEST DUP3 DUP2 DUP4 CALLDATACOPY POP POP POP JUMP JUMPDEST PUSH2 0x15DD PUSH2 0x300 DUP4 DUP4 PUSH2 0x15C7 JUMP JUMPDEST POP POP JUMP JUMPDEST PUSH2 0x15EE PUSH2 0x240 DUP4 DUP4 PUSH2 0x15C7 JUMP JUMPDEST POP POP JUMP JUMPDEST PUSH1 0x0 PUSH2 0x540 DUP3 ADD SWAP1 POP PUSH2 0x1608 PUSH1 0x0 DUP4 ADD DUP6 PUSH2 0x15D0 JUMP JUMPDEST PUSH2 0x1616 PUSH2 0x300 DUP4 ADD DUP5 PUSH2 0x15E1 JUMP JUMPDEST SWAP4 SWAP3 POP POP POP JUMP JUMPDEST PUSH2 0x1626 DUP2 PUSH2 0xD2B JUMP JUMPDEST DUP2 EQ PUSH2 0x1631 JUMPI PUSH1 0x0 DUP1 REVERT JUMPDEST POP JUMP JUMPDEST PUSH1 0x0 DUP2 MLOAD SWAP1 POP PUSH2 0x1643 DUP2 PUSH2 0x161D JUMP JUMPDEST SWAP3 SWAP2 POP POP JUMP JUMPDEST PUSH1 0x0 PUSH1 0x20 DUP3 DUP5 SUB SLT ISZERO PUSH2 0x165F JUMPI PUSH2 0x165E PUSH2 0xC4D JUMP JUMPDEST JUMPDEST PUSH1 0x0 PUSH2 0x166D DUP5 DUP3 DUP6 ADD PUSH2 0x1634 JUMP JUMPDEST SWAP2 POP POP SWAP3 SWAP2 POP POP JUMP JUMPDEST PUSH2 0x1682 PUSH1 0x40 DUP4 DUP4 PUSH2 0x15C7 JUMP JUMPDEST POP POP JUMP JUMPDEST PUSH1 0x0 PUSH2 0x340 DUP3 ADD SWAP1 POP PUSH2 0x169C PUSH1 0x0 DUP4 ADD DUP6 PUSH2 0x15D0 JUMP JUMPDEST PUSH2 0x16AA PUSH2 0x300 DUP4 ADD DUP5 PUSH2 0x1676 JUMP JUMPDEST SWAP4 SWAP3 POP POP POP JUMP JUMPDEST PUSH32 0x4E487B7100000000000000000000000000000000000000000000000000000000 PUSH1 0x0 MSTORE PUSH1 0x32 PUSH1 0x4 MSTORE PUSH1 0x24 PUSH1 0x0 REVERT JUMPDEST PUSH32 0x4E487B7100000000000000000000000000000000000000000000000000000000 PUSH1 0x0 MSTORE PUSH1 0x11 PUSH1 0x4 MSTORE PUSH1 0x24 PUSH1 0x0 REVERT JUMPDEST PUSH1 0x0 PUSH2 0x171A DUP3 PUSH2 0xC57 JUMP JUMPDEST SWAP2 POP PUSH32 0xFFFFFFFFFFFFFFFFFFFFFFFFFFFFFFFFFFFFFFFFFFFFFFFFFFFFFFFFFFFFFFFF DUP3 SUB PUSH2 0x174C JUMPI PUSH2 0x174B PUSH2 0x16E0 JUMP JUMPDEST JUMPDEST PUSH1 0x1 DUP3 ADD SWAP1 POP SWAP2 SWAP1 POP JUMP INVALID LOG2 PUSH5 0x6970667358 0x22 SLT KECCAK256 0xC1 0xCD PUSH16 0x18FC5411681C5DBB5DA72A5F07FB3165 DUP2 SWAP9 CODECOPY PUSH27 0x6701F0F1FB52E097C864736F6C6343000812003300000000000000 "},"methodIdentifiers":{"createShuffledDeckVerifier()":"fd15a0de","create_deck(address,(address,uint256[2])[],uint256)":"88e18cdc","create_shuffled_deck(uint256,uint256[24],uint256[18])":"1314b545","deck_count()":"ddc7cdf9","decks(uint256)":"a090195d","decode_card((address,uint256[2])[],(uint256,uint256,uint256,uint256,uint256))":"4b3efeac","decrypt_card(uint256,uint256,uint256)":"778ad707","encode_card((address,uint256[2])[],uint256)":"1bb8f488","keyGenerationVerifier()":"5906106e","open_card(uint256,uint256)":"abeeeac0","shuffle_deck(uint256,(uint256,uint256,uint256,uint256,uint256)[])":"87c4267c","verify_public_key(uint256[24],uint256[2])":"53c37af7"}}}}}