{"contracts/create_shuffled_deck/verifier.sol":{"CreateShuffledDeckVerifier":{"abi":[{"inputs":[{"internalType":"uint256[24]","name":"_proof","type":"uint256[24]"},{"internalType":"uint256[18]","name":"_pubSignals","type":"uint256[18]"}],"name":"verifyProof","outputs":[{"internalType":"bool","name":"","type":"bool"}],"stateMutability":"view","type":"function"}],"evm":{"bytecode":{"linkReferences":{},"object":"608060405234801561001057600080fd5b506135aa806100206000396000f3fe608060405234801561001057600080fd5b506004361061002b5760003560e01c80632e05aefd14610030575b600080fd5b61004a600480360381019061004591906134fc565b610060565b6040516100579190613559565b60405180910390f35b600061343f565b600080600184846000805b821561009c5782840591508482028603905084955080945082820284039050829350809250610072565b60018411156100aa57600080fd5b60008612156100b95788860195505b85965050505050505092915050565b60405181602084028301815160208301925060005b82841015610120578185527f30644e72e131a029b85045b68181585d2833e84879b9709143e1f593f00000018451830991506020850194506020840193506100dd565b61014a7f30644e72e131a029b85045b68181585d2833e84879b9709143e1f593f000000183610067565b91506020850394506020840393508592505b828411156101c6577f30644e72e131a029b85045b68181585d2833e84879b9709143e1f593f00000018551830990507f30644e72e131a029b85045b68181585d2833e84879b9709143e1f593f000000184518309915080845260208503945060208403935061015c565b81845250505050505050565b7f30644e72e131a029b85045b68181585d2833e84879b9709143e1f593f00000018110610203576000805260206000f35b50565b610212610244356101d2565b61021e610264356101d2565b61022a610284356101d2565b6102366102a4356101d2565b6102426102c4356101d2565b61024e6102e4356101d2565b565b6000806040517f21b829899df9072c9132df250a9d0148d0c12bbd0e9020f3232de8910dbd6d6e81527f174769ac974c7d4ec853715b086db4cde75ececd0fad5734fba49fe5bf303ae160208201527f0f5cb9a1d3070c0bd58f147d5572a802f7e04c821bbfa19308bb789397f4512860408201527f25d4756f3cc9f8fed8249f08d87b7db574447177f99c5311e5a9ef19e8eb3fc960608201527f190f203b4b7abc7c2d332f1c495d79f139ad7ca135b9cbe7692cbc2dc688847c60808201527f174899f136442b18989b8e6d6705fa1a1435caac3bf213dca91dc74cc963620f60a08201527f1001104438ebd97d208be74837830bfee46566af17eeaa94c96443637ba0e78760c08201527f080053494ba98b0b94e03ef9fdadc6adef42a32bb3e514cce1a822ee46c18d5b60e08201527f1ed233043906512d2e3be00ec55899e19c7d835c09316ffe06ecd50d46aa8a886101008201527f28fa8051de3bb673ac401b7ac0687491c5eb7eb0752db36620d04a367aaf3aec6101208201527f165e54fcbec2f4d21b2ec39002be5da9d8479af7a9dee8443a4bdc8d19cf36a16101408201527f098e106867b33458f88354180ac52189382888c8e3fa8c56dd7195a5c6f897906101608201527f17c8eb9b5ca5a5b93995853155627a94727e865d9d5daed9bb5c32b4c5e7a2b26101808201527f1b7b3b9bbdf404c888a0501dec16ab2481f4d4fe030f2afd16a3b05384164df26101a08201527f2faa84e5e0aeb3cc9e5d3e1bea577d70d5d828518a0cb7d271c76ba1384769ff6101c08201527f06ef8122596f21e545a0441ac990a590ca53a8965189f85e3583b10ad5c1f6a66101e08201526000850135610200820152602085013561022082015260408501356102408201526060850135610260820152608085013561028082015260a08501356102a082015260c08501356102c082015260e08501356102e08201526101008501356103008201526101208501356103208201526101408501356103408201526101608501356103608201526101808501356103808201526101a08501356103a08201526101c08501356103c08201526101e08501356103e08201526102008501356104008201526102208501356104208201526004356104408201526020600401356104608201526044356104808201526020604401356104a08201526084356104c08201526020608401356104e08201527f30644e72e131a029b85045b68181585d2833e84879b9709143e1f593f000000161050082200692508260208501527f30644e72e131a029b85045b68181585d2833e84879b9709143e1f593f0000001602080860120066040850152602084015181526040840151602082015260c4356040820152602060c4013560608201527f30644e72e131a029b85045b68181585d2833e84879b9709143e1f593f0000001608082200691508160008501527f30644e72e131a029b85045b68181585d2833e84879b9709143e1f593f00000018283096102c08501528181526101043560208201526020610104013560408201526101443560608201526020610144013560808201526101843560a08201526020610184013560c08201527f30644e72e131a029b85045b68181585d2833e84879b9709143e1f593f000000160e082200691508160608501528181526102443560208201526102643560408201526102843560608201526102a43560808201526102c43560a08201526102e43560c08201527f30644e72e131a029b85045b68181585d2833e84879b9709143e1f593f000000160e08220068060c08601527f30644e72e131a029b85045b68181585d2833e84879b9709143e1f593f000000183850960a08601527f30644e72e131a029b85045b68181585d2833e84879b9709143e1f593f000000183840992507f30644e72e131a029b85045b68181585d2833e84879b9709143e1f593f000000183840992507f30644e72e131a029b85045b68181585d2833e84879b9709143e1f593f000000183840992507f30644e72e131a029b85045b68181585d2833e84879b9709143e1f593f000000183840992507f30644e72e131a029b85045b68181585d2833e84879b9709143e1f593f000000183840992507f30644e72e131a029b85045b68181585d2833e84879b9709143e1f593f000000183840992507f30644e72e131a029b85045b68181585d2833e84879b9709143e1f593f000000183840992507f30644e72e131a029b85045b68181585d2833e84879b9709143e1f593f000000183840992507f30644e72e131a029b85045b68181585d2833e84879b9709143e1f593f000000183840992507f30644e72e131a029b85045b68181585d2833e84879b9709143e1f593f000000183840992507f30644e72e131a029b85045b68181585d2833e84879b9709143e1f593f000000183840992507f30644e72e131a029b85045b68181585d2833e84879b9709143e1f593f000000183840992507f30644e72e131a029b85045b68181585d2833e84879b9709143e1f593f000000183840992507f30644e72e131a029b85045b68181585d2833e84879b9709143e1f593f000000183840992507f30644e72e131a029b85045b68181585d2833e84879b9709143e1f593f000000183840992507f30644e72e131a029b85045b68181585d2833e84879b9709143e1f593f000000183840992507f30644e72e131a029b85045b68181585d2833e84879b9709143e1f593f000000183840992508260808601527f30644e72e131a029b85045b68181585d2833e84879b9709143e1f593f0000001806001850301069250826102e0860152826103008601527f30644e72e131a029b85045b68181585d2833e84879b9709143e1f593f000000181820992508260e08601527f30644e72e131a029b85045b68181585d2833e84879b9709143e1f593f00000018184099250826101008601527f30644e72e131a029b85045b68181585d2833e84879b9709143e1f593f00000018184099250826101208601527f30644e72e131a029b85045b68181585d2833e84879b9709143e1f593f00000018184099250826101408601526101c435825260206101c4013560208301526102043560408301526020610204013560608301527f30644e72e131a029b85045b68181585d2833e84879b9709143e1f593f00000016080832006610160860152505050505050565b60017f30644e72e131a029b85045b68181585d2833e84879b9709143e1f593f0000001807f30644e72e131a029b85045b68181585d2833e84879b9709143e1f593f000000183606086015103010662020000096103208301527f30644e72e131a029b85045b68181585d2833e84879b9709143e1f593f00000017f1bf82deba7d74902c3708cc6e70e61f30512eca95655210e276e5858ce8f58e5820990507f30644e72e131a029b85045b68181585d2833e84879b9709143e1f593f0000001807f30644e72e131a029b85045b68181585d2833e84879b9709143e1f593f000000183606086015103010662020000096103408301527f30644e72e131a029b85045b68181585d2833e84879b9709143e1f593f00000017f1bf82deba7d74902c3708cc6e70e61f30512eca95655210e276e5858ce8f58e5820990507f30644e72e131a029b85045b68181585d2833e84879b9709143e1f593f0000001807f30644e72e131a029b85045b68181585d2833e84879b9709143e1f593f000000183606086015103010662020000096103608301527f30644e72e131a029b85045b68181585d2833e84879b9709143e1f593f00000017f1bf82deba7d74902c3708cc6e70e61f30512eca95655210e276e5858ce8f58e5820990507f30644e72e131a029b85045b68181585d2833e84879b9709143e1f593f0000001807f30644e72e131a029b85045b68181585d2833e84879b9709143e1f593f000000183606086015103010662020000096103808301527f30644e72e131a029b85045b68181585d2833e84879b9709143e1f593f00000017f1bf82deba7d74902c3708cc6e70e61f30512eca95655210e276e5858ce8f58e5820990507f30644e72e131a029b85045b68181585d2833e84879b9709143e1f593f0000001807f30644e72e131a029b85045b68181585d2833e84879b9709143e1f593f000000183606086015103010662020000096103a08301527f30644e72e131a029b85045b68181585d2833e84879b9709143e1f593f00000017f1bf82deba7d74902c3708cc6e70e61f30512eca95655210e276e5858ce8f58e5820990507f30644e72e131a029b85045b68181585d2833e84879b9709143e1f593f0000001807f30644e72e131a029b85045b68181585d2833e84879b9709143e1f593f000000183606086015103010662020000096103c08301527f30644e72e131a029b85045b68181585d2833e84879b9709143e1f593f00000017f1bf82deba7d74902c3708cc6e70e61f30512eca95655210e276e5858ce8f58e5820990507f30644e72e131a029b85045b68181585d2833e84879b9709143e1f593f0000001807f30644e72e131a029b85045b68181585d2833e84879b9709143e1f593f000000183606086015103010662020000096103e08301527f30644e72e131a029b85045b68181585d2833e84879b9709143e1f593f00000017f1bf82deba7d74902c3708cc6e70e61f30512eca95655210e276e5858ce8f58e5820990507f30644e72e131a029b85045b68181585d2833e84879b9709143e1f593f0000001807f30644e72e131a029b85045b68181585d2833e84879b9709143e1f593f000000183606086015103010662020000096104008301527f30644e72e131a029b85045b68181585d2833e84879b9709143e1f593f00000017f1bf82deba7d74902c3708cc6e70e61f30512eca95655210e276e5858ce8f58e5820990507f30644e72e131a029b85045b68181585d2833e84879b9709143e1f593f0000001807f30644e72e131a029b85045b68181585d2833e84879b9709143e1f593f000000183606086015103010662020000096104208301527f30644e72e131a029b85045b68181585d2833e84879b9709143e1f593f00000017f1bf82deba7d74902c3708cc6e70e61f30512eca95655210e276e5858ce8f58e5820990507f30644e72e131a029b85045b68181585d2833e84879b9709143e1f593f0000001807f30644e72e131a029b85045b68181585d2833e84879b9709143e1f593f000000183606086015103010662020000096104408301527f30644e72e131a029b85045b68181585d2833e84879b9709143e1f593f00000017f1bf82deba7d74902c3708cc6e70e61f30512eca95655210e276e5858ce8f58e5820990507f30644e72e131a029b85045b68181585d2833e84879b9709143e1f593f0000001807f30644e72e131a029b85045b68181585d2833e84879b9709143e1f593f000000183606086015103010662020000096104608301527f30644e72e131a029b85045b68181585d2833e84879b9709143e1f593f00000017f1bf82deba7d74902c3708cc6e70e61f30512eca95655210e276e5858ce8f58e5820990507f30644e72e131a029b85045b68181585d2833e84879b9709143e1f593f0000001807f30644e72e131a029b85045b68181585d2833e84879b9709143e1f593f000000183606086015103010662020000096104808301527f30644e72e131a029b85045b68181585d2833e84879b9709143e1f593f00000017f1bf82deba7d74902c3708cc6e70e61f30512eca95655210e276e5858ce8f58e5820990507f30644e72e131a029b85045b68181585d2833e84879b9709143e1f593f0000001807f30644e72e131a029b85045b68181585d2833e84879b9709143e1f593f000000183606086015103010662020000096104a08301527f30644e72e131a029b85045b68181585d2833e84879b9709143e1f593f00000017f1bf82deba7d74902c3708cc6e70e61f30512eca95655210e276e5858ce8f58e5820990507f30644e72e131a029b85045b68181585d2833e84879b9709143e1f593f0000001807f30644e72e131a029b85045b68181585d2833e84879b9709143e1f593f000000183606086015103010662020000096104c08301527f30644e72e131a029b85045b68181585d2833e84879b9709143e1f593f00000017f1bf82deba7d74902c3708cc6e70e61f30512eca95655210e276e5858ce8f58e5820990507f30644e72e131a029b85045b68181585d2833e84879b9709143e1f593f0000001807f30644e72e131a029b85045b68181585d2833e84879b9709143e1f593f000000183606086015103010662020000096104e08301527f30644e72e131a029b85045b68181585d2833e84879b9709143e1f593f00000017f1bf82deba7d74902c3708cc6e70e61f30512eca95655210e276e5858ce8f58e5820990507f30644e72e131a029b85045b68181585d2833e84879b9709143e1f593f0000001807f30644e72e131a029b85045b68181585d2833e84879b9709143e1f593f000000183606086015103010662020000096105008301527f30644e72e131a029b85045b68181585d2833e84879b9709143e1f593f00000017f1bf82deba7d74902c3708cc6e70e61f30512eca95655210e276e5858ce8f58e5820990507f30644e72e131a029b85045b68181585d2833e84879b9709143e1f593f0000001807f30644e72e131a029b85045b68181585d2833e84879b9709143e1f593f000000183606086015103010662020000096105208301527f30644e72e131a029b85045b68181585d2833e84879b9709143e1f593f00000017f1bf82deba7d74902c3708cc6e70e61f30512eca95655210e276e5858ce8f58e5820990507f30644e72e131a029b85045b68181585d2833e84879b9709143e1f593f0000001807f30644e72e131a029b85045b68181585d2833e84879b9709143e1f593f00000018360608601510301066202000009610540830152611647601361030084016100c8565b6102e0820151600191507f30644e72e131a029b85045b68181585d2833e84879b9709143e1f593f000000181610320850151096103208401527f30644e72e131a029b85045b68181585d2833e84879b9709143e1f593f00000017f1bf82deba7d74902c3708cc6e70e61f30512eca95655210e276e5858ce8f58e5830991507f30644e72e131a029b85045b68181585d2833e84879b9709143e1f593f000000180826103408601510983096103408401527f30644e72e131a029b85045b68181585d2833e84879b9709143e1f593f00000017f1bf82deba7d74902c3708cc6e70e61f30512eca95655210e276e5858ce8f58e5830991507f30644e72e131a029b85045b68181585d2833e84879b9709143e1f593f000000180826103608601510983096103608401527f30644e72e131a029b85045b68181585d2833e84879b9709143e1f593f00000017f1bf82deba7d74902c3708cc6e70e61f30512eca95655210e276e5858ce8f58e5830991507f30644e72e131a029b85045b68181585d2833e84879b9709143e1f593f000000180826103808601510983096103808401527f30644e72e131a029b85045b68181585d2833e84879b9709143e1f593f00000017f1bf82deba7d74902c3708cc6e70e61f30512eca95655210e276e5858ce8f58e5830991507f30644e72e131a029b85045b68181585d2833e84879b9709143e1f593f000000180826103a08601510983096103a08401527f30644e72e131a029b85045b68181585d2833e84879b9709143e1f593f00000017f1bf82deba7d74902c3708cc6e70e61f30512eca95655210e276e5858ce8f58e5830991507f30644e72e131a029b85045b68181585d2833e84879b9709143e1f593f000000180826103c08601510983096103c08401527f30644e72e131a029b85045b68181585d2833e84879b9709143e1f593f00000017f1bf82deba7d74902c3708cc6e70e61f30512eca95655210e276e5858ce8f58e5830991507f30644e72e131a029b85045b68181585d2833e84879b9709143e1f593f000000180826103e08601510983096103e08401527f30644e72e131a029b85045b68181585d2833e84879b9709143e1f593f00000017f1bf82deba7d74902c3708cc6e70e61f30512eca95655210e276e5858ce8f58e5830991507f30644e72e131a029b85045b68181585d2833e84879b9709143e1f593f000000180826104008601510983096104008401527f30644e72e131a029b85045b68181585d2833e84879b9709143e1f593f00000017f1bf82deba7d74902c3708cc6e70e61f30512eca95655210e276e5858ce8f58e5830991507f30644e72e131a029b85045b68181585d2833e84879b9709143e1f593f000000180826104208601510983096104208401527f30644e72e131a029b85045b68181585d2833e84879b9709143e1f593f00000017f1bf82deba7d74902c3708cc6e70e61f30512eca95655210e276e5858ce8f58e5830991507f30644e72e131a029b85045b68181585d2833e84879b9709143e1f593f000000180826104408601510983096104408401527f30644e72e131a029b85045b68181585d2833e84879b9709143e1f593f00000017f1bf82deba7d74902c3708cc6e70e61f30512eca95655210e276e5858ce8f58e5830991507f30644e72e131a029b85045b68181585d2833e84879b9709143e1f593f000000180826104608601510983096104608401527f30644e72e131a029b85045b68181585d2833e84879b9709143e1f593f00000017f1bf82deba7d74902c3708cc6e70e61f30512eca95655210e276e5858ce8f58e5830991507f30644e72e131a029b85045b68181585d2833e84879b9709143e1f593f000000180826104808601510983096104808401527f30644e72e131a029b85045b68181585d2833e84879b9709143e1f593f00000017f1bf82deba7d74902c3708cc6e70e61f30512eca95655210e276e5858ce8f58e5830991507f30644e72e131a029b85045b68181585d2833e84879b9709143e1f593f000000180826104a08601510983096104a08401527f30644e72e131a029b85045b68181585d2833e84879b9709143e1f593f00000017f1bf82deba7d74902c3708cc6e70e61f30512eca95655210e276e5858ce8f58e5830991507f30644e72e131a029b85045b68181585d2833e84879b9709143e1f593f000000180826104c08601510983096104c08401527f30644e72e131a029b85045b68181585d2833e84879b9709143e1f593f00000017f1bf82deba7d74902c3708cc6e70e61f30512eca95655210e276e5858ce8f58e5830991507f30644e72e131a029b85045b68181585d2833e84879b9709143e1f593f000000180826104e08601510983096104e08401527f30644e72e131a029b85045b68181585d2833e84879b9709143e1f593f00000017f1bf82deba7d74902c3708cc6e70e61f30512eca95655210e276e5858ce8f58e5830991507f30644e72e131a029b85045b68181585d2833e84879b9709143e1f593f000000180826105008601510983096105008401527f30644e72e131a029b85045b68181585d2833e84879b9709143e1f593f00000017f1bf82deba7d74902c3708cc6e70e61f30512eca95655210e276e5858ce8f58e5830991507f30644e72e131a029b85045b68181585d2833e84879b9709143e1f593f000000180826105208601510983096105208401527f30644e72e131a029b85045b68181585d2833e84879b9709143e1f593f00000017f1bf82deba7d74902c3708cc6e70e61f30512eca95655210e276e5858ce8f58e5830991507f30644e72e131a029b85045b68181585d2833e84879b9709143e1f593f00000018082610540860151098309610540840152505050565b60007f30644e72e131a029b85045b68181585d2833e84879b9709143e1f593f0000001807f30644e72e131a029b85045b68181585d2833e84879b9709143e1f593f00000016000860135610320860151098303010690507f30644e72e131a029b85045b68181585d2833e84879b9709143e1f593f0000001807f30644e72e131a029b85045b68181585d2833e84879b9709143e1f593f00000016020860135610340860151098303010690507f30644e72e131a029b85045b68181585d2833e84879b9709143e1f593f0000001807f30644e72e131a029b85045b68181585d2833e84879b9709143e1f593f00000016040860135610360860151098303010690507f30644e72e131a029b85045b68181585d2833e84879b9709143e1f593f0000001807f30644e72e131a029b85045b68181585d2833e84879b9709143e1f593f00000016060860135610380860151098303010690507f30644e72e131a029b85045b68181585d2833e84879b9709143e1f593f0000001807f30644e72e131a029b85045b68181585d2833e84879b9709143e1f593f000000160808601356103a0860151098303010690507f30644e72e131a029b85045b68181585d2833e84879b9709143e1f593f0000001807f30644e72e131a029b85045b68181585d2833e84879b9709143e1f593f000000160a08601356103c0860151098303010690507f30644e72e131a029b85045b68181585d2833e84879b9709143e1f593f0000001807f30644e72e131a029b85045b68181585d2833e84879b9709143e1f593f000000160c08601356103e0860151098303010690507f30644e72e131a029b85045b68181585d2833e84879b9709143e1f593f0000001807f30644e72e131a029b85045b68181585d2833e84879b9709143e1f593f000000160e0860135610400860151098303010690507f30644e72e131a029b85045b68181585d2833e84879b9709143e1f593f0000001807f30644e72e131a029b85045b68181585d2833e84879b9709143e1f593f0000001610100860135610420860151098303010690507f30644e72e131a029b85045b68181585d2833e84879b9709143e1f593f0000001807f30644e72e131a029b85045b68181585d2833e84879b9709143e1f593f0000001610120860135610440860151098303010690507f30644e72e131a029b85045b68181585d2833e84879b9709143e1f593f0000001807f30644e72e131a029b85045b68181585d2833e84879b9709143e1f593f0000001610140860135610460860151098303010690507f30644e72e131a029b85045b68181585d2833e84879b9709143e1f593f0000001807f30644e72e131a029b85045b68181585d2833e84879b9709143e1f593f0000001610160860135610480860151098303010690507f30644e72e131a029b85045b68181585d2833e84879b9709143e1f593f0000001807f30644e72e131a029b85045b68181585d2833e84879b9709143e1f593f00000016101808601356104a0860151098303010690507f30644e72e131a029b85045b68181585d2833e84879b9709143e1f593f0000001807f30644e72e131a029b85045b68181585d2833e84879b9709143e1f593f00000016101a08601356104c0860151098303010690507f30644e72e131a029b85045b68181585d2833e84879b9709143e1f593f0000001807f30644e72e131a029b85045b68181585d2833e84879b9709143e1f593f00000016101c08601356104e0860151098303010690507f30644e72e131a029b85045b68181585d2833e84879b9709143e1f593f0000001807f30644e72e131a029b85045b68181585d2833e84879b9709143e1f593f00000016101e0860135610500860151098303010690507f30644e72e131a029b85045b68181585d2833e84879b9709143e1f593f0000001807f30644e72e131a029b85045b68181585d2833e84879b9709143e1f593f0000001610200860135610520860151098303010690507f30644e72e131a029b85045b68181585d2833e84879b9709143e1f593f0000001807f30644e72e131a029b85045b68181585d2833e84879b9709143e1f593f00000016102208601356105408601510983030106905080610180830152505050565b6101808101517f30644e72e131a029b85045b68181585d2833e84879b9709143e1f593f00000016102c0830151610320840151097f30644e72e131a029b85045b68181585d2833e84879b9709143e1f593f0000001806102a43560208601510961024435087f30644e72e131a029b85045b68181585d2833e84879b9709143e1f593f00000016040850151820890507f30644e72e131a029b85045b68181585d2833e84879b9709143e1f593f0000001806102c43560208701510961026435087f30644e72e131a029b85045b68181585d2833e84879b9709143e1f593f00000016040860151820890507f30644e72e131a029b85045b68181585d2833e84879b9709143e1f593f0000001604086015161028435087f30644e72e131a029b85045b68181585d2833e84879b9709143e1f593f0000001817f30644e72e131a029b85045b68181585d2833e84879b9709143e1f593f0000001848609097f30644e72e131a029b85045b68181585d2833e84879b9709143e1f593f00000016102e435820990507f30644e72e131a029b85045b68181585d2833e84879b9709143e1f593f00000016000880151820990507f30644e72e131a029b85045b68181585d2833e84879b9709143e1f593f000000180867f30644e72e131a029b85045b68181585d2833e84879b9709143e1f593f0000001030687087f30644e72e131a029b85045b68181585d2833e84879b9709143e1f593f000000180837f30644e72e131a029b85045b68181585d2833e84879b9709143e1f593f0000001030682089050806101a08901525050505050505050565b81518152602082015160208201525050565b818152826020820152505050565b81358152602082013560208201525050565b6040518151815260208201516020820152825160408201526020830151606082015260408260808360066107d05a03fa80612752576000805260206000f35b50505050565b600060405183815284602082015285604082015260408160608360076107d05a03fa91508161278b576000805260206000f35b825160408201526020830151606082015260408360808360066107d05a03fa9150816127bb576000805260206000f35b505050505050565b600060405183815284602082015285604082015260408360608360076107d05a03fa9150816127f6576000805260206000f35b505050505050565b61280f8360208401518451846127c3565b505050565b6101c08101604082015160405161010081016040526128747f28fa8051de3bb673ac401b7ac0687491c5eb7eb0752db36620d04a367aaf3aec7f1ed233043906512d2e3be00ec55899e19c7d835c09316ffe06ecd50d46aa8a88856126f3565b6128e97f30644e72e131a029b85045b68181585d2833e84879b9709143e1f593f00000016102643561024435097f174769ac974c7d4ec853715b086db4cde75ececd0fad5734fba49fe5bf303ae17f21b829899df9072c9132df250a9d0148d0c12bbd0e9020f3232de8910dbd6d6e86612758565b612938610244357f25d4756f3cc9f8fed8249f08d87b7db574447177f99c5311e5a9ef19e8eb3fc97f0f5cb9a1d3070c0bd58f147d5572a802f7e04c821bbfa19308bb789397f4512886612758565b612987610264357f174899f136442b18989b8e6d6705fa1a1435caac3bf213dca91dc74cc963620f7f190f203b4b7abc7c2d332f1c495d79f139ad7ca135b9cbe7692cbc2dc688847c86612758565b6129d6610284357f080053494ba98b0b94e03ef9fdadc6adef42a32bb3e514cce1a822ee46c18d5b7f1001104438ebd97d208be74837830bfee46566af17eeaa94c96443637ba0e78786612758565b60a08401517f30644e72e131a029b85045b68181585d2833e84879b9709143e1f593f0000001837f30644e72e131a029b85045b68181585d2833e84879b9709143e1f593f0000001836102443508087f30644e72e131a029b85045b68181585d2833e84879b9709143e1f593f0000001847f30644e72e131a029b85045b68181585d2833e84879b9709143e1f593f000000180600286096102643508087f30644e72e131a029b85045b68181585d2833e84879b9709143e1f593f0000001857f30644e72e131a029b85045b68181585d2833e84879b9709143e1f593f000000180600387096102843508087f30644e72e131a029b85045b68181585d2833e84879b9709143e1f593f000000160008901517f30644e72e131a029b85045b68181585d2833e84879b9709143e1f593f0000001837f30644e72e131a029b85045b68181585d2833e84879b9709143e1f593f000000186880909097f30644e72e131a029b85045b68181585d2833e84879b9709143e1f593f00000016102c08a01516103208b015109612b6b60c460c08901612701565b612bc47f30644e72e131a029b85045b68181585d2833e84879b9709143e1f593f00000016101608c01517f30644e72e131a029b85045b68181585d2833e84879b9709143e1f593f00000018486080860c08901896127fe565b7f30644e72e131a029b85045b68181585d2833e84879b9709143e1f593f0000001887f30644e72e131a029b85045b68181585d2833e84879b9709143e1f593f0000001806102a43560208f01510961024435080894507f30644e72e131a029b85045b68181585d2833e84879b9709143e1f593f0000001887f30644e72e131a029b85045b68181585d2833e84879b9709143e1f593f0000001806102c43560208f01510961026435080893507f30644e72e131a029b85045b68181585d2833e84879b9709143e1f593f00000016102e4357f30644e72e131a029b85045b68181585d2833e84879b9709143e1f593f000000160208d015160008e015109099250612d597f30644e72e131a029b85045b68181585d2833e84879b9709143e1f593f0000001847f30644e72e131a029b85045b68181585d2833e84879b9709143e1f593f0000001878909097f06ef8122596f21e545a0441ac990a590ca53a8965189f85e3583b10ad5c1f6a67f2faa84e5e0aeb3cc9e5d3e1bea577d70d5d828518a0cb7d271c76ba1384769ff60408b016127c3565b612d6861010460808901612701565b612d8460808b0151602061014401356101443560808b01612758565b7f30644e72e131a029b85045b68181585d2833e84879b9709143e1f593f000000160808b015160808c015109612dc881602061018401356101843560808c01612758565b612de46102e08c015160a08a015160808b015160808c016127c3565b7f30644e72e131a029b85045b68181585d97816a916871ca8d3c208c16d87cfd47602060408a0101517f30644e72e131a029b85045b68181585d97816a916871ca8d3c208c16d87cfd470306602060408a0101527f30644e72e131a029b85045b68181585d97816a916871ca8d3c208c16d87cfd4760a08901517f30644e72e131a029b85045b68181585d97816a916871ca8d3c208c16d87cfd47030660a0890152612e90888b612713565b612e9d604089018b612713565b612eaa608089018b612713565b5050505050505050505050565b6102008101612eca6101c08301826126e1565b612ee160c083015160206004013560043584612758565b612ef860e083015160206044013560443584612758565b612f1061010083015160206084013560843584612758565b612f616101208301517f098e106867b33458f88354180ac52189382888c8e3fa8c56dd7195a5c6f897907f165e54fcbec2f4d21b2ec39002be5da9d8479af7a9dee8443a4bdc8d19cf36a184612758565b612fb26101408301517f1b7b3b9bbdf404c888a0501dec16ab2481f4d4fe030f2afd16a3b05384164df27f17c8eb9b5ca5a5b93995853155627a94727e865d9d5daed9bb5c32b4c5e7a2b284612758565b5050565b7f30644e72e131a029b85045b68181585d2833e84879b9709143e1f593f00000016101a08201517f30644e72e131a029b85045b68181585d2833e84879b9709143e1f593f000000103067f30644e72e131a029b85045b68181585d2833e84879b9709143e1f593f00000018060c08401516102443509820890507f30644e72e131a029b85045b68181585d2833e84879b9709143e1f593f00000018060e08401516102643509820890507f30644e72e131a029b85045b68181585d2833e84879b9709143e1f593f0000001806101008401516102843509820890507f30644e72e131a029b85045b68181585d2833e84879b9709143e1f593f0000001806101208401516102a43509820890507f30644e72e131a029b85045b68181585d2833e84879b9709143e1f593f0000001806101408401516102c43509820890507f30644e72e131a029b85045b68181585d2833e84879b9709143e1f593f0000001806101608401516102e4350982089050613136816002600161024086016127c3565b5050565b6000604051610240810160405261018081016101c0820161020083016131626101c484612701565b61316e61020483612701565b61317e61016087015183866127fe565b6131888385612713565b7f30644e72e131a029b85045b68181585d97816a916871ca8d3c208c16d87cfd4760208501517f30644e72e131a029b85045b68181585d97816a916871ca8d3c208c16d87cfd47030660208501527f2d20c76d4e405357db40ae622a7e5790a5b8d1b53336be95fea4eb8030b84b7060408501527f0143fa88244c7330e1435e6ab41b4d86dd4e616e1f10a6f49e6024683ad6923c60608501527f01079d42c859b2a6d1e2a237acaada2548dce0692430f269b0d9c50d32fee39760808501527f03dd7db698a1c085ca914c57c7141186097e537da94a12f0462f8cb003f9797860a085015261328060608701518460c087016127fe565b7f30644e72e131a029b85045b68181585d2833e84879b9709143e1f593f00000016060870151610160880151097f30644e72e131a029b85045b68181585d2833e84879b9709143e1f593f00000017f1bf82deba7d74902c3708cc6e70e61f30512eca95655210e276e5858ce8f58e5820990506132fe8184846127fe565b61330b8260c08701612713565b61331c610200880160c08701612713565b7f30644e72e131a029b85045b68181585d97816a916871ca8d3c208c16d87cfd476020610240018801517f30644e72e131a029b85045b68181585d97816a916871ca8d3c208c16d87cfd470306602061024001880152613383610240880160c08701612713565b7f198e9393920d483a7260bfb731fb5d25f1aa493335a9e71297e485b7aef312c26101008601527f1800deef121f1e76426a00665e5c4479674322d4f75edadd46debd5cd992f6ed6101208601527f090689d0585ff075ec9e99ad690c3395bc4b313370b38ef355acdadcd122975b6101408601527f12c85ea5db8c6deb4aab71808dcb408fe3d1e7690c43d37b4ce6cc0166fa7daa6101608601526020856101808760086107d05a03fa855181169650505050505050919050565b6040516105608101604052613452610206565b61345c8382610250565b61346581610b72565b61346f8382611e7d565b6134788161248f565b61348181612814565b61348a81612eb7565b61349381612fb6565b61349c8161313a565b61056082036040528060005260206000f35b600080fd5b600080fd5b6000819050826020601802820111156134d4576134d36134b3565b5b92915050565b6000819050826020601202820111156134f6576134f56134b3565b5b92915050565b6000806105408385031215613514576135136134ae565b5b6000613522858286016134b8565b925050610300613534858286016134da565b9150509250929050565b60008115159050919050565b6135538161353e565b82525050565b600060208201905061356e600083018461354a565b9291505056fea26469706673582212209d3a1b80ae03ec7411badd49cc973b78701eb7352bee81916cd379b40d73c76d64736f6c63430008120033","opcodes":"PUSH1 0x80 PUSH1 0x40 MSTORE CALLVALUE DUP1 ISZERO PUSH2 0x10 JUMPI PUSH1 0x0 DUP1 REVERT JUMPDEST POP PUSH2 0x35AA DUP1 PUSH2 0x20 PUSH1 0x0 CODECOPY PUSH1 0x0 RETURN INVALID PUSH1 0x80 PUSH1 0x40 MSTORE CALLVALUE DUP1 ISZERO PUSH2 0x10 JUMPI PUSH1 0x0 DUP1 REVERT JUMPDEST POP PUSH1 0x4 CALLDATASIZE LT PUSH2 0x2B JUMPI PUSH1 0x0 CALLDATALOAD PUSH1 0xE0 SHR DUP1 PUSH4 0x2E05AEFD EQ PUSH2 0x30 JUMPI JUMPDEST PUSH1 0x0 DUP1 REVERT JUMPDEST PUSH2 0x4A PUSH1 0x4 DUP1 CALLDATASIZE SUB DUP2 ADD SWAP1 PUSH2 0x45 SWAP2 SWAP1 PUSH2 0x34FC JUMP JUMPDEST PUSH2 0x60 JUMP JUMPDEST PUSH1 0x40 MLOAD PUSH2 0x57 SWAP2 SWAP1 PUSH2 0x3559 JUMP JUMPDEST PUSH1 0x40 MLOAD DUP1 SWAP2 SUB SWAP1 RETURN JUMPDEST PUSH1 0x0 PUSH2 0x343F JUMP JUMPDEST PUSH1 0x0 DUP1 PUSH1 0x1 DUP5 DUP5 PUSH1 0x0 DUP1 JUMPDEST DUP3 ISZERO PUSH2 0x9C JUMPI DUP3 DUP5 SDIV SWAP2 POP DUP5 DUP3 MUL DUP7 SUB SWAP1 POP DUP5 SWAP6 POP DUP1 SWAP5 POP DUP3 DUP3 MUL DUP5 SUB SWAP1 POP DUP3 SWAP4 POP DUP1 SWAP3 POP PUSH2 0x72 JUMP JUMPDEST PUSH1 0x1 DUP5 GT ISZERO PUSH2 0xAA JUMPI PUSH1 0x0 DUP1 REVERT JUMPDEST PUSH1 0x0 DUP7 SLT ISZERO PUSH2 0xB9 JUMPI DUP9 DUP7 ADD SWAP6 POP JUMPDEST DUP6 SWAP7 POP POP POP POP POP POP POP SWAP3 SWAP2 POP POP JUMP JUMPDEST PUSH1 0x40 MLOAD DUP2 PUSH1 0x20 DUP5 MUL DUP4 ADD DUP2 MLOAD PUSH1 0x20 DUP4 ADD SWAP3 POP PUSH1 0x0 JUMPDEST DUP3 DUP5 LT ISZERO PUSH2 0x120 JUMPI DUP2 DUP6 MSTORE PUSH32 0x30644E72E131A029B85045B68181585D2833E84879B9709143E1F593F0000001 DUP5 MLOAD DUP4 MULMOD SWAP2 POP PUSH1 0x20 DUP6 ADD SWAP5 POP PUSH1 0x20 DUP5 ADD SWAP4 POP PUSH2 0xDD JUMP JUMPDEST PUSH2 0x14A PUSH32 0x30644E72E131A029B85045B68181585D2833E84879B9709143E1F593F0000001 DUP4 PUSH2 0x67 JUMP JUMPDEST SWAP2 POP PUSH1 0x20 DUP6 SUB SWAP5 POP PUSH1 0x20 DUP5 SUB SWAP4 POP DUP6 SWAP3 POP JUMPDEST DUP3 DUP5 GT ISZERO PUSH2 0x1C6 JUMPI PUSH32 0x30644E72E131A029B85045B68181585D2833E84879B9709143E1F593F0000001 DUP6 MLOAD DUP4 MULMOD SWAP1 POP PUSH32 0x30644E72E131A029B85045B68181585D2833E84879B9709143E1F593F0000001 DUP5 MLOAD DUP4 MULMOD SWAP2 POP DUP1 DUP5 MSTORE PUSH1 0x20 DUP6 SUB SWAP5 POP PUSH1 0x20 DUP5 SUB SWAP4 POP PUSH2 0x15C JUMP JUMPDEST DUP2 DUP5 MSTORE POP POP POP POP POP POP POP JUMP JUMPDEST PUSH32 0x30644E72E131A029B85045B68181585D2833E84879B9709143E1F593F0000001 DUP2 LT PUSH2 0x203 JUMPI PUSH1 0x0 DUP1 MSTORE PUSH1 0x20 PUSH1 0x0 RETURN JUMPDEST POP JUMP JUMPDEST PUSH2 0x212 PUSH2 0x244 CALLDATALOAD PUSH2 0x1D2 JUMP JUMPDEST PUSH2 0x21E PUSH2 0x264 CALLDATALOAD PUSH2 0x1D2 JUMP JUMPDEST PUSH2 0x22A PUSH2 0x284 CALLDATALOAD PUSH2 0x1D2 JUMP JUMPDEST PUSH2 0x236 PUSH2 0x2A4 CALLDATALOAD PUSH2 0x1D2 JUMP JUMPDEST PUSH2 0x242 PUSH2 0x2C4 CALLDATALOAD PUSH2 0x1D2 JUMP JUMPDEST PUSH2 0x24E PUSH2 0x2E4 CALLDATALOAD PUSH2 0x1D2 JUMP JUMPDEST JUMP JUMPDEST PUSH1 0x0 DUP1 PUSH1 0x40 MLOAD PUSH32 0x21B829899DF9072C9132DF250A9D0148D0C12BBD0E9020F3232DE8910DBD6D6E DUP2 MSTORE PUSH32 0x174769AC974C7D4EC853715B086DB4CDE75ECECD0FAD5734FBA49FE5BF303AE1 PUSH1 0x20 DUP3 ADD MSTORE PUSH32 0xF5CB9A1D3070C0BD58F147D5572A802F7E04C821BBFA19308BB789397F45128 PUSH1 0x40 DUP3 ADD MSTORE PUSH32 0x25D4756F3CC9F8FED8249F08D87B7DB574447177F99C5311E5A9EF19E8EB3FC9 PUSH1 0x60 DUP3 ADD MSTORE PUSH32 0x190F203B4B7ABC7C2D332F1C495D79F139AD7CA135B9CBE7692CBC2DC688847C PUSH1 0x80 DUP3 ADD MSTORE PUSH32 0x174899F136442B18989B8E6D6705FA1A1435CAAC3BF213DCA91DC74CC963620F PUSH1 0xA0 DUP3 ADD MSTORE PUSH32 0x1001104438EBD97D208BE74837830BFEE46566AF17EEAA94C96443637BA0E787 PUSH1 0xC0 DUP3 ADD MSTORE PUSH32 0x80053494BA98B0B94E03EF9FDADC6ADEF42A32BB3E514CCE1A822EE46C18D5B PUSH1 0xE0 DUP3 ADD MSTORE PUSH32 0x1ED233043906512D2E3BE00EC55899E19C7D835C09316FFE06ECD50D46AA8A88 PUSH2 0x100 DUP3 ADD MSTORE PUSH32 0x28FA8051DE3BB673AC401B7AC0687491C5EB7EB0752DB36620D04A367AAF3AEC PUSH2 0x120 DUP3 ADD MSTORE PUSH32 0x165E54FCBEC2F4D21B2EC39002BE5DA9D8479AF7A9DEE8443A4BDC8D19CF36A1 PUSH2 0x140 DUP3 ADD MSTORE PUSH32 0x98E106867B33458F88354180AC52189382888C8E3FA8C56DD7195A5C6F89790 PUSH2 0x160 DUP3 ADD MSTORE PUSH32 0x17C8EB9B5CA5A5B93995853155627A94727E865D9D5DAED9BB5C32B4C5E7A2B2 PUSH2 0x180 DUP3 ADD MSTORE PUSH32 0x1B7B3B9BBDF404C888A0501DEC16AB2481F4D4FE030F2AFD16A3B05384164DF2 PUSH2 0x1A0 DUP3 ADD MSTORE PUSH32 0x2FAA84E5E0AEB3CC9E5D3E1BEA577D70D5D828518A0CB7D271C76BA1384769FF PUSH2 0x1C0 DUP3 ADD MSTORE PUSH32 0x6EF8122596F21E545A0441AC990A590CA53A8965189F85E3583B10AD5C1F6A6 PUSH2 0x1E0 DUP3 ADD MSTORE PUSH1 0x0 DUP6 ADD CALLDATALOAD PUSH2 0x200 DUP3 ADD MSTORE PUSH1 0x20 DUP6 ADD CALLDATALOAD PUSH2 0x220 DUP3 ADD MSTORE PUSH1 0x40 DUP6 ADD CALLDATALOAD PUSH2 0x240 DUP3 ADD MSTORE PUSH1 0x60 DUP6 ADD CALLDATALOAD PUSH2 0x260 DUP3 ADD MSTORE PUSH1 0x80 DUP6 ADD CALLDATALOAD PUSH2 0x280 DUP3 ADD MSTORE PUSH1 0xA0 DUP6 ADD CALLDATALOAD PUSH2 0x2A0 DUP3 ADD MSTORE PUSH1 0xC0 DUP6 ADD CALLDATALOAD PUSH2 0x2C0 DUP3 ADD MSTORE PUSH1 0xE0 DUP6 ADD CALLDATALOAD PUSH2 0x2E0 DUP3 ADD MSTORE PUSH2 0x100 DUP6 ADD CALLDATALOAD PUSH2 0x300 DUP3 ADD MSTORE PUSH2 0x120 DUP6 ADD CALLDATALOAD PUSH2 0x320 DUP3 ADD MSTORE PUSH2 0x140 DUP6 ADD CALLDATALOAD PUSH2 0x340 DUP3 ADD MSTORE PUSH2 0x160 DUP6 ADD CALLDATALOAD PUSH2 0x360 DUP3 ADD MSTORE PUSH2 0x180 DUP6 ADD CALLDATALOAD PUSH2 0x380 DUP3 ADD MSTORE PUSH2 0x1A0 DUP6 ADD CALLDATALOAD PUSH2 0x3A0 DUP3 ADD MSTORE PUSH2 0x1C0 DUP6 ADD CALLDATALOAD PUSH2 0x3C0 DUP3 ADD MSTORE PUSH2 0x1E0 DUP6 ADD CALLDATALOAD PUSH2 0x3E0 DUP3 ADD MSTORE PUSH2 0x200 DUP6 ADD CALLDATALOAD PUSH2 0x400 DUP3 ADD MSTORE PUSH2 0x220 DUP6 ADD CALLDATALOAD PUSH2 0x420 DUP3 ADD MSTORE PUSH1 0x4 CALLDATALOAD PUSH2 0x440 DUP3 ADD MSTORE PUSH1 0x20 PUSH1 0x4 ADD CALLDATALOAD PUSH2 0x460 DUP3 ADD MSTORE PUSH1 0x44 CALLDATALOAD PUSH2 0x480 DUP3 ADD MSTORE PUSH1 0x20 PUSH1 0x44 ADD CALLDATALOAD PUSH2 0x4A0 DUP3 ADD MSTORE PUSH1 0x84 CALLDATALOAD PUSH2 0x4C0 DUP3 ADD MSTORE PUSH1 0x20 PUSH1 0x84 ADD CALLDATALOAD PUSH2 0x4E0 DUP3 ADD MSTORE PUSH32 0x30644E72E131A029B85045B68181585D2833E84879B9709143E1F593F0000001 PUSH2 0x500 DUP3 KECCAK256 MOD SWAP3 POP DUP3 PUSH1 0x20 DUP6 ADD MSTORE PUSH32 0x30644E72E131A029B85045B68181585D2833E84879B9709143E1F593F0000001 PUSH1 0x20 DUP1 DUP7 ADD KECCAK256 MOD PUSH1 0x40 DUP6 ADD MSTORE PUSH1 0x20 DUP5 ADD MLOAD DUP2 MSTORE PUSH1 0x40 DUP5 ADD MLOAD PUSH1 0x20 DUP3 ADD MSTORE PUSH1 0xC4 CALLDATALOAD PUSH1 0x40 DUP3 ADD MSTORE PUSH1 0x20 PUSH1 0xC4 ADD CALLDATALOAD PUSH1 0x60 DUP3 ADD MSTORE PUSH32 0x30644E72E131A029B85045B68181585D2833E84879B9709143E1F593F0000001 PUSH1 0x80 DUP3 KECCAK256 MOD SWAP2 POP DUP2 PUSH1 0x0 DUP6 ADD MSTORE PUSH32 0x30644E72E131A029B85045B68181585D2833E84879B9709143E1F593F0000001 DUP3 DUP4 MULMOD PUSH2 0x2C0 DUP6 ADD MSTORE DUP2 DUP2 MSTORE PUSH2 0x104 CALLDATALOAD PUSH1 0x20 DUP3 ADD MSTORE PUSH1 0x20 PUSH2 0x104 ADD CALLDATALOAD PUSH1 0x40 DUP3 ADD MSTORE PUSH2 0x144 CALLDATALOAD PUSH1 0x60 DUP3 ADD MSTORE PUSH1 0x20 PUSH2 0x144 ADD CALLDATALOAD PUSH1 0x80 DUP3 ADD MSTORE PUSH2 0x184 CALLDATALOAD PUSH1 0xA0 DUP3 ADD MSTORE PUSH1 0x20 PUSH2 0x184 ADD CALLDATALOAD PUSH1 0xC0 DUP3 ADD MSTORE PUSH32 0x30644E72E131A029B85045B68181585D2833E84879B9709143E1F593F0000001 PUSH1 0xE0 DUP3 KECCAK256 MOD SWAP2 POP DUP2 PUSH1 0x60 DUP6 ADD MSTORE DUP2 DUP2 MSTORE PUSH2 0x244 CALLDATALOAD PUSH1 0x20 DUP3 ADD MSTORE PUSH2 0x264 CALLDATALOAD PUSH1 0x40 DUP3 ADD MSTORE PUSH2 0x284 CALLDATALOAD PUSH1 0x60 DUP3 ADD MSTORE PUSH2 0x2A4 CALLDATALOAD PUSH1 0x80 DUP3 ADD MSTORE PUSH2 0x2C4 CALLDATALOAD PUSH1 0xA0 DUP3 ADD MSTORE PUSH2 0x2E4 CALLDATALOAD PUSH1 0xC0 DUP3 ADD MSTORE PUSH32 0x30644E72E131A029B85045B68181585D2833E84879B9709143E1F593F0000001 PUSH1 0xE0 DUP3 KECCAK256 MOD DUP1 PUSH1 0xC0 DUP7 ADD MSTORE PUSH32 0x30644E72E131A029B85045B68181585D2833E84879B9709143E1F593F0000001 DUP4 DUP6 MULMOD PUSH1 0xA0 DUP7 ADD MSTORE PUSH32 0x30644E72E131A029B85045B68181585D2833E84879B9709143E1F593F0000001 DUP4 DUP5 MULMOD SWAP3 POP PUSH32 0x30644E72E131A029B85045B68181585D2833E84879B9709143E1F593F0000001 DUP4 DUP5 MULMOD SWAP3 POP PUSH32 0x30644E72E131A029B85045B68181585D2833E84879B9709143E1F593F0000001 DUP4 DUP5 MULMOD SWAP3 POP PUSH32 0x30644E72E131A029B85045B68181585D2833E84879B9709143E1F593F0000001 DUP4 DUP5 MULMOD SWAP3 POP PUSH32 0x30644E72E131A029B85045B68181585D2833E84879B9709143E1F593F0000001 DUP4 DUP5 MULMOD SWAP3 POP PUSH32 0x30644E72E131A029B85045B68181585D2833E84879B9709143E1F593F0000001 DUP4 DUP5 MULMOD SWAP3 POP PUSH32 0x30644E72E131A029B85045B68181585D2833E84879B9709143E1F593F0000001 DUP4 DUP5 MULMOD SWAP3 POP PUSH32 0x30644E72E131A029B85045B68181585D2833E84879B9709143E1F593F0000001 DUP4 DUP5 MULMOD SWAP3 POP PUSH32 0x30644E72E131A029B85045B68181585D2833E84879B9709143E1F593F0000001 DUP4 DUP5 MULMOD SWAP3 POP PUSH32 0x30644E72E131A029B85045B68181585D2833E84879B9709143E1F593F0000001 DUP4 DUP5 MULMOD SWAP3 POP PUSH32 0x30644E72E131A029B85045B68181585D2833E84879B9709143E1F593F0000001 DUP4 DUP5 MULMOD SWAP3 POP PUSH32 0x30644E72E131A029B85045B68181585D2833E84879B9709143E1F593F0000001 DUP4 DUP5 MULMOD SWAP3 POP PUSH32 0x30644E72E131A029B85045B68181585D2833E84879B9709143E1F593F0000001 DUP4 DUP5 MULMOD SWAP3 POP PUSH32 0x30644E72E131A029B85045B68181585D2833E84879B9709143E1F593F0000001 DUP4 DUP5 MULMOD SWAP3 POP PUSH32 0x30644E72E131A029B85045B68181585D2833E84879B9709143E1F593F0000001 DUP4 DUP5 MULMOD SWAP3 POP PUSH32 0x30644E72E131A029B85045B68181585D2833E84879B9709143E1F593F0000001 DUP4 DUP5 MULMOD SWAP3 POP PUSH32 0x30644E72E131A029B85045B68181585D2833E84879B9709143E1F593F0000001 DUP4 DUP5 MULMOD SWAP3 POP DUP3 PUSH1 0x80 DUP7 ADD MSTORE PUSH32 0x30644E72E131A029B85045B68181585D2833E84879B9709143E1F593F0000001 DUP1 PUSH1 0x1 DUP6 SUB ADD MOD SWAP3 POP DUP3 PUSH2 0x2E0 DUP7 ADD MSTORE DUP3 PUSH2 0x300 DUP7 ADD MSTORE PUSH32 0x30644E72E131A029B85045B68181585D2833E84879B9709143E1F593F0000001 DUP2 DUP3 MULMOD SWAP3 POP DUP3 PUSH1 0xE0 DUP7 ADD MSTORE PUSH32 0x30644E72E131A029B85045B68181585D2833E84879B9709143E1F593F0000001 DUP2 DUP5 MULMOD SWAP3 POP DUP3 PUSH2 0x100 DUP7 ADD MSTORE PUSH32 0x30644E72E131A029B85045B68181585D2833E84879B9709143E1F593F0000001 DUP2 DUP5 MULMOD SWAP3 POP DUP3 PUSH2 0x120 DUP7 ADD MSTORE PUSH32 0x30644E72E131A029B85045B68181585D2833E84879B9709143E1F593F0000001 DUP2 DUP5 MULMOD SWAP3 POP DUP3 PUSH2 0x140 DUP7 ADD MSTORE PUSH2 0x1C4 CALLDATALOAD DUP3 MSTORE PUSH1 0x20 PUSH2 0x1C4 ADD CALLDATALOAD PUSH1 0x20 DUP4 ADD MSTORE PUSH2 0x204 CALLDATALOAD PUSH1 0x40 DUP4 ADD MSTORE PUSH1 0x20 PUSH2 0x204 ADD CALLDATALOAD PUSH1 0x60 DUP4 ADD MSTORE PUSH32 0x30644E72E131A029B85045B68181585D2833E84879B9709143E1F593F0000001 PUSH1 0x80 DUP4 KECCAK256 MOD PUSH2 0x160 DUP7 ADD MSTORE POP POP POP POP POP POP JUMP JUMPDEST PUSH1 0x1 PUSH32 0x30644E72E131A029B85045B68181585D2833E84879B9709143E1F593F0000001 DUP1 PUSH32 0x30644E72E131A029B85045B68181585D2833E84879B9709143E1F593F0000001 DUP4 PUSH1 0x60 DUP7 ADD MLOAD SUB ADD MOD PUSH3 0x20000 MULMOD PUSH2 0x320 DUP4 ADD MSTORE PUSH32 0x30644E72E131A029B85045B68181585D2833E84879B9709143E1F593F0000001 PUSH32 0x1BF82DEBA7D74902C3708CC6E70E61F30512ECA95655210E276E5858CE8F58E5 DUP3 MULMOD SWAP1 POP PUSH32 0x30644E72E131A029B85045B68181585D2833E84879B9709143E1F593F0000001 DUP1 PUSH32 0x30644E72E131A029B85045B68181585D2833E84879B9709143E1F593F0000001 DUP4 PUSH1 0x60 DUP7 ADD MLOAD SUB ADD MOD PUSH3 0x20000 MULMOD PUSH2 0x340 DUP4 ADD MSTORE PUSH32 0x30644E72E131A029B85045B68181585D2833E84879B9709143E1F593F0000001 PUSH32 0x1BF82DEBA7D74902C3708CC6E70E61F30512ECA95655210E276E5858CE8F58E5 DUP3 MULMOD SWAP1 POP PUSH32 0x30644E72E131A029B85045B68181585D2833E84879B9709143E1F593F0000001 DUP1 PUSH32 0x30644E72E131A029B85045B68181585D2833E84879B9709143E1F593F0000001 DUP4 PUSH1 0x60 DUP7 ADD MLOAD SUB ADD MOD PUSH3 0x20000 MULMOD PUSH2 0x360 DUP4 ADD MSTORE PUSH32 0x30644E72E131A029B85045B68181585D2833E84879B9709143E1F593F0000001 PUSH32 0x1BF82DEBA7D74902C3708CC6E70E61F30512ECA95655210E276E5858CE8F58E5 DUP3 MULMOD SWAP1 POP PUSH32 0x30644E72E131A029B85045B68181585D2833E84879B9709143E1F593F0000001 DUP1 PUSH32 0x30644E72E131A029B85045B68181585D2833E84879B9709143E1F593F0000001 DUP4 PUSH1 0x60 DUP7 ADD MLOAD SUB ADD MOD PUSH3 0x20000 MULMOD PUSH2 0x380 DUP4 ADD MSTORE PUSH32 0x30644E72E131A029B85045B68181585D2833E84879B9709143E1F593F0000001 PUSH32 0x1BF82DEBA7D74902C3708CC6E70E61F30512ECA95655210E276E5858CE8F58E5 DUP3 MULMOD SWAP1 POP PUSH32 0x30644E72E131A029B85045B68181585D2833E84879B9709143E1F593F0000001 DUP1 PUSH32 0x30644E72E131A029B85045B68181585D2833E84879B9709143E1F593F0000001 DUP4 PUSH1 0x60 DUP7 ADD MLOAD SUB ADD MOD PUSH3 0x20000 MULMOD PUSH2 0x3A0 DUP4 ADD MSTORE PUSH32 0x30644E72E131A029B85045B68181585D2833E84879B9709143E1F593F0000001 PUSH32 0x1BF82DEBA7D74902C3708CC6E70E61F30512ECA95655210E276E5858CE8F58E5 DUP3 MULMOD SWAP1 POP PUSH32 0x30644E72E131A029B85045B68181585D2833E84879B9709143E1F593F0000001 DUP1 PUSH32 0x30644E72E131A029B85045B68181585D2833E84879B9709143E1F593F0000001 DUP4 PUSH1 0x60 DUP7 ADD MLOAD SUB ADD MOD PUSH3 0x20000 MULMOD PUSH2 0x3C0 DUP4 ADD MSTORE PUSH32 0x30644E72E131A029B85045B68181585D2833E84879B9709143E1F593F0000001 PUSH32 0x1BF82DEBA7D74902C3708CC6E70E61F30512ECA95655210E276E5858CE8F58E5 DUP3 MULMOD SWAP1 POP PUSH32 0x30644E72E131A029B85045B68181585D2833E84879B9709143E1F593F0000001 DUP1 PUSH32 0x30644E72E131A029B85045B68181585D2833E84879B9709143E1F593F0000001 DUP4 PUSH1 0x60 DUP7 ADD MLOAD SUB ADD MOD PUSH3 0x20000 MULMOD PUSH2 0x3E0 DUP4 ADD MSTORE PUSH32 0x30644E72E131A029B85045B68181585D2833E84879B9709143E1F593F0000001 PUSH32 0x1BF82DEBA7D74902C3708CC6E70E61F30512ECA95655210E276E5858CE8F58E5 DUP3 MULMOD SWAP1 POP PUSH32 0x30644E72E131A029B85045B68181585D2833E84879B9709143E1F593F0000001 DUP1 PUSH32 0x30644E72E131A029B85045B68181585D2833E84879B9709143E1F593F0000001 DUP4 PUSH1 0x60 DUP7 ADD MLOAD SUB ADD MOD PUSH3 0x20000 MULMOD PUSH2 0x400 DUP4 ADD MSTORE PUSH32 0x30644E72E131A029B85045B68181585D2833E84879B9709143E1F593F0000001 PUSH32 0x1BF82DEBA7D74902C3708CC6E70E61F30512ECA95655210E276E5858CE8F58E5 DUP3 MULMOD SWAP1 POP PUSH32 0x30644E72E131A029B85045B68181585D2833E84879B9709143E1F593F0000001 DUP1 PUSH32 0x30644E72E131A029B85045B68181585D2833E84879B9709143E1F593F0000001 DUP4 PUSH1 0x60 DUP7 ADD MLOAD SUB ADD MOD PUSH3 0x20000 MULMOD PUSH2 0x420 DUP4 ADD MSTORE PUSH32 0x30644E72E131A029B85045B68181585D2833E84879B9709143E1F593F0000001 PUSH32 0x1BF82DEBA7D74902C3708CC6E70E61F30512ECA95655210E276E5858CE8F58E5 DUP3 MULMOD SWAP1 POP PUSH32 0x30644E72E131A029B85045B68181585D2833E84879B9709143E1F593F0000001 DUP1 PUSH32 0x30644E72E131A029B85045B68181585D2833E84879B9709143E1F593F0000001 DUP4 PUSH1 0x60 DUP7 ADD MLOAD SUB ADD MOD PUSH3 0x20000 MULMOD PUSH2 0x440 DUP4 ADD MSTORE PUSH32 0x30644E72E131A029B85045B68181585D2833E84879B9709143E1F593F0000001 PUSH32 0x1BF82DEBA7D74902C3708CC6E70E61F30512ECA95655210E276E5858CE8F58E5 DUP3 MULMOD SWAP1 POP PUSH32 0x30644E72E131A029B85045B68181585D2833E84879B9709143E1F593F0000001 DUP1 PUSH32 0x30644E72E131A029B85045B68181585D2833E84879B9709143E1F593F0000001 DUP4 PUSH1 0x60 DUP7 ADD MLOAD SUB ADD MOD PUSH3 0x20000 MULMOD PUSH2 0x460 DUP4 ADD MSTORE PUSH32 0x30644E72E131A029B85045B68181585D2833E84879B9709143E1F593F0000001 PUSH32 0x1BF82DEBA7D74902C3708CC6E70E61F30512ECA95655210E276E5858CE8F58E5 DUP3 MULMOD SWAP1 POP PUSH32 0x30644E72E131A029B85045B68181585D2833E84879B9709143E1F593F0000001 DUP1 PUSH32 0x30644E72E131A029B85045B68181585D2833E84879B9709143E1F593F0000001 DUP4 PUSH1 0x60 DUP7 ADD MLOAD SUB ADD MOD PUSH3 0x20000 MULMOD PUSH2 0x480 DUP4 ADD MSTORE PUSH32 0x30644E72E131A029B85045B68181585D2833E84879B9709143E1F593F0000001 PUSH32 0x1BF82DEBA7D74902C3708CC6E70E61F30512ECA95655210E276E5858CE8F58E5 DUP3 MULMOD SWAP1 POP PUSH32 0x30644E72E131A029B85045B68181585D2833E84879B9709143E1F593F0000001 DUP1 PUSH32 0x30644E72E131A029B85045B68181585D2833E84879B9709143E1F593F0000001 DUP4 PUSH1 0x60 DUP7 ADD MLOAD SUB ADD MOD PUSH3 0x20000 MULMOD PUSH2 0x4A0 DUP4 ADD MSTORE PUSH32 0x30644E72E131A029B85045B68181585D2833E84879B9709143E1F593F0000001 PUSH32 0x1BF82DEBA7D74902C3708CC6E70E61F30512ECA95655210E276E5858CE8F58E5 DUP3 MULMOD SWAP1 POP PUSH32 0x30644E72E131A029B85045B68181585D2833E84879B9709143E1F593F0000001 DUP1 PUSH32 0x30644E72E131A029B85045B68181585D2833E84879B9709143E1F593F0000001 DUP4 PUSH1 0x60 DUP7 ADD MLOAD SUB ADD MOD PUSH3 0x20000 MULMOD PUSH2 0x4C0 DUP4 ADD MSTORE PUSH32 0x30644E72E131A029B85045B68181585D2833E84879B9709143E1F593F0000001 PUSH32 0x1BF82DEBA7D74902C3708CC6E70E61F30512ECA95655210E276E5858CE8F58E5 DUP3 MULMOD SWAP1 POP PUSH32 0x30644E72E131A029B85045B68181585D2833E84879B9709143E1F593F0000001 DUP1 PUSH32 0x30644E72E131A029B85045B68181585D2833E84879B9709143E1F593F0000001 DUP4 PUSH1 0x60 DUP7 ADD MLOAD SUB ADD MOD PUSH3 0x20000 MULMOD PUSH2 0x4E0 DUP4 ADD MSTORE PUSH32 0x30644E72E131A029B85045B68181585D2833E84879B9709143E1F593F0000001 PUSH32 0x1BF82DEBA7D74902C3708CC6E70E61F30512ECA95655210E276E5858CE8F58E5 DUP3 MULMOD SWAP1 POP PUSH32 0x30644E72E131A029B85045B68181585D2833E84879B9709143E1F593F0000001 DUP1 PUSH32 0x30644E72E131A029B85045B68181585D2833E84879B9709143E1F593F0000001 DUP4 PUSH1 0x60 DUP7 ADD MLOAD SUB ADD MOD PUSH3 0x20000 MULMOD PUSH2 0x500 DUP4 ADD MSTORE PUSH32 0x30644E72E131A029B85045B68181585D2833E84879B9709143E1F593F0000001 PUSH32 0x1BF82DEBA7D74902C3708CC6E70E61F30512ECA95655210E276E5858CE8F58E5 DUP3 MULMOD SWAP1 POP PUSH32 0x30644E72E131A029B85045B68181585D2833E84879B9709143E1F593F0000001 DUP1 PUSH32 0x30644E72E131A029B85045B68181585D2833E84879B9709143E1F593F0000001 DUP4 PUSH1 0x60 DUP7 ADD MLOAD SUB ADD MOD PUSH3 0x20000 MULMOD PUSH2 0x520 DUP4 ADD MSTORE PUSH32 0x30644E72E131A029B85045B68181585D2833E84879B9709143E1F593F0000001 PUSH32 0x1BF82DEBA7D74902C3708CC6E70E61F30512ECA95655210E276E5858CE8F58E5 DUP3 MULMOD SWAP1 POP PUSH32 0x30644E72E131A029B85045B68181585D2833E84879B9709143E1F593F0000001 DUP1 PUSH32 0x30644E72E131A029B85045B68181585D2833E84879B9709143E1F593F0000001 DUP4 PUSH1 0x60 DUP7 ADD MLOAD SUB ADD MOD PUSH3 0x20000 MULMOD PUSH2 0x540 DUP4 ADD MSTORE PUSH2 0x1647 PUSH1 0x13 PUSH2 0x300 DUP5 ADD PUSH2 0xC8 JUMP JUMPDEST PUSH2 0x2E0 DUP3 ADD MLOAD PUSH1 0x1 SWAP2 POP PUSH32 0x30644E72E131A029B85045B68181585D2833E84879B9709143E1F593F0000001 DUP2 PUSH2 0x320 DUP6 ADD MLOAD MULMOD PUSH2 0x320 DUP5 ADD MSTORE PUSH32 0x30644E72E131A029B85045B68181585D2833E84879B9709143E1F593F0000001 PUSH32 0x1BF82DEBA7D74902C3708CC6E70E61F30512ECA95655210E276E5858CE8F58E5 DUP4 MULMOD SWAP2 POP PUSH32 0x30644E72E131A029B85045B68181585D2833E84879B9709143E1F593F0000001 DUP1 DUP3 PUSH2 0x340 DUP7 ADD MLOAD MULMOD DUP4 MULMOD PUSH2 0x340 DUP5 ADD MSTORE PUSH32 0x30644E72E131A029B85045B68181585D2833E84879B9709143E1F593F0000001 PUSH32 0x1BF82DEBA7D74902C3708CC6E70E61F30512ECA95655210E276E5858CE8F58E5 DUP4 MULMOD SWAP2 POP PUSH32 0x30644E72E131A029B85045B68181585D2833E84879B9709143E1F593F0000001 DUP1 DUP3 PUSH2 0x360 DUP7 ADD MLOAD MULMOD DUP4 MULMOD PUSH2 0x360 DUP5 ADD MSTORE PUSH32 0x30644E72E131A029B85045B68181585D2833E84879B9709143E1F593F0000001 PUSH32 0x1BF82DEBA7D74902C3708CC6E70E61F30512ECA95655210E276E5858CE8F58E5 DUP4 MULMOD SWAP2 POP PUSH32 0x30644E72E131A029B85045B68181585D2833E84879B9709143E1F593F0000001 DUP1 DUP3 PUSH2 0x380 DUP7 ADD MLOAD MULMOD DUP4 MULMOD PUSH2 0x380 DUP5 ADD MSTORE PUSH32 0x30644E72E131A029B85045B68181585D2833E84879B9709143E1F593F0000001 PUSH32 0x1BF82DEBA7D74902C3708CC6E70E61F30512ECA95655210E276E5858CE8F58E5 DUP4 MULMOD SWAP2 POP PUSH32 0x30644E72E131A029B85045B68181585D2833E84879B9709143E1F593F0000001 DUP1 DUP3 PUSH2 0x3A0 DUP7 ADD MLOAD MULMOD DUP4 MULMOD PUSH2 0x3A0 DUP5 ADD MSTORE PUSH32 0x30644E72E131A029B85045B68181585D2833E84879B9709143E1F593F0000001 PUSH32 0x1BF82DEBA7D74902C3708CC6E70E61F30512ECA95655210E276E5858CE8F58E5 DUP4 MULMOD SWAP2 POP PUSH32 0x30644E72E131A029B85045B68181585D2833E84879B9709143E1F593F0000001 DUP1 DUP3 PUSH2 0x3C0 DUP7 ADD MLOAD MULMOD DUP4 MULMOD PUSH2 0x3C0 DUP5 ADD MSTORE PUSH32 0x30644E72E131A029B85045B68181585D2833E84879B9709143E1F593F0000001 PUSH32 0x1BF82DEBA7D74902C3708CC6E70E61F30512ECA95655210E276E5858CE8F58E5 DUP4 MULMOD SWAP2 POP PUSH32 0x30644E72E131A029B85045B68181585D2833E84879B9709143E1F593F0000001 DUP1 DUP3 PUSH2 0x3E0 DUP7 ADD MLOAD MULMOD DUP4 MULMOD PUSH2 0x3E0 DUP5 ADD MSTORE PUSH32 0x30644E72E131A029B85045B68181585D2833E84879B9709143E1F593F0000001 PUSH32 0x1BF82DEBA7D74902C3708CC6E70E61F30512ECA95655210E276E5858CE8F58E5 DUP4 MULMOD SWAP2 POP PUSH32 0x30644E72E131A029B85045B68181585D2833E84879B9709143E1F593F0000001 DUP1 DUP3 PUSH2 0x400 DUP7 ADD MLOAD MULMOD DUP4 MULMOD PUSH2 0x400 DUP5 ADD MSTORE PUSH32 0x30644E72E131A029B85045B68181585D2833E84879B9709143E1F593F0000001 PUSH32 0x1BF82DEBA7D74902C3708CC6E70E61F30512ECA95655210E276E5858CE8F58E5 DUP4 MULMOD SWAP2 POP PUSH32 0x30644E72E131A029B85045B68181585D2833E84879B9709143E1F593F0000001 DUP1 DUP3 PUSH2 0x420 DUP7 ADD MLOAD MULMOD DUP4 MULMOD PUSH2 0x420 DUP5 ADD MSTORE PUSH32 0x30644E72E131A029B85045B68181585D2833E84879B9709143E1F593F0000001 PUSH32 0x1BF82DEBA7D74902C3708CC6E70E61F30512ECA95655210E276E5858CE8F58E5 DUP4 MULMOD SWAP2 POP PUSH32 0x30644E72E131A029B85045B68181585D2833E84879B9709143E1F593F0000001 DUP1 DUP3 PUSH2 0x440 DUP7 ADD MLOAD MULMOD DUP4 MULMOD PUSH2 0x440 DUP5 ADD MSTORE PUSH32 0x30644E72E131A029B85045B68181585D2833E84879B9709143E1F593F0000001 PUSH32 0x1BF82DEBA7D74902C3708CC6E70E61F30512ECA95655210E276E5858CE8F58E5 DUP4 MULMOD SWAP2 POP PUSH32 0x30644E72E131A029B85045B68181585D2833E84879B9709143E1F593F0000001 DUP1 DUP3 PUSH2 0x460 DUP7 ADD MLOAD MULMOD DUP4 MULMOD PUSH2 0x460 DUP5 ADD MSTORE PUSH32 0x30644E72E131A029B85045B68181585D2833E84879B9709143E1F593F0000001 PUSH32 0x1BF82DEBA7D74902C3708CC6E70E61F30512ECA95655210E276E5858CE8F58E5 DUP4 MULMOD SWAP2 POP PUSH32 0x30644E72E131A029B85045B68181585D2833E84879B9709143E1F593F0000001 DUP1 DUP3 PUSH2 0x480 DUP7 ADD MLOAD MULMOD DUP4 MULMOD PUSH2 0x480 DUP5 ADD MSTORE PUSH32 0x30644E72E131A029B85045B68181585D2833E84879B9709143E1F593F0000001 PUSH32 0x1BF82DEBA7D74902C3708CC6E70E61F30512ECA95655210E276E5858CE8F58E5 DUP4 MULMOD SWAP2 POP PUSH32 0x30644E72E131A029B85045B68181585D2833E84879B9709143E1F593F0000001 DUP1 DUP3 PUSH2 0x4A0 DUP7 ADD MLOAD MULMOD DUP4 MULMOD PUSH2 0x4A0 DUP5 ADD MSTORE PUSH32 0x30644E72E131A029B85045B68181585D2833E84879B9709143E1F593F0000001 PUSH32 0x1BF82DEBA7D74902C3708CC6E70E61F30512ECA95655210E276E5858CE8F58E5 DUP4 MULMOD SWAP2 POP PUSH32 0x30644E72E131A029B85045B68181585D2833E84879B9709143E1F593F0000001 DUP1 DUP3 PUSH2 0x4C0 DUP7 ADD MLOAD MULMOD DUP4 MULMOD PUSH2 0x4C0 DUP5 ADD MSTORE PUSH32 0x30644E72E131A029B85045B68181585D2833E84879B9709143E1F593F0000001 PUSH32 0x1BF82DEBA7D74902C3708CC6E70E61F30512ECA95655210E276E5858CE8F58E5 DUP4 MULMOD SWAP2 POP PUSH32 0x30644E72E131A029B85045B68181585D2833E84879B9709143E1F593F0000001 DUP1 DUP3 PUSH2 0x4E0 DUP7 ADD MLOAD MULMOD DUP4 MULMOD PUSH2 0x4E0 DUP5 ADD MSTORE PUSH32 0x30644E72E131A029B85045B68181585D2833E84879B9709143E1F593F0000001 PUSH32 0x1BF82DEBA7D74902C3708CC6E70E61F30512ECA95655210E276E5858CE8F58E5 DUP4 MULMOD SWAP2 POP PUSH32 0x30644E72E131A029B85045B68181585D2833E84879B9709143E1F593F0000001 DUP1 DUP3 PUSH2 0x500 DUP7 ADD MLOAD MULMOD DUP4 MULMOD PUSH2 0x500 DUP5 ADD MSTORE PUSH32 0x30644E72E131A029B85045B68181585D2833E84879B9709143E1F593F0000001 PUSH32 0x1BF82DEBA7D74902C3708CC6E70E61F30512ECA95655210E276E5858CE8F58E5 DUP4 MULMOD SWAP2 POP PUSH32 0x30644E72E131A029B85045B68181585D2833E84879B9709143E1F593F0000001 DUP1 DUP3 PUSH2 0x520 DUP7 ADD MLOAD MULMOD DUP4 MULMOD PUSH2 0x520 DUP5 ADD MSTORE PUSH32 0x30644E72E131A029B85045B68181585D2833E84879B9709143E1F593F0000001 PUSH32 0x1BF82DEBA7D74902C3708CC6E70E61F30512ECA95655210E276E5858CE8F58E5 DUP4 MULMOD SWAP2 POP PUSH32 0x30644E72E131A029B85045B68181585D2833E84879B9709143E1F593F0000001 DUP1 DUP3 PUSH2 0x540 DUP7 ADD MLOAD MULMOD DUP4 MULMOD PUSH2 0x540 DUP5 ADD MSTORE POP POP POP JUMP JUMPDEST PUSH1 0x0 PUSH32 0x30644E72E131A029B85045B68181585D2833E84879B9709143E1F593F0000001 DUP1 PUSH32 0x30644E72E131A029B85045B68181585D2833E84879B9709143E1F593F0000001 PUSH1 0x0 DUP7 ADD CALLDATALOAD PUSH2 0x320 DUP7 ADD MLOAD MULMOD DUP4 SUB ADD MOD SWAP1 POP PUSH32 0x30644E72E131A029B85045B68181585D2833E84879B9709143E1F593F0000001 DUP1 PUSH32 0x30644E72E131A029B85045B68181585D2833E84879B9709143E1F593F0000001 PUSH1 0x20 DUP7 ADD CALLDATALOAD PUSH2 0x340 DUP7 ADD MLOAD MULMOD DUP4 SUB ADD MOD SWAP1 POP PUSH32 0x30644E72E131A029B85045B68181585D2833E84879B9709143E1F593F0000001 DUP1 PUSH32 0x30644E72E131A029B85045B68181585D2833E84879B9709143E1F593F0000001 PUSH1 0x40 DUP7 ADD CALLDATALOAD PUSH2 0x360 DUP7 ADD MLOAD MULMOD DUP4 SUB ADD MOD SWAP1 POP PUSH32 0x30644E72E131A029B85045B68181585D2833E84879B9709143E1F593F0000001 DUP1 PUSH32 0x30644E72E131A029B85045B68181585D2833E84879B9709143E1F593F0000001 PUSH1 0x60 DUP7 ADD CALLDATALOAD PUSH2 0x380 DUP7 ADD MLOAD MULMOD DUP4 SUB ADD MOD SWAP1 POP PUSH32 0x30644E72E131A029B85045B68181585D2833E84879B9709143E1F593F0000001 DUP1 PUSH32 0x30644E72E131A029B85045B68181585D2833E84879B9709143E1F593F0000001 PUSH1 0x80 DUP7 ADD CALLDATALOAD PUSH2 0x3A0 DUP7 ADD MLOAD MULMOD DUP4 SUB ADD MOD SWAP1 POP PUSH32 0x30644E72E131A029B85045B68181585D2833E84879B9709143E1F593F0000001 DUP1 PUSH32 0x30644E72E131A029B85045B68181585D2833E84879B9709143E1F593F0000001 PUSH1 0xA0 DUP7 ADD CALLDATALOAD PUSH2 0x3C0 DUP7 ADD MLOAD MULMOD DUP4 SUB ADD MOD SWAP1 POP PUSH32 0x30644E72E131A029B85045B68181585D2833E84879B9709143E1F593F0000001 DUP1 PUSH32 0x30644E72E131A029B85045B68181585D2833E84879B9709143E1F593F0000001 PUSH1 0xC0 DUP7 ADD CALLDATALOAD PUSH2 0x3E0 DUP7 ADD MLOAD MULMOD DUP4 SUB ADD MOD SWAP1 POP PUSH32 0x30644E72E131A029B85045B68181585D2833E84879B9709143E1F593F0000001 DUP1 PUSH32 0x30644E72E131A029B85045B68181585D2833E84879B9709143E1F593F0000001 PUSH1 0xE0 DUP7 ADD CALLDATALOAD PUSH2 0x400 DUP7 ADD MLOAD MULMOD DUP4 SUB ADD MOD SWAP1 POP PUSH32 0x30644E72E131A029B85045B68181585D2833E84879B9709143E1F593F0000001 DUP1 PUSH32 0x30644E72E131A029B85045B68181585D2833E84879B9709143E1F593F0000001 PUSH2 0x100 DUP7 ADD CALLDATALOAD PUSH2 0x420 DUP7 ADD MLOAD MULMOD DUP4 SUB ADD MOD SWAP1 POP PUSH32 0x30644E72E131A029B85045B68181585D2833E84879B9709143E1F593F0000001 DUP1 PUSH32 0x30644E72E131A029B85045B68181585D2833E84879B9709143E1F593F0000001 PUSH2 0x120 DUP7 ADD CALLDATALOAD PUSH2 0x440 DUP7 ADD MLOAD MULMOD DUP4 SUB ADD MOD SWAP1 POP PUSH32 0x30644E72E131A029B85045B68181585D2833E84879B9709143E1F593F0000001 DUP1 PUSH32 0x30644E72E131A029B85045B68181585D2833E84879B9709143E1F593F0000001 PUSH2 0x140 DUP7 ADD CALLDATALOAD PUSH2 0x460 DUP7 ADD MLOAD MULMOD DUP4 SUB ADD MOD SWAP1 POP PUSH32 0x30644E72E131A029B85045B68181585D2833E84879B9709143E1F593F0000001 DUP1 PUSH32 0x30644E72E131A029B85045B68181585D2833E84879B9709143E1F593F0000001 PUSH2 0x160 DUP7 ADD CALLDATALOAD PUSH2 0x480 DUP7 ADD MLOAD MULMOD DUP4 SUB ADD MOD SWAP1 POP PUSH32 0x30644E72E131A029B85045B68181585D2833E84879B9709143E1F593F0000001 DUP1 PUSH32 0x30644E72E131A029B85045B68181585D2833E84879B9709143E1F593F0000001 PUSH2 0x180 DUP7 ADD CALLDATALOAD PUSH2 0x4A0 DUP7 ADD MLOAD MULMOD DUP4 SUB ADD MOD SWAP1 POP PUSH32 0x30644E72E131A029B85045B68181585D2833E84879B9709143E1F593F0000001 DUP1 PUSH32 0x30644E72E131A029B85045B68181585D2833E84879B9709143E1F593F0000001 PUSH2 0x1A0 DUP7 ADD CALLDATALOAD PUSH2 0x4C0 DUP7 ADD MLOAD MULMOD DUP4 SUB ADD MOD SWAP1 POP PUSH32 0x30644E72E131A029B85045B68181585D2833E84879B9709143E1F593F0000001 DUP1 PUSH32 0x30644E72E131A029B85045B68181585D2833E84879B9709143E1F593F0000001 PUSH2 0x1C0 DUP7 ADD CALLDATALOAD PUSH2 0x4E0 DUP7 ADD MLOAD MULMOD DUP4 SUB ADD MOD SWAP1 POP PUSH32 0x30644E72E131A029B85045B68181585D2833E84879B9709143E1F593F0000001 DUP1 PUSH32 0x30644E72E131A029B85045B68181585D2833E84879B9709143E1F593F0000001 PUSH2 0x1E0 DUP7 ADD CALLDATALOAD PUSH2 0x500 DUP7 ADD MLOAD MULMOD DUP4 SUB ADD MOD SWAP1 POP PUSH32 0x30644E72E131A029B85045B68181585D2833E84879B9709143E1F593F0000001 DUP1 PUSH32 0x30644E72E131A029B85045B68181585D2833E84879B9709143E1F593F0000001 PUSH2 0x200 DUP7 ADD CALLDATALOAD PUSH2 0x520 DUP7 ADD MLOAD MULMOD DUP4 SUB ADD MOD SWAP1 POP PUSH32 0x30644E72E131A029B85045B68181585D2833E84879B9709143E1F593F0000001 DUP1 PUSH32 0x30644E72E131A029B85045B68181585D2833E84879B9709143E1F593F0000001 PUSH2 0x220 DUP7 ADD CALLDATALOAD PUSH2 0x540 DUP7 ADD MLOAD MULMOD DUP4 SUB ADD MOD SWAP1 POP DUP1 PUSH2 0x180 DUP4 ADD MSTORE POP POP POP JUMP JUMPDEST PUSH2 0x180 DUP2 ADD MLOAD PUSH32 0x30644E72E131A029B85045B68181585D2833E84879B9709143E1F593F0000001 PUSH2 0x2C0 DUP4 ADD MLOAD PUSH2 0x320 DUP5 ADD MLOAD MULMOD PUSH32 0x30644E72E131A029B85045B68181585D2833E84879B9709143E1F593F0000001 DUP1 PUSH2 0x2A4 CALLDATALOAD PUSH1 0x20 DUP7 ADD MLOAD MULMOD PUSH2 0x244 CALLDATALOAD ADDMOD PUSH32 0x30644E72E131A029B85045B68181585D2833E84879B9709143E1F593F0000001 PUSH1 0x40 DUP6 ADD MLOAD DUP3 ADDMOD SWAP1 POP PUSH32 0x30644E72E131A029B85045B68181585D2833E84879B9709143E1F593F0000001 DUP1 PUSH2 0x2C4 CALLDATALOAD PUSH1 0x20 DUP8 ADD MLOAD MULMOD PUSH2 0x264 CALLDATALOAD ADDMOD PUSH32 0x30644E72E131A029B85045B68181585D2833E84879B9709143E1F593F0000001 PUSH1 0x40 DUP7 ADD MLOAD DUP3 ADDMOD SWAP1 POP PUSH32 0x30644E72E131A029B85045B68181585D2833E84879B9709143E1F593F0000001 PUSH1 0x40 DUP7 ADD MLOAD PUSH2 0x284 CALLDATALOAD ADDMOD PUSH32 0x30644E72E131A029B85045B68181585D2833E84879B9709143E1F593F0000001 DUP2 PUSH32 0x30644E72E131A029B85045B68181585D2833E84879B9709143E1F593F0000001 DUP5 DUP7 MULMOD MULMOD PUSH32 0x30644E72E131A029B85045B68181585D2833E84879B9709143E1F593F0000001 PUSH2 0x2E4 CALLDATALOAD DUP3 MULMOD SWAP1 POP PUSH32 0x30644E72E131A029B85045B68181585D2833E84879B9709143E1F593F0000001 PUSH1 0x0 DUP9 ADD MLOAD DUP3 MULMOD SWAP1 POP PUSH32 0x30644E72E131A029B85045B68181585D2833E84879B9709143E1F593F0000001 DUP1 DUP7 PUSH32 0x30644E72E131A029B85045B68181585D2833E84879B9709143E1F593F0000001 SUB MOD DUP8 ADDMOD PUSH32 0x30644E72E131A029B85045B68181585D2833E84879B9709143E1F593F0000001 DUP1 DUP4 PUSH32 0x30644E72E131A029B85045B68181585D2833E84879B9709143E1F593F0000001 SUB MOD DUP3 ADDMOD SWAP1 POP DUP1 PUSH2 0x1A0 DUP10 ADD MSTORE POP POP POP POP POP POP POP POP JUMP JUMPDEST DUP2 MLOAD DUP2 MSTORE PUSH1 0x20 DUP3 ADD MLOAD PUSH1 0x20 DUP3 ADD MSTORE POP POP JUMP JUMPDEST DUP2 DUP2 MSTORE DUP3 PUSH1 0x20 DUP3 ADD MSTORE POP POP POP JUMP JUMPDEST DUP2 CALLDATALOAD DUP2 MSTORE PUSH1 0x20 DUP3 ADD CALLDATALOAD PUSH1 0x20 DUP3 ADD MSTORE POP POP JUMP JUMPDEST PUSH1 0x40 MLOAD DUP2 MLOAD DUP2 MSTORE PUSH1 0x20 DUP3 ADD MLOAD PUSH1 0x20 DUP3 ADD MSTORE DUP3 MLOAD PUSH1 0x40 DUP3 ADD MSTORE PUSH1 0x20 DUP4 ADD MLOAD PUSH1 0x60 DUP3 ADD MSTORE PUSH1 0x40 DUP3 PUSH1 0x80 DUP4 PUSH1 0x6 PUSH2 0x7D0 GAS SUB STATICCALL DUP1 PUSH2 0x2752 JUMPI PUSH1 0x0 DUP1 MSTORE PUSH1 0x20 PUSH1 0x0 RETURN JUMPDEST POP POP POP POP JUMP JUMPDEST PUSH1 0x0 PUSH1 0x40 MLOAD DUP4 DUP2 MSTORE DUP5 PUSH1 0x20 DUP3 ADD MSTORE DUP6 PUSH1 0x40 DUP3 ADD MSTORE PUSH1 0x40 DUP2 PUSH1 0x60 DUP4 PUSH1 0x7 PUSH2 0x7D0 GAS SUB STATICCALL SWAP2 POP DUP2 PUSH2 0x278B JUMPI PUSH1 0x0 DUP1 MSTORE PUSH1 0x20 PUSH1 0x0 RETURN JUMPDEST DUP3 MLOAD PUSH1 0x40 DUP3 ADD MSTORE PUSH1 0x20 DUP4 ADD MLOAD PUSH1 0x60 DUP3 ADD MSTORE PUSH1 0x40 DUP4 PUSH1 0x80 DUP4 PUSH1 0x6 PUSH2 0x7D0 GAS SUB STATICCALL SWAP2 POP DUP2 PUSH2 0x27BB JUMPI PUSH1 0x0 DUP1 MSTORE PUSH1 0x20 PUSH1 0x0 RETURN JUMPDEST POP POP POP POP POP POP JUMP JUMPDEST PUSH1 0x0 PUSH1 0x40 MLOAD DUP4 DUP2 MSTORE DUP5 PUSH1 0x20 DUP3 ADD MSTORE DUP6 PUSH1 0x40 DUP3 ADD MSTORE PUSH1 0x40 DUP4 PUSH1 0x60 DUP4 PUSH1 0x7 PUSH2 0x7D0 GAS SUB STATICCALL SWAP2 POP DUP2 PUSH2 0x27F6 JUMPI PUSH1 0x0 DUP1 MSTORE PUSH1 0x20 PUSH1 0x0 RETURN JUMPDEST POP POP POP POP POP POP JUMP JUMPDEST PUSH2 0x280F DUP4 PUSH1 0x20 DUP5 ADD MLOAD DUP5 MLOAD DUP5 PUSH2 0x27C3 JUMP JUMPDEST POP POP POP JUMP JUMPDEST PUSH2 0x1C0 DUP2 ADD PUSH1 0x40 DUP3 ADD MLOAD PUSH1 0x40 MLOAD PUSH2 0x100 DUP2 ADD PUSH1 0x40 MSTORE PUSH2 0x2874 PUSH32 0x28FA8051DE3BB673AC401B7AC0687491C5EB7EB0752DB36620D04A367AAF3AEC PUSH32 0x1ED233043906512D2E3BE00EC55899E19C7D835C09316FFE06ECD50D46AA8A88 DUP6 PUSH2 0x26F3 JUMP JUMPDEST PUSH2 0x28E9 PUSH32 0x30644E72E131A029B85045B68181585D2833E84879B9709143E1F593F0000001 PUSH2 0x264 CALLDATALOAD PUSH2 0x244 CALLDATALOAD MULMOD PUSH32 0x174769AC974C7D4EC853715B086DB4CDE75ECECD0FAD5734FBA49FE5BF303AE1 PUSH32 0x21B829899DF9072C9132DF250A9D0148D0C12BBD0E9020F3232DE8910DBD6D6E DUP7 PUSH2 0x2758 JUMP JUMPDEST PUSH2 0x2938 PUSH2 0x244 CALLDATALOAD PUSH32 0x25D4756F3CC9F8FED8249F08D87B7DB574447177F99C5311E5A9EF19E8EB3FC9 PUSH32 0xF5CB9A1D3070C0BD58F147D5572A802F7E04C821BBFA19308BB789397F45128 DUP7 PUSH2 0x2758 JUMP JUMPDEST PUSH2 0x2987 PUSH2 0x264 CALLDATALOAD PUSH32 0x174899F136442B18989B8E6D6705FA1A1435CAAC3BF213DCA91DC74CC963620F PUSH32 0x190F203B4B7ABC7C2D332F1C495D79F139AD7CA135B9CBE7692CBC2DC688847C DUP7 PUSH2 0x2758 JUMP JUMPDEST PUSH2 0x29D6 PUSH2 0x284 CALLDATALOAD PUSH32 0x80053494BA98B0B94E03EF9FDADC6ADEF42A32BB3E514CCE1A822EE46C18D5B PUSH32 0x1001104438EBD97D208BE74837830BFEE46566AF17EEAA94C96443637BA0E787 DUP7 PUSH2 0x2758 JUMP JUMPDEST PUSH1 0xA0 DUP5 ADD MLOAD PUSH32 0x30644E72E131A029B85045B68181585D2833E84879B9709143E1F593F0000001 DUP4 PUSH32 0x30644E72E131A029B85045B68181585D2833E84879B9709143E1F593F0000001 DUP4 PUSH2 0x244 CALLDATALOAD ADDMOD ADDMOD PUSH32 0x30644E72E131A029B85045B68181585D2833E84879B9709143E1F593F0000001 DUP5 PUSH32 0x30644E72E131A029B85045B68181585D2833E84879B9709143E1F593F0000001 DUP1 PUSH1 0x2 DUP7 MULMOD PUSH2 0x264 CALLDATALOAD ADDMOD ADDMOD PUSH32 0x30644E72E131A029B85045B68181585D2833E84879B9709143E1F593F0000001 DUP6 PUSH32 0x30644E72E131A029B85045B68181585D2833E84879B9709143E1F593F0000001 DUP1 PUSH1 0x3 DUP8 MULMOD PUSH2 0x284 CALLDATALOAD ADDMOD ADDMOD PUSH32 0x30644E72E131A029B85045B68181585D2833E84879B9709143E1F593F0000001 PUSH1 0x0 DUP10 ADD MLOAD PUSH32 0x30644E72E131A029B85045B68181585D2833E84879B9709143E1F593F0000001 DUP4 PUSH32 0x30644E72E131A029B85045B68181585D2833E84879B9709143E1F593F0000001 DUP7 DUP9 MULMOD MULMOD MULMOD PUSH32 0x30644E72E131A029B85045B68181585D2833E84879B9709143E1F593F0000001 PUSH2 0x2C0 DUP11 ADD MLOAD PUSH2 0x320 DUP12 ADD MLOAD MULMOD PUSH2 0x2B6B PUSH1 0xC4 PUSH1 0xC0 DUP10 ADD PUSH2 0x2701 JUMP JUMPDEST PUSH2 0x2BC4 PUSH32 0x30644E72E131A029B85045B68181585D2833E84879B9709143E1F593F0000001 PUSH2 0x160 DUP13 ADD MLOAD PUSH32 0x30644E72E131A029B85045B68181585D2833E84879B9709143E1F593F0000001 DUP5 DUP7 ADDMOD ADDMOD PUSH1 0xC0 DUP10 ADD DUP10 PUSH2 0x27FE JUMP JUMPDEST PUSH32 0x30644E72E131A029B85045B68181585D2833E84879B9709143E1F593F0000001 DUP9 PUSH32 0x30644E72E131A029B85045B68181585D2833E84879B9709143E1F593F0000001 DUP1 PUSH2 0x2A4 CALLDATALOAD PUSH1 0x20 DUP16 ADD MLOAD MULMOD PUSH2 0x244 CALLDATALOAD ADDMOD ADDMOD SWAP5 POP PUSH32 0x30644E72E131A029B85045B68181585D2833E84879B9709143E1F593F0000001 DUP9 PUSH32 0x30644E72E131A029B85045B68181585D2833E84879B9709143E1F593F0000001 DUP1 PUSH2 0x2C4 CALLDATALOAD PUSH1 0x20 DUP16 ADD MLOAD MULMOD PUSH2 0x264 CALLDATALOAD ADDMOD ADDMOD SWAP4 POP PUSH32 0x30644E72E131A029B85045B68181585D2833E84879B9709143E1F593F0000001 PUSH2 0x2E4 CALLDATALOAD PUSH32 0x30644E72E131A029B85045B68181585D2833E84879B9709143E1F593F0000001 PUSH1 0x20 DUP14 ADD MLOAD PUSH1 0x0 DUP15 ADD MLOAD MULMOD MULMOD SWAP3 POP PUSH2 0x2D59 PUSH32 0x30644E72E131A029B85045B68181585D2833E84879B9709143E1F593F0000001 DUP5 PUSH32 0x30644E72E131A029B85045B68181585D2833E84879B9709143E1F593F0000001 DUP8 DUP10 MULMOD MULMOD PUSH32 0x6EF8122596F21E545A0441AC990A590CA53A8965189F85E3583B10AD5C1F6A6 PUSH32 0x2FAA84E5E0AEB3CC9E5D3E1BEA577D70D5D828518A0CB7D271C76BA1384769FF PUSH1 0x40 DUP12 ADD PUSH2 0x27C3 JUMP JUMPDEST PUSH2 0x2D68 PUSH2 0x104 PUSH1 0x80 DUP10 ADD PUSH2 0x2701 JUMP JUMPDEST PUSH2 0x2D84 PUSH1 0x80 DUP12 ADD MLOAD PUSH1 0x20 PUSH2 0x144 ADD CALLDATALOAD PUSH2 0x144 CALLDATALOAD PUSH1 0x80 DUP12 ADD PUSH2 0x2758 JUMP JUMPDEST PUSH32 0x30644E72E131A029B85045B68181585D2833E84879B9709143E1F593F0000001 PUSH1 0x80 DUP12 ADD MLOAD PUSH1 0x80 DUP13 ADD MLOAD MULMOD PUSH2 0x2DC8 DUP2 PUSH1 0x20 PUSH2 0x184 ADD CALLDATALOAD PUSH2 0x184 CALLDATALOAD PUSH1 0x80 DUP13 ADD PUSH2 0x2758 JUMP JUMPDEST PUSH2 0x2DE4 PUSH2 0x2E0 DUP13 ADD MLOAD PUSH1 0xA0 DUP11 ADD MLOAD PUSH1 0x80 DUP12 ADD MLOAD PUSH1 0x80 DUP13 ADD PUSH2 0x27C3 JUMP JUMPDEST PUSH32 0x30644E72E131A029B85045B68181585D97816A916871CA8D3C208C16D87CFD47 PUSH1 0x20 PUSH1 0x40 DUP11 ADD ADD MLOAD PUSH32 0x30644E72E131A029B85045B68181585D97816A916871CA8D3C208C16D87CFD47 SUB MOD PUSH1 0x20 PUSH1 0x40 DUP11 ADD ADD MSTORE PUSH32 0x30644E72E131A029B85045B68181585D97816A916871CA8D3C208C16D87CFD47 PUSH1 0xA0 DUP10 ADD MLOAD PUSH32 0x30644E72E131A029B85045B68181585D97816A916871CA8D3C208C16D87CFD47 SUB MOD PUSH1 0xA0 DUP10 ADD MSTORE PUSH2 0x2E90 DUP9 DUP12 PUSH2 0x2713 JUMP JUMPDEST PUSH2 0x2E9D PUSH1 0x40 DUP10 ADD DUP12 PUSH2 0x2713 JUMP JUMPDEST PUSH2 0x2EAA PUSH1 0x80 DUP10 ADD DUP12 PUSH2 0x2713 JUMP JUMPDEST POP POP POP POP POP POP POP POP POP POP POP JUMP JUMPDEST PUSH2 0x200 DUP2 ADD PUSH2 0x2ECA PUSH2 0x1C0 DUP4 ADD DUP3 PUSH2 0x26E1 JUMP JUMPDEST PUSH2 0x2EE1 PUSH1 0xC0 DUP4 ADD MLOAD PUSH1 0x20 PUSH1 0x4 ADD CALLDATALOAD PUSH1 0x4 CALLDATALOAD DUP5 PUSH2 0x2758 JUMP JUMPDEST PUSH2 0x2EF8 PUSH1 0xE0 DUP4 ADD MLOAD PUSH1 0x20 PUSH1 0x44 ADD CALLDATALOAD PUSH1 0x44 CALLDATALOAD DUP5 PUSH2 0x2758 JUMP JUMPDEST PUSH2 0x2F10 PUSH2 0x100 DUP4 ADD MLOAD PUSH1 0x20 PUSH1 0x84 ADD CALLDATALOAD PUSH1 0x84 CALLDATALOAD DUP5 PUSH2 0x2758 JUMP JUMPDEST PUSH2 0x2F61 PUSH2 0x120 DUP4 ADD MLOAD PUSH32 0x98E106867B33458F88354180AC52189382888C8E3FA8C56DD7195A5C6F89790 PUSH32 0x165E54FCBEC2F4D21B2EC39002BE5DA9D8479AF7A9DEE8443A4BDC8D19CF36A1 DUP5 PUSH2 0x2758 JUMP JUMPDEST PUSH2 0x2FB2 PUSH2 0x140 DUP4 ADD MLOAD PUSH32 0x1B7B3B9BBDF404C888A0501DEC16AB2481F4D4FE030F2AFD16A3B05384164DF2 PUSH32 0x17C8EB9B5CA5A5B93995853155627A94727E865D9D5DAED9BB5C32B4C5E7A2B2 DUP5 PUSH2 0x2758 JUMP JUMPDEST POP POP JUMP JUMPDEST PUSH32 0x30644E72E131A029B85045B68181585D2833E84879B9709143E1F593F0000001 PUSH2 0x1A0 DUP3 ADD MLOAD PUSH32 0x30644E72E131A029B85045B68181585D2833E84879B9709143E1F593F0000001 SUB MOD PUSH32 0x30644E72E131A029B85045B68181585D2833E84879B9709143E1F593F0000001 DUP1 PUSH1 0xC0 DUP5 ADD MLOAD PUSH2 0x244 CALLDATALOAD MULMOD DUP3 ADDMOD SWAP1 POP PUSH32 0x30644E72E131A029B85045B68181585D2833E84879B9709143E1F593F0000001 DUP1 PUSH1 0xE0 DUP5 ADD MLOAD PUSH2 0x264 CALLDATALOAD MULMOD DUP3 ADDMOD SWAP1 POP PUSH32 0x30644E72E131A029B85045B68181585D2833E84879B9709143E1F593F0000001 DUP1 PUSH2 0x100 DUP5 ADD MLOAD PUSH2 0x284 CALLDATALOAD MULMOD DUP3 ADDMOD SWAP1 POP PUSH32 0x30644E72E131A029B85045B68181585D2833E84879B9709143E1F593F0000001 DUP1 PUSH2 0x120 DUP5 ADD MLOAD PUSH2 0x2A4 CALLDATALOAD MULMOD DUP3 ADDMOD SWAP1 POP PUSH32 0x30644E72E131A029B85045B68181585D2833E84879B9709143E1F593F0000001 DUP1 PUSH2 0x140 DUP5 ADD MLOAD PUSH2 0x2C4 CALLDATALOAD MULMOD DUP3 ADDMOD SWAP1 POP PUSH32 0x30644E72E131A029B85045B68181585D2833E84879B9709143E1F593F0000001 DUP1 PUSH2 0x160 DUP5 ADD MLOAD PUSH2 0x2E4 CALLDATALOAD MULMOD DUP3 ADDMOD SWAP1 POP PUSH2 0x3136 DUP2 PUSH1 0x2 PUSH1 0x1 PUSH2 0x240 DUP7 ADD PUSH2 0x27C3 JUMP JUMPDEST POP POP JUMP JUMPDEST PUSH1 0x0 PUSH1 0x40 MLOAD PUSH2 0x240 DUP2 ADD PUSH1 0x40 MSTORE PUSH2 0x180 DUP2 ADD PUSH2 0x1C0 DUP3 ADD PUSH2 0x200 DUP4 ADD PUSH2 0x3162 PUSH2 0x1C4 DUP5 PUSH2 0x2701 JUMP JUMPDEST PUSH2 0x316E PUSH2 0x204 DUP4 PUSH2 0x2701 JUMP JUMPDEST PUSH2 0x317E PUSH2 0x160 DUP8 ADD MLOAD DUP4 DUP7 PUSH2 0x27FE JUMP JUMPDEST PUSH2 0x3188 DUP4 DUP6 PUSH2 0x2713 JUMP JUMPDEST PUSH32 0x30644E72E131A029B85045B68181585D97816A916871CA8D3C208C16D87CFD47 PUSH1 0x20 DUP6 ADD MLOAD PUSH32 0x30644E72E131A029B85045B68181585D97816A916871CA8D3C208C16D87CFD47 SUB MOD PUSH1 0x20 DUP6 ADD MSTORE PUSH32 0x2D20C76D4E405357DB40AE622A7E5790A5B8D1B53336BE95FEA4EB8030B84B70 PUSH1 0x40 DUP6 ADD MSTORE PUSH32 0x143FA88244C7330E1435E6AB41B4D86DD4E616E1F10A6F49E6024683AD6923C PUSH1 0x60 DUP6 ADD MSTORE PUSH32 0x1079D42C859B2A6D1E2A237ACAADA2548DCE0692430F269B0D9C50D32FEE397 PUSH1 0x80 DUP6 ADD MSTORE PUSH32 0x3DD7DB698A1C085CA914C57C7141186097E537DA94A12F0462F8CB003F97978 PUSH1 0xA0 DUP6 ADD MSTORE PUSH2 0x3280 PUSH1 0x60 DUP8 ADD MLOAD DUP5 PUSH1 0xC0 DUP8 ADD PUSH2 0x27FE JUMP JUMPDEST PUSH32 0x30644E72E131A029B85045B68181585D2833E84879B9709143E1F593F0000001 PUSH1 0x60 DUP8 ADD MLOAD PUSH2 0x160 DUP9 ADD MLOAD MULMOD PUSH32 0x30644E72E131A029B85045B68181585D2833E84879B9709143E1F593F0000001 PUSH32 0x1BF82DEBA7D74902C3708CC6E70E61F30512ECA95655210E276E5858CE8F58E5 DUP3 MULMOD SWAP1 POP PUSH2 0x32FE DUP2 DUP5 DUP5 PUSH2 0x27FE JUMP JUMPDEST PUSH2 0x330B DUP3 PUSH1 0xC0 DUP8 ADD PUSH2 0x2713 JUMP JUMPDEST PUSH2 0x331C PUSH2 0x200 DUP9 ADD PUSH1 0xC0 DUP8 ADD PUSH2 0x2713 JUMP JUMPDEST PUSH32 0x30644E72E131A029B85045B68181585D97816A916871CA8D3C208C16D87CFD47 PUSH1 0x20 PUSH2 0x240 ADD DUP9 ADD MLOAD PUSH32 0x30644E72E131A029B85045B68181585D97816A916871CA8D3C208C16D87CFD47 SUB MOD PUSH1 0x20 PUSH2 0x240 ADD DUP9 ADD MSTORE PUSH2 0x3383 PUSH2 0x240 DUP9 ADD PUSH1 0xC0 DUP8 ADD PUSH2 0x2713 JUMP JUMPDEST PUSH32 0x198E9393920D483A7260BFB731FB5D25F1AA493335A9E71297E485B7AEF312C2 PUSH2 0x100 DUP7 ADD MSTORE PUSH32 0x1800DEEF121F1E76426A00665E5C4479674322D4F75EDADD46DEBD5CD992F6ED PUSH2 0x120 DUP7 ADD MSTORE PUSH32 0x90689D0585FF075EC9E99AD690C3395BC4B313370B38EF355ACDADCD122975B PUSH2 0x140 DUP7 ADD MSTORE PUSH32 0x12C85EA5DB8C6DEB4AAB71808DCB408FE3D1E7690C43D37B4CE6CC0166FA7DAA PUSH2 0x160 DUP7 ADD MSTORE PUSH1 0x20 DUP6 PUSH2 0x180 DUP8 PUSH1 0x8 PUSH2 0x7D0 GAS SUB STATICCALL DUP6 MLOAD DUP2 AND SWAP7 POP POP POP POP POP POP POP SWAP2 SWAP1 POP JUMP JUMPDEST PUSH1 0x40 MLOAD PUSH2 0x560 DUP2 ADD PUSH1 0x40 MSTORE PUSH2 0x3452 PUSH2 0x206 JUMP JUMPDEST PUSH2 0x345C DUP4 DUP3 PUSH2 0x250 JUMP JUMPDEST PUSH2 0x3465 DUP2 PUSH2 0xB72 JUMP JUMPDEST PUSH2 0x346F DUP4 DUP3 PUSH2 0x1E7D JUMP JUMPDEST PUSH2 0x3478 DUP2 PUSH2 0x248F JUMP JUMPDEST PUSH2 0x3481 DUP2 PUSH2 0x2814 JUMP JUMPDEST PUSH2 0x348A DUP2 PUSH2 0x2EB7 JUMP JUMPDEST PUSH2 0x3493 DUP2 PUSH2 0x2FB6 JUMP JUMPDEST PUSH2 0x349C DUP2 PUSH2 0x313A JUMP JUMPDEST PUSH2 0x560 DUP3 SUB PUSH1 0x40 MSTORE DUP1 PUSH1 0x0 MSTORE PUSH1 0x20 PUSH1 0x0 RETURN JUMPDEST PUSH1 0x0 DUP1 REVERT JUMPDEST PUSH1 0x0 DUP1 REVERT JUMPDEST PUSH1 0x0 DUP2 SWAP1 POP DUP3 PUSH1 0x20 PUSH1 0x18 MUL DUP3 ADD GT ISZERO PUSH2 0x34D4 JUMPI PUSH2 0x34D3 PUSH2 0x34B3 JUMP JUMPDEST JUMPDEST SWAP3 SWAP2 POP POP JUMP JUMPDEST PUSH1 0x0 DUP2 SWAP1 POP DUP3 PUSH1 0x20 PUSH1 0x12 MUL DUP3 ADD GT ISZERO PUSH2 0x34F6 JUMPI PUSH2 0x34F5 PUSH2 0x34B3 JUMP JUMPDEST JUMPDEST SWAP3 SWAP2 POP POP JUMP JUMPDEST PUSH1 0x0 DUP1 PUSH2 0x540 DUP4 DUP6 SUB SLT ISZERO PUSH2 0x3514 JUMPI PUSH2 0x3513 PUSH2 0x34AE JUMP JUMPDEST JUMPDEST PUSH1 0x0 PUSH2 0x3522 DUP6 DUP3 DUP7 ADD PUSH2 0x34B8 JUMP JUMPDEST SWAP3 POP POP PUSH2 0x300 PUSH2 0x3534 DUP6 DUP3 DUP7 ADD PUSH2 0x34DA JUMP JUMPDEST SWAP2 POP POP SWAP3 POP SWAP3 SWAP1 POP JUMP JUMPDEST PUSH1 0x0 DUP2 ISZERO ISZERO SWAP1 POP SWAP2 SWAP1 POP JUMP JUMPDEST PUSH2 0x3553 DUP2 PUSH2 0x353E JUMP JUMPDEST DUP3 MSTORE POP POP JUMP JUMPDEST PUSH1 0x0 PUSH1 0x20 DUP3 ADD SWAP1 POP PUSH2 0x356E PUSH1 0x0 DUP4 ADD DUP5 PUSH2 0x354A JUMP JUMPDEST SWAP3 SWAP2 POP POP JUMP INVALID LOG2 PUSH5 0x6970667358 0x22 SLT KECCAK256 SWAP14 GASPRICE SHL DUP1 0xAE SUB 0xEC PUSH21 0x11BADD49CC973B78701EB7352BEE81916CD379B40D PUSH20 0xC76D64736F6C6343000812003300000000000000 "},"methodIdentifiers":{"verifyProof(uint256[24],uint256[18])":"2e05aefd"}}}}}