{
  "_format": "hh-sol-artifact-1",
  "contractName": "Tazza",
  "sourceName": "contracts/Tazza.sol",
  "abi": [
    {
      "inputs": [
        {
          "internalType": "contract KeyGenerationVerifier",
          "name": "_keyGenerationVerifier",
          "type": "address"
        },
        {
          "internalType": "contract CreateShuffledDeckVerifier",
          "name": "_createShuffledDeckVerifier",
          "type": "address"
        }
      ],
      "stateMutability": "nonpayable",
      "type": "constructor"
    },
    {
      "inputs": [],
      "name": "createShuffledDeckVerifier",
      "outputs": [
        {
          "internalType": "contract CreateShuffledDeckVerifier",
          "name": "",
          "type": "address"
        }
      ],
      "stateMutability": "view",
      "type": "function"
    },
    {
      "inputs": [
        {
          "internalType": "address",
          "name": "owner",
          "type": "address"
        },
        {
          "components": [
            {
              "internalType": "address",
              "name": "addr",
              "type": "address"
            },
            {
              "internalType": "uint256[2]",
              "name": "public_key",
              "type": "uint256[2]"
            }
          ],
          "internalType": "struct ITazza.Player[]",
          "name": "players",
          "type": "tuple[]"
        },
        {
          "internalType": "uint256",
          "name": "num_cards",
          "type": "uint256"
        }
      ],
      "name": "create_deck",
      "outputs": [
        {
          "internalType": "uint256",
          "name": "",
          "type": "uint256"
        }
      ],
      "stateMutability": "nonpayable",
      "type": "function"
    },
    {
      "inputs": [
        {
          "internalType": "uint256",
          "name": "deck_ind",
          "type": "uint256"
        },
        {
          "internalType": "uint256[24]",
          "name": "proof",
          "type": "uint256[24]"
        },
        {
          "internalType": "uint256[18]",
          "name": "pubSignals",
          "type": "uint256[18]"
        }
      ],
      "name": "create_shuffled_deck",
      "outputs": [
        {
          "internalType": "bool",
          "name": "",
          "type": "bool"
        }
      ],
      "stateMutability": "nonpayable",
      "type": "function"
    },
    {
      "inputs": [],
      "name": "deck_count",
      "outputs": [
        {
          "internalType": "uint256",
          "name": "",
          "type": "uint256"
        }
      ],
      "stateMutability": "view",
      "type": "function"
    },
    {
      "inputs": [
        {
          "internalType": "uint256",
          "name": "",
          "type": "uint256"
        }
      ],
      "name": "decks",
      "outputs": [
        {
          "internalType": "address",
          "name": "owner",
          "type": "address"
        },
        {
          "internalType": "uint256",
          "name": "num_players",
          "type": "uint256"
        },
        {
          "internalType": "uint256",
          "name": "num_cards",
          "type": "uint256"
        }
      ],
      "stateMutability": "view",
      "type": "function"
    },
    {
      "inputs": [
        {
          "components": [
            {
              "internalType": "address",
              "name": "addr",
              "type": "address"
            },
            {
              "internalType": "uint256[2]",
              "name": "public_key",
              "type": "uint256[2]"
            }
          ],
          "internalType": "struct ITazza.Player[]",
          "name": "",
          "type": "tuple[]"
        },
        {
          "components": [
            {
              "internalType": "uint256",
              "name": "c1_x",
              "type": "uint256"
            },
            {
              "internalType": "uint256",
              "name": "c1_y",
              "type": "uint256"
            },
            {
              "internalType": "uint256",
              "name": "c2_x",
              "type": "uint256"
            },
            {
              "internalType": "uint256",
              "name": "c2_y",
              "type": "uint256"
            },
            {
              "internalType": "uint256",
              "name": "flag",
              "type": "uint256"
            }
          ],
          "internalType": "struct ITazza.Card",
          "name": "card",
          "type": "tuple"
        }
      ],
      "name": "decode_card",
      "outputs": [
        {
          "internalType": "uint256",
          "name": "c",
          "type": "uint256"
        }
      ],
      "stateMutability": "pure",
      "type": "function"
    },
    {
      "inputs": [
        {
          "internalType": "uint256",
          "name": "deck_ind",
          "type": "uint256"
        },
        {
          "internalType": "uint256",
          "name": "card_ind",
          "type": "uint256"
        },
        {
          "internalType": "uint256",
          "name": "player_index",
          "type": "uint256"
        }
      ],
      "name": "decrypt_card",
      "outputs": [],
      "stateMutability": "nonpayable",
      "type": "function"
    },
    {
      "inputs": [
        {
          "components": [
            {
              "internalType": "address",
              "name": "addr",
              "type": "address"
            },
            {
              "internalType": "uint256[2]",
              "name": "public_key",
              "type": "uint256[2]"
            }
          ],
          "internalType": "struct ITazza.Player[]",
          "name": "",
          "type": "tuple[]"
        },
        {
          "internalType": "uint256",
          "name": "c",
          "type": "uint256"
        }
      ],
      "name": "encode_card",
      "outputs": [
        {
          "components": [
            {
              "internalType": "uint256",
              "name": "c1_x",
              "type": "uint256"
            },
            {
              "internalType": "uint256",
              "name": "c1_y",
              "type": "uint256"
            },
            {
              "internalType": "uint256",
              "name": "c2_x",
              "type": "uint256"
            },
            {
              "internalType": "uint256",
              "name": "c2_y",
              "type": "uint256"
            },
            {
              "internalType": "uint256",
              "name": "flag",
              "type": "uint256"
            }
          ],
          "internalType": "struct ITazza.Card",
          "name": "card",
          "type": "tuple"
        }
      ],
      "stateMutability": "pure",
      "type": "function"
    },
    {
      "inputs": [],
      "name": "keyGenerationVerifier",
      "outputs": [
        {
          "internalType": "contract KeyGenerationVerifier",
          "name": "",
          "type": "address"
        }
      ],
      "stateMutability": "view",
      "type": "function"
    },
    {
      "inputs": [
        {
          "internalType": "uint256",
          "name": "deck_ind",
          "type": "uint256"
        },
        {
          "internalType": "uint256",
          "name": "card_ind",
          "type": "uint256"
        }
      ],
      "name": "open_card",
      "outputs": [
        {
          "internalType": "uint256",
          "name": "",
          "type": "uint256"
        }
      ],
      "stateMutability": "view",
      "type": "function"
    },
    {
      "inputs": [
        {
          "internalType": "uint256",
          "name": "deck_ind",
          "type": "uint256"
        },
        {
          "components": [
            {
              "internalType": "uint256",
              "name": "c1_x",
              "type": "uint256"
            },
            {
              "internalType": "uint256",
              "name": "c1_y",
              "type": "uint256"
            },
            {
              "internalType": "uint256",
              "name": "c2_x",
              "type": "uint256"
            },
            {
              "internalType": "uint256",
              "name": "c2_y",
              "type": "uint256"
            },
            {
              "internalType": "uint256",
              "name": "flag",
              "type": "uint256"
            }
          ],
          "internalType": "struct ITazza.Card[]",
          "name": "cards",
          "type": "tuple[]"
        }
      ],
      "name": "shuffle_deck",
      "outputs": [],
      "stateMutability": "nonpayable",
      "type": "function"
    },
    {
      "inputs": [
        {
          "internalType": "uint256[24]",
          "name": "proof",
          "type": "uint256[24]"
        },
        {
          "internalType": "uint256[2]",
          "name": "pubSignals",
          "type": "uint256[2]"
        }
      ],
      "name": "verify_public_key",
      "outputs": [
        {
          "internalType": "bool",
          "name": "",
          "type": "bool"
        }
      ],
      "stateMutability": "view",
      "type": "function"
    }
  ],
  "bytecode": "0x60806040523480156200001157600080fd5b506040516200196f3803806200196f83398181016040528101906200003791906200018b565b816000806101000a81548173ffffffffffffffffffffffffffffffffffffffff021916908373ffffffffffffffffffffffffffffffffffffffff16021790555080600160006101000a81548173ffffffffffffffffffffffffffffffffffffffff021916908373ffffffffffffffffffffffffffffffffffffffff16021790555060006002819055505050620001d2565b600080fd5b600073ffffffffffffffffffffffffffffffffffffffff82169050919050565b6000620000fa82620000cd565b9050919050565b60006200010e82620000ed565b9050919050565b620001208162000101565b81146200012c57600080fd5b50565b600081519050620001408162000115565b92915050565b60006200015382620000ed565b9050919050565b620001658162000146565b81146200017157600080fd5b50565b60008151905062000185816200015a565b92915050565b60008060408385031215620001a557620001a4620000c8565b5b6000620001b5858286016200012f565b9250506020620001c88582860162000174565b9150509250929050565b61178d80620001e26000396000f3fe608060405234801561001057600080fd5b50600436106100b45760003560e01c806387c4267c1161007157806387c4267c146101b357806388e18cdc146101cf578063a090195d146101ff578063abeeeac014610231578063ddc7cdf914610261578063fd15a0de1461027f576100b4565b80631314b545146100b95780631bb8f488146100e95780634b3efeac1461011957806353c37af7146101495780635906106e14610179578063778ad70714610197575b600080fd5b6100d360048036038101906100ce9190610cd6565b61029d565b6040516100e09190610d46565b60405180910390f35b61010360048036038101906100fe9190611019565b6103b6565b60405161011091906110ec565b60405180910390f35b610133600480360381019061012e9190611193565b6103ce565b60405161014091906111fe565b60405180910390f35b610163600480360381019061015e919061123b565b6103dd565b6040516101709190610d46565b60405180910390f35b610181610484565b60405161018e91906112dc565b60405180910390f35b6101b160048036038101906101ac91906112f7565b6104a8565b005b6101cd60048036038101906101c8919061140d565b6105b4565b005b6101e960048036038101906101e49190611469565b6106f1565b6040516101f691906111fe565b60405180910390f35b610219600480360381019061021491906114d8565b610930565b60405161022893929190611514565b60405180910390f35b61024b6004803603810190610246919061154b565b61097a565b60405161025891906111fe565b60405180910390f35b610269610b8b565b60405161027691906111fe565b60405180910390f35b610287610b91565b60405161029491906115ac565b60405180910390f35b6000833373ffffffffffffffffffffffffffffffffffffffff166003600083815260200190815260200160002060000160009054906101000a900473ffffffffffffffffffffffffffffffffffffffff1673ffffffffffffffffffffffffffffffffffffffff161461030e57600080fd5b600160009054906101000a900473ffffffffffffffffffffffffffffffffffffffff1673ffffffffffffffffffffffffffffffffffffffff16632e05aefd85856040518363ffffffff1660e01b815260040161036b9291906115f2565b602060405180830381865afa158015610388573d6000803e3d6000fd5b505050506040513d601f19601f820116820180604052508101906103ac9190611649565b9150509392505050565b6103be610bb7565b8181600001818152505092915050565b60008160000151905092915050565b60008060009054906101000a900473ffffffffffffffffffffffffffffffffffffffff1673ffffffffffffffffffffffffffffffffffffffff1663c0e9d81c84846040518363ffffffff1660e01b815260040161043b929190611686565b602060405180830381865afa158015610458573d6000803e3d6000fd5b505050506040513d601f19601f8201168201806040525081019061047c9190611649565b905092915050565b60008054906101000a900473ffffffffffffffffffffffffffffffffffffffff1681565b823373ffffffffffffffffffffffffffffffffffffffff166003600083815260200190815260200160002060000160009054906101000a900473ffffffffffffffffffffffffffffffffffffffff1673ffffffffffffffffffffffffffffffffffffffff161461051757600080fd5b6000600183600360008881526020019081526020016000206004018681548110610544576105436116b1565b5b906000526020600020906005020160040154901c161461056357600080fd5b816001901b6003600086815260200190815260200160002060040184815481106105905761058f6116b1565b5b90600052602060002090600502016004016000828254179250508190555050505050565b813373ffffffffffffffffffffffffffffffffffffffff166003600083815260200190815260200160002060000160009054906101000a900473ffffffffffffffffffffffffffffffffffffffff1673ffffffffffffffffffffffffffffffffffffffff161461062357600080fd5b815160036000858152602001908152602001600020600201541461064657600080fd5b60005b82518110156106eb57828181518110610665576106646116b1565b5b6020026020010151600360008681526020019081526020016000206004018281548110610695576106946116b1565b5b9060005260206000209060050201600082015181600001556020820151816001015560408201518160020155606082015181600301556080820151816004015590505080806106e39061170f565b915050610649565b50505050565b60006101008351111561070357600080fd5b600060025490506002600081548092919061071d9061170f565b9190505550846003600083815260200190815260200160002060000160006101000a81548173ffffffffffffffffffffffffffffffffffffffff021916908373ffffffffffffffffffffffffffffffffffffffff1602179055508351600360008381526020019081526020016000206001018190555060005b845181101561086d57600360008381526020019081526020016000206003018582815181106107c8576107c76116b1565b5b6020026020010151908060018154018082558091505060019003906000526020600020906003020160009091909190915060008201518160000160006101000a81548173ffffffffffffffffffffffffffffffffffffffff021916908373ffffffffffffffffffffffffffffffffffffffff160217905550602082015181600101906002610857929190610be6565b50505080806108659061170f565b915050610796565b5082600360008381526020019081526020016000206002018190555060005b8381101561092457600360008381526020019081526020016000206004016108b486836103b6565b908060018154018082558091505060019003906000526020600020906005020160009091909190915060008201518160000155602082015181600101556040820151816002015560608201518160030155608082015181600401555050808061091c9061170f565b91505061088c565b50809150509392505050565b60036020528060005260406000206000915090508060000160009054906101000a900473ffffffffffffffffffffffffffffffffffffffff16908060010154908060020154905083565b6000806003600085815260200190815260200160002060040183815481106109a5576109a46116b1565b5b906000526020600020906005020160040154905060005b60036000868152602001908152602001600020600101548110156109ff576001808284901c16146109ec57600080fd5b80806109f79061170f565b9150506109bc565b50610b8260036000868152602001908152602001600020600301805480602002602001604051908101604052809291908181526020016000905b82821015610b0657838290600052602060002090600302016040518060400160405290816000820160009054906101000a900473ffffffffffffffffffffffffffffffffffffffff1673ffffffffffffffffffffffffffffffffffffffff1673ffffffffffffffffffffffffffffffffffffffff16815260200160018201600280602002604051908101604052809291908260028015610aee576020028201915b815481526020019060010190808311610ada575b50505050508152505081526020019060010190610a39565b50505050600360008781526020019081526020016000206004018581548110610b3257610b316116b1565b5b90600052602060002090600502016040518060a0016040529081600082015481526020016001820154815260200160028201548152602001600382015481526020016004820154815250506103ce565b91505092915050565b60025481565b600160009054906101000a900473ffffffffffffffffffffffffffffffffffffffff1681565b6040518060a0016040528060008152602001600081526020016000815260200160008152602001600081525090565b8260028101928215610c15579160200282015b82811115610c14578251825591602001919060010190610bf9565b5b509050610c229190610c26565b5090565b5b80821115610c3f576000816000905550600101610c27565b5090565b6000604051905090565b600080fd5b600080fd5b6000819050919050565b610c6a81610c57565b8114610c7557600080fd5b50565b600081359050610c8781610c61565b92915050565b600080fd5b600081905082602060180282011115610cae57610cad610c8d565b5b92915050565b600081905082602060120282011115610cd057610ccf610c8d565b5b92915050565b60008060006105608486031215610cf057610cef610c4d565b5b6000610cfe86828701610c78565b9350506020610d0f86828701610c92565b925050610320610d2186828701610cb4565b9150509250925092565b60008115159050919050565b610d4081610d2b565b82525050565b6000602082019050610d5b6000830184610d37565b92915050565b600080fd5b6000601f19601f8301169050919050565b7f4e487b7100000000000000000000000000000000000000000000000000000000600052604160045260246000fd5b610daf82610d66565b810181811067ffffffffffffffff82111715610dce57610dcd610d77565b5b80604052505050565b6000610de1610c43565b9050610ded8282610da6565b919050565b600067ffffffffffffffff821115610e0d57610e0c610d77565b5b602082029050602081019050919050565b600080fd5b600073ffffffffffffffffffffffffffffffffffffffff82169050919050565b6000610e4e82610e23565b9050919050565b610e5e81610e43565b8114610e6957600080fd5b50565b600081359050610e7b81610e55565b92915050565b600067ffffffffffffffff821115610e9c57610e9b610d77565b5b602082029050919050565b6000610eba610eb584610e81565b610dd7565b90508060208402830185811115610ed457610ed3610c8d565b5b835b81811015610efd5780610ee98882610c78565b845260208401935050602081019050610ed6565b5050509392505050565b600082601f830112610f1c57610f1b610d61565b5b6002610f29848285610ea7565b91505092915050565b600060608284031215610f4857610f47610e1e565b5b610f526040610dd7565b90506000610f6284828501610e6c565b6000830152506020610f7684828501610f07565b60208301525092915050565b6000610f95610f9084610df2565b610dd7565b90508083825260208201905060608402830185811115610fb857610fb7610c8d565b5b835b81811015610fe15780610fcd8882610f32565b845260208401935050606081019050610fba565b5050509392505050565b600082601f83011261100057610fff610d61565b5b8135611010848260208601610f82565b91505092915050565b600080604083850312156110305761102f610c4d565b5b600083013567ffffffffffffffff81111561104e5761104d610c52565b5b61105a85828601610feb565b925050602061106b85828601610c78565b9150509250929050565b61107e81610c57565b82525050565b60a08201600082015161109a6000850182611075565b5060208201516110ad6020850182611075565b5060408201516110c06040850182611075565b5060608201516110d36060850182611075565b5060808201516110e66080850182611075565b50505050565b600060a0820190506111016000830184611084565b92915050565b600060a0828403121561111d5761111c610e1e565b5b61112760a0610dd7565b9050600061113784828501610c78565b600083015250602061114b84828501610c78565b602083015250604061115f84828501610c78565b604083015250606061117384828501610c78565b606083015250608061118784828501610c78565b60808301525092915050565b60008060c083850312156111aa576111a9610c4d565b5b600083013567ffffffffffffffff8111156111c8576111c7610c52565b5b6111d485828601610feb565b92505060206111e585828601611107565b9150509250929050565b6111f881610c57565b82525050565b600060208201905061121360008301846111ef565b92915050565b60008190508260206002028201111561123557611234610c8d565b5b92915050565b600080610340838503121561125357611252610c4d565b5b600061126185828601610c92565b92505061030061127385828601611219565b9150509250929050565b6000819050919050565b60006112a261129d61129884610e23565b61127d565b610e23565b9050919050565b60006112b482611287565b9050919050565b60006112c6826112a9565b9050919050565b6112d6816112bb565b82525050565b60006020820190506112f160008301846112cd565b92915050565b6000806000606084860312156113105761130f610c4d565b5b600061131e86828701610c78565b935050602061132f86828701610c78565b925050604061134086828701610c78565b9150509250925092565b600067ffffffffffffffff82111561136557611364610d77565b5b602082029050602081019050919050565b60006113896113848461134a565b610dd7565b90508083825260208201905060a084028301858111156113ac576113ab610c8d565b5b835b818110156113d557806113c18882611107565b84526020840193505060a0810190506113ae565b5050509392505050565b600082601f8301126113f4576113f3610d61565b5b8135611404848260208601611376565b91505092915050565b6000806040838503121561142457611423610c4d565b5b600061143285828601610c78565b925050602083013567ffffffffffffffff81111561145357611452610c52565b5b61145f858286016113df565b9150509250929050565b60008060006060848603121561148257611481610c4d565b5b600061149086828701610e6c565b935050602084013567ffffffffffffffff8111156114b1576114b0610c52565b5b6114bd86828701610feb565b92505060406114ce86828701610c78565b9150509250925092565b6000602082840312156114ee576114ed610c4d565b5b60006114fc84828501610c78565b91505092915050565b61150e81610e43565b82525050565b60006060820190506115296000830186611505565b61153660208301856111ef565b61154360408301846111ef565b949350505050565b6000806040838503121561156257611561610c4d565b5b600061157085828601610c78565b925050602061158185828601610c78565b9150509250929050565b6000611596826112a9565b9050919050565b6115a68161158b565b82525050565b60006020820190506115c1600083018461159d565b92915050565b82818337505050565b6115dd61030083836115c7565b5050565b6115ee61024083836115c7565b5050565b60006105408201905061160860008301856115d0565b6116166103008301846115e1565b9392505050565b61162681610d2b565b811461163157600080fd5b50565b6000815190506116438161161d565b92915050565b60006020828403121561165f5761165e610c4d565b5b600061166d84828501611634565b91505092915050565b611682604083836115c7565b5050565b60006103408201905061169c60008301856115d0565b6116aa610300830184611676565b9392505050565b7f4e487b7100000000000000000000000000000000000000000000000000000000600052603260045260246000fd5b7f4e487b7100000000000000000000000000000000000000000000000000000000600052601160045260246000fd5b600061171a82610c57565b91507fffffffffffffffffffffffffffffffffffffffffffffffffffffffffffffffff820361174c5761174b6116e0565b5b60018201905091905056fea2646970667358221220c1cd6f18fc5411681c5dbb5da72a5f07fb31658198397a6701f0f1fb52e097c864736f6c63430008120033",
  "linkReferences": {},
  "deployedLinkReferences": {}
}